:020000040000FA
:102000009007001009210000FD380000C1310000D8
:1020100000000000000000000000000000000000C0
:10202000000000000000000000000000252100006A
:10203000000000000000000027210000793F0000A0
:10204000F5300000C92900002D3B00002B210000C5
:10205000D53100003D3D0000F1290000893100002C
:102060002B2100002B21000079400000000000001F
:102070000000000000000000000000000000000060
:102080000000000000000000000000000000000050
:102090000000000000000000000000000000000040
:1020A0000000000000000000000000000000000030
:1020B0000000000000000000000000000000000020
:1020C0000648016801220A4302600549C26A920774
:1020D00003D54A1C00291146F8D170472000FF00A3
:1020E000009423FD0A68496841600260044905487C
:1020F0000268520703D54A1C00291146F8D17047DF
:10210000009423FD4C00FF0072B600200749084AE6
:102110000860091D9142FBD30648804706480047E6
:10212000FEE7FEE7FEE7FEE7FEE7FEE750000010F1
:1021300090070010893F00000D40000030B5434378
:1021400051435C18010C130C0D465D432C1980B2F1
:1021500092B20546554351430A0C09044D19624198
:102160005843010C00044019514130BD03460B4354
:102170009B0703D009E008C9121F08C0042AFAD23D
:1021800003E00B780370401C491C521EF9D27047C3
:10219000D2B201E00270401C491EFBD270470022FF
:1021A000F6E710B513460A4604461946FFF7F0FF56
:1021B000204610BD30B504460020034600E05B1CFD
:1021C000934203D2E05CCD5C401BF8D030BDF8B543
:1021D00002464A40D40F42004B0052085B089A4224
:1021E00002D20246084611464A0023D0C30D4A00D7
:1021F000DDB2120EAD1A202D35DA49020126490A48
:10220000F6058A19002C00D0524220214F1B11469E
:10221000B9402A411018C20D9A4221D0002C17D083
:10222000012D08DCDA05801AD20F8019D207DBB243
:1022300000F032FBF8BDDA05801A012340001B06CE
:10224000C01880185A428018CA0F1043490007E08E
:102250004908C2071143DA05801A8019400880181E
:1022600000F012FBF8BD61000122511A001BF7E7D4
:102270000122D2075140AAE70122D2075040A6E727
:10228000024670B54A40D30FDB0740002DD04A000C
:102290002AD0010E140E000212020919400A520A35
:1022A0008418E50104465443000A120A2E045043E0
:1022B000A4194219200CC543AA18120C0125AD031C
:1022C000521C521912047F39240400D0521C1043AE
:1022D00001D44000491EC2B20C06C0092018401C9F
:1022E0004008802A02D003E0002070BD4008400072
:1022F000002900DA0020184370BD70B502464A403C
:10230000D50F40004A00ED0740085208002814D0BD
:10231000002A12D0C40DD30D41020120C005520283
:10232000490A520AE41A091812187D34914201D35D
:10233000641C00E04900002C01DA002070BD00237D
:10234000914201D3891A0343400849000028F7D17C
:1023500000290AD0914202D10121C90705E091422A
:1023600001D2012101E00121C943E005C018401953
:1023700000F08AFA70BD0000F0B5074608465840E4
:1023800087B0C00F049048000E4659004008490825
:10239000BC1A884105D2384631461E4617460B46C0
:1023A00002465800400810434CD0300D03904005C1
:1023B0005900400D490D0590401A0290402872DAEC
:1023C00018030121000B09050843019004980092AD
:1023D000002805D0019952420020884100920190C6
:1023E000029840210A1A0199009800F019FA05464E
:1023F0000C466B4607CB00F034FAC0197141039AC2
:102400000E0D0023D71756401A467A40164344D083
:10241000049A002A2DD0029A012A039A15DC12058B
:10242000C01A914101263605001C7141D20F059E4C
:10243000D2070093019202962A46234600F072FAD0
:1024400007B0F0BD38463146FAE71605224A0F4676
:10245000B218C01AB74101210905001C4F410018EC
:102460007F41114618187941E20F10436D196441FC
:1024700013E0E2076D0815436408C2071443039A8A
:1024800001261205C01A91413605001C7141CE0784
:10249000400830434908C01851412A46234600F0FD
:1024A00034FACDE7FFE7049801224000C117121A61
:1024B00000238B4104983146C417381AA141EEE736
:1024C00030B40124E407634030BC55E730B4012444
:1024D000E407614030BC4FE70000E0FFF0B51FB4F7
:1024E00088B00B990998002448400999C00F490009
:1024F00049080991C0070B990090490049080B91C0
:1025000009990898A64608431CD00B990A980843D5
:1025100018D0099801244000420D4800410D099847
:1025200024050003000B204309900B980003000BC7
:1025300020430B9050181C4940180022019014466B
:10254000104605E0002001460DB0F0BD032801DA79
:10255000034600E003239C46C11A0AAE0AE05F006E
:1025600008ADED5B4F00F75B7D430027AA187C4167
:10257000491C5B1E6145F2DD410004AB5A52210447
:10258000120C0A43240C401C0828DFDB019802903F
:102590000099704601910090059B049A079906984E
:1025A00000F0C0F9D0E700000DFCFFFFF0B50C46CD
:1025B0005C4085B0E40FE40703944C0000266408F7
:1025C00059009446490802460296224321D06246A9
:1025D0000A431ED06200570D4A000E032303550D17
:1025E000012402462C492405781B1B0B360B40188E
:1025F00023432643614600901C46501AB44103D33E
:102600000098401C009002E0921800985B4100285E
:1026100003DA0020014605B0F0BD002001210905C4
:102620000746864611E064461D46141BB54106D395
:102630006546521BB341744607430C43A646CD077B
:1026400040084908284392185B4105460D43EAD1EA
:102650001046184313D06046194650407140084355
:1026600006D06046101AB34106D20122002306E0CC
:1026700000220123DB0702E00122D243531000981D
:1026800074460105381C6141029C039D0019694193
:1026900000F03BF9BFE70000FD030000C217C10FC7
:1026A000504010B54018CA079623002100F0F4F8F6
:1026B00010BD10B500229623114600F0EDF810BDB4
:1026C0000EB5C217C10F5040CA0740180021054B74
:1026D0000293019200910A460B4600F023F903B0E1
:1026E00000BD00003304000070B5CD0F4A0009039F
:1026F0000123090B1B0519430B4BED070024520D59
:102700009A4201DA002070BD074B34339A4203DC51
:102710009A1A00F095F802E00449511888402C43B9
:10272000F1D0404270BD0000FF030000CDFBFFFF71
:10273000C20FD207400040080BD0C10D0723DB01B8
:10274000C91840020905400A1143C2084007114355
:102750007047002001467047CB0FDB07490010B5DA
:10276000490802460A4307D00A0D07240903E40179
:10277000090B121B002A01DC002010BDC900440F08
:102780000C43C100E018D205801800F07DF810BDA0
:1027900070B50446002903D000202022012310E058
:1027A000002801D00020C043C046C0460DE02546A9
:1027B000D5408D4205D30D469540641B1D4695407E
:1027C00040191546521E002DF1DC214670BD000057
:1027D00070B5002504462E46002911D0002C01DAE0
:1027E00001254442002901DA012649422046FFF72B
:1027F000CFFFB54200D04042002D00D0494270BD0D
:10280000002C02DA0121C90702E0002C00DD034997
:102810000846C046C046214670BD0000FFFFFF7F4E
:1028200010B5202A04DB0146203A9140002010BD5B
:10283000914020239C1A0346E3401943904010BD69
:1028400010B5202A04DB0846203AD040002110BDF4
:102850000B46D340D0402024A21A91400843194689
:1028600010BD10B5202A06DBCB170846203A1041D0
:10287000C1170B4306E00B461341D0402024A21A97
:1028800091400843194610BD002904DA401C490054
:1028900001D140084000704770B40024050C05D1F8
:1028A0001024000402D1002921D01124050E01D1E9
:1028B00000020834050F01D10001241D850F01D14C
:1028C0008000A41C002801DB4000641C002908D003
:1028D00020252E1B0D46F540A14000D001212943A3
:1028E000084301061B1B000ADB1D02D5002070BC3B
:1028F0007047DB05181880180029F8DA401C4900D9
:10290000F5D170BC40084000704710B5002B08DAC4
:102910000024401C614192185B411A4301D14008D8
:10292000400010BDF0B51FB482B005460C0003D0C6
:10293000084605F0E9FA02E005F0E6FA2030024622
:10294000009021462846FFF76BFF049B059A04463A
:102950000F4618431143084314D0184610431BD0A8
:10296000009840210A1A18460599FFF769FF0546A5
:102970000E46009A05990498FFF752FF084305D0C8
:10298000012004E02046394607B0F0BD0020C11701
:1029900005430E432C43374300990E986305401AB4
:1029A0007905E40A00220C43FD0A0A3002D5002012
:1029B0000146E9E70105101969410C9C0D9D0019BC
:1029C0006941FFF7A2FFDFE7B0B5074D68681F2434
:1029D000044008D005488168002901D02046884776
:1029E000286820432860B0BD0C700040240200100D
:1029F0000248416802680A43026070472CC00040E8
:102A0000B0B5B94D2878012805D1E9680020024603
:102A100003F09EFF0CE02878022809D1002420460C
:102A200003F074F96878214603F0F2FC02F0FAFE34
:102A300000202870A870B0BD10B502460020022A00
:102A40000BD8002909D0A84B9C186479002C04D01D
:102A500050001818008A0880012010BD0120C1050F
:102A60000968CAB2032A08D83F2000020140481E64
:102A70008141D21E5042504108407047F0B587B0A6
:102A800049A003A902913CC83CC14B484B49016095
:102A90004B490A6802273A430A600A6804230193F3
:102AA0001A430A600A6810263243E0239A430A60F8
:102AB0004449016002F084FE43480760BFF34F8F32
:102AC000BFF36F8F414807600125284603F07EF968
:102AD0003F484049C1674049016040494160404921
:102AE00081604049C16040490161404941614049BC
:102AF000816179210902C1613E49C1673E4C20686C
:102B00003E49014021600720010322688A430321D6
:102B10000B03D21822602268082313432360EA05BE
:102B200063689343636002046368934363600005D2
:102B300062688243080510186060280661680143D6
:102B400061607F200004A16881430F200004081801
:102B5000A060A0682A490140192040010818A0601F
:102B600002F060FE206838432060206801998843A5
:102B700020602449029802F001FF284603F026F95C
:102B80000024204603F0C2F8E54804704480162E65
:102B900007D000218153021914725171B61C641CB4
:102BA000F5E707B0F0BDC0460001000008000000D6
:102BB0000201000004000000FC1000405A5A5A5A5A
:102BC0001C1000407856341280E100E080E200E002
:102BD00080F00040103254761D1F37747C00FA00DC
:102BE0007701EF02F804040B040B0116FF2080109C
:102BF0000021403F98BADCFE18700040FFFF00FC47
:102C000000F0FFFF092C000070B586B06946002275
:102C10000A80C34E317802293DD100073BD50024FC
:102C2000204603F073F87078214603F0F1FB03A807
:102C3000062102F003FE06282AD1042120460C2991
:102C400004D003AA525E8018891CF8E701AA0399F0
:102C500051808008108003A94988918002B2002029
:102C6000012A0EDB00290CD07078401DC0B201A9EA
:102C70006D462A4603F0C0F8AD48017800984843F5
:102C80002880317972180123537149007118088224
:102C9000347000F01BF906B070BDC046FEB5144696
:102CA0000E4607469E480078002801D0FFF7A8FE90
:102CB0000025002C16D001AA04233846314602F024
:102CC00051FD00280ED100210846082904D001AA90
:102CD000525E8018891CF8E7C117890F40188008D8
:102CE000208001252846FEBD0C020010F0B585B0FD
:102CF0000026002865D004460125334904AA284649
:102D0000FFF7CCFF00285CD00395002057490D5EEB
:102D10000498800487142D4EFFF7A0FE00280FD0E2
:102D20002B48C16909148D42029701950ADD0146BD
:102D3000203102461C32071D03460833384606E0A0
:102D4000039D33E00246243201461C31031D039DDE
:102D50001768096802683F0C090C1868B94224D04A
:102D600000911C490A407D21C9000B46DF33842AAB
:102D7000039302D34A43520C0392164A104084280C
:102D800001D341434B0C0398191A0198C01B4843C7
:102D90000099C91BFFF71CFD0399401846430E48D4
:102DA00030180E49FFF714FD0646029F7E4314209B
:102DB000704329034018C117C90C4018400B2080EC
:102DC0002E46304605B0F0BD28000010C4090000B2
:102DD00090008000FFFF0F0063020000C7040000A6
:102DE000FEB50025002837D0044608201E4902AA57
:102DF000FFF754FF00282FD01C48029901800B20B8
:102E00000002019005273E03FFF728FE00280BD0A3
:102E1000174801688AB217498A4201D0026896B2FF
:102E20000268154B9A4219D90199002002AA105E36
:102E3000474370003A1A502050434B08002A03D4ED
:102E4000C018FFF7A5FC03E0181AFFF7A1FC4042E9
:102E50000A494018208001252846FEBD0068491C0B
:102E60008842F9D3010CE0E73E0000109C020010FC
:102E700078008000FFFF0000FFFFFEFF54F5FFFF1A
:102E80007CB5002401940725054014D0244E3078E9
:102E9000002819D1002401A9204603F0D7FF01988A
:102EA000002811D008210B2908D04218083A1278BE
:102EB0007254491CF7E7FFF7A3FD04E00020F0700F
:102EC000B57000F003F8012420467CBD70B5144DA8
:102ED000E97814A6164C02291DD80846491CE97049
:102EE000AA78C240D207F6D028712818007A6870F4
:102EF00081007158E960401DC0B20622214602F0EF
:102F0000D3FFE9780028E6D101222A70E968002081
:102F100003F01EFD70BD0020A870287070BDC04673
:102F20000C0200104000000000010000000400003E
:102F30003200001080B500F0C3FC00F005F800F08E
:102F4000A5FD00F0BFF880BDFEB5514800780F2107
:102F50000140012901D8202805D302F0D9FA002028
:102F60004C490870FEBD4B4C2278012A0BD0002A38
:102F70002FD10129F6D11E206080A01CA11D01F0D7
:102F80006DFD0120ECE70129ECD100202070628862
:102F9000002AE5D0A0792E2825D027282AD022285B
:102FA0003BD1032A43D10020A080207AE179090295
:102FB000081881B226462436231D032530462A46AA
:102FC00004F0DCFD002849D03448A0843120B070E2
:102FD00046E0F02108401028C4D1A08824342146BE
:102FE00001F048FDBBE713252E217F26042A26D2B7
:102FF0002F463CE0012A08D9E179022A01D00329B1
:1030000003D0062A3CD004293AD12348A0840320C7
:10301000A08024341320A07030E024217F22625449
:103020000321A18024341121A170607026E01B4887
:10303000A0842046243013218170032510E00291E2
:10304000277AE07901900002C119A01D04F082FDE9
:10305000002807D0022808D12F4607E0A088C51C09
:10306000A5800BE06E26019901E03127029924200A
:1030700026540320A0802434A770617002206FE7DB
:10308000E01D231D2434224604F00AFDF6E7C04665
:10309000800100103E0100107F2700007F22000009
:1030A000064800880649002806D000228A704A7027
:1030B0000A70C91C401EF6E77047C0466C7F0000CE
:1030C000920200107047000080B500F095FCFFF7F9
:1030D000E7FF00F01DFC7221415C002901D011299D
:1030E00000D3817902480170002000F0DFFB80BD31
:1030F0008202001004488168044A054B1360016095
:10310000424810607047C0463400FF00F800FF00DE
:1031100055AA55AA80B500F015F880BD80B50128E4
:1031200004D12F20800200F013F880BD012080BD63
:1031300080B5012804D12F20800200F017F880BD4F
:10314000012080BD80B50120400204F075F880BDEB
:1031500080B503460120002907D0002A05D0184673
:1031600003F0C4FF01460120484080BD80B50346FE
:103170000120002907D0002A05D0184604F002F8E3
:1031800001460120484080BD70B5094C25690948B9
:103190000168094E002902D028463040884720683F
:1031A000284330402168054A0A401018206070BD4D
:1031B0001080004084020010FF01000000FEFFFFAD
:1031C0000120400302490A6802430A607047C04672
:1031D0000CC0004010B50B480B498160012213065A
:1031E00044681C434460094B83608160016811435B
:1031F0000160836006480168002901D000208847EB
:1032000010BDC04610A000405555AAAA78563412E9
:103210008803001001460020002906D0154A1378C3
:10322000002B02D050880880012070470146002002
:10323000002906D00F4A5378002B02D090880880CE
:103240000120704780B50B480021818041800180BA
:10325000FFF714FC00F002F880BDC04610B5054C25
:10326000201DFFF7BDFD6070A01CFFF73FFD207023
:1032700010BDC046CC01001000201149085EC117E6
:103280008843704780B50E48FFF7C4FF80BDC04635
:1032900010B50B4C2046FFF7BDFF002806D00020DC
:1032A000205E0849884203DA022010BD002010BDCC
:1032B00080B20549884201D8012010BD042010BD0C
:1032C0009002001070170000384A0000032801D057
:1032D000022100E00121022800D100214800854997
:1032E000081880887047C046032801D0022200E0F9
:1032F00001228149022800D0891808787047C04609
:10330000032801D0022100E00121022800D1002180
:103310004800794908180A21405E704770B503F0EB
:10332000F9FD0D480168002420468847714E311D83
:10333000204603F0C5FD01252046294603F0D4FDB3
:10334000348004206C49032C05D00D5564220A52A8
:10335000801C641CF7E770BD3081000080B5002040
:103360000146024600F04CF880BD00006149002093
:1033700048700421604A03280AD064235352135C26
:103380001B079B0F01D001231354891C401CF2E73B
:103390007047C046042801D856498870052801D3D3
:1033A000002070470120704780B5FFF7D7FF00204D
:1033B000014603F099FD504801218170FF2102313F
:1033C000018080BDB0B541004B4A51180A23CD5E43
:1033D00004240A4B9D42234604DCFF2390339D4284
:1033E00007DC08230C5F012C04DB081D611E018033
:1033F000B0BD0223135464208880B0BD561B00006A
:10340000B0B53C4CA3785B1EDDB2022D07D858B294
:1034100041001348405A134A525A134B595A134BFE
:103420009A4200D31A462281994200D31946E1807C
:10343000984200D31846A0800F235D010023A842C4
:1034400001D8184600E00120A94200D9801CAA42F8
:1034500000D9001D2070211D184603F031FDB0BDBC
:10346000587F0000527F00004C7F0000FF7C00006E
:103470001CB5204C2078002838D0C0070BD0002085
:1034800001A9FFF7D9FA002805D01B48019941810D
:103490000020FFF797FF207880070BD5012001A9B6
:1034A000FFF7CAFA002805D013480199818101204D
:1034B000FFF788FF207840070BD5022001A9FFF70E
:1034C000BBFA002805D00C480199C1810220FFF702
:1034D00079FF0948017842780A43807810430C212B
:1034E0000140481E81416170207800E00020FFF714
:1034F000C7FC1CBD780200100000001080B500F071
:1035000019F802207849085E80BDC046042076493B
:10351000085E704780B57448002181804180714AFF
:10352000FA2313800181C1804181017000F002F80B
:1035300080BDC046F0B58BB0FFF79EFE089000F04E
:10354000E7F804460AA8FFF771FE002802D0654894
:103550000A990180644B18780028099409D0062044
:10356000185E00215F4A515E0818C10F40184010D4
:1035700001E05C480088D88002265C4C3046A047B9
:10358000254606905A4C3046A04727460390032410
:103590002046A84705902046B8473D46029004279C
:1035A00038465249884704903846A847019030462B
:1035B0004E49884707903046A847089D2E1A07981D
:1035C000464320464949884707902046484988474E
:1035D000281A0799484386193846444988470446BB
:1035E000384643498847281A6043301807900698A0
:1035F000039941437D200390070208463946FFF7AF
:10360000E7F8044605980299414308463946FFF712
:10361000DFF8064604980199414308463946FFF70A
:10362000D7F82946334A62430692334A72430592D9
:10363000324D45433248814204DD324808180E4677
:10364000314908E0401A401C0E460399C900FFF7B3
:103650009FF8C0000A21FFF79BF8044607983946F7
:10366000FFF7B6F821B24C314143152048435F21A2
:10367000C9007143069A5118059A89184919081802
:103680002249FFF7A5F80921C9434143164DE888AF
:1036900040186430297801290ED10821695E0F2273
:1036A0004A4300B21018020F8018001113224A4337
:1036B00080181421FFF78CF8099C28816889FA305A
:1036C00081B2204600F02AF8002802D1287800288C
:1036D00004D16C8128896880E888A880012028703E
:1036E0000BB0F0BD3C000010D2010010CD32000044
:1036F0000133000010FCFFFFC4F9FFFF36FDFFFFA0
:10370000DF2E000020D1FFFF1027000040420F00F5
:1037100080B504F0D3FB80B280BD7047081A00B2B8
:10372000012801DB002070470120704780B504F0BC
:10373000E7FB80BD80B57D20C00004F0CDFB0120FB
:1037400004F0C6FB80BD80B5002800D080BD01F02C
:10375000BFFB80BD10B500240321204603F07EFC92
:103760004E488460446110BD80B501F079FBFFF7DD
:10377000F1FF01F0ADFB80BD7CB50446400505D4EA
:103780004748044218D1454840780BE0FFF7E2FF74
:103790004249002008718870012048700A78082387
:1037A00013430B70B0210C4201D0032804D03D49D3
:1037B0000C4204D0052802D1FFF7D6FF7CBD374E5E
:1037C000A00513D57069002810D0327A737A9A4216
:1037D0000CD9C118D01AC5B2042D00D3042500207D
:1037E0002A4603F078FC707A40197072200508D5DB
:1037F000002003F040FC022070703078102101435B
:10380000317060070CD501ADFF2028700020014603
:103810002A4603F051FC28782021705401F0F2FD73
:10382000212520462840012811D1002001216A4687
:1038300003F042FC707803280AD1F17AB27A9142FF
:1038400006D27218009B5355491CF17200E0707843
:10385000A1070CD503280AD1B07AF17A8142ABD105
:1038600001F068FD002070813071B0707070E0056B
:1038700007D501F019FE002070613071B070308101
:103880007070E00307D4A00304D5707B012801D138
:10389000022070737CBD0448B0817CBDE001001043
:1038A00008100000204000000104000010B50C4C7E
:1038B0000020207001F0C1F841424141617010BD0B
:1038C00080B507484178002909D00178491C01706A
:1038D000C9B2022903D30021017001F01BF980BD98
:1038E000DE01001080B5FFF715FC80BD80B5FFF745
:1038F00015FC80BD80B5FFF71BFC80BD0120400397
:1039000002490A6802430A607047C0460CC0004082
:1039100010487047F8B50D4606460E4C0E49742700
:1039200020463A46FEF722FCA888032800D0442708
:10393000002081B28F4203D96A5C7254401CF8E7C0
:10394000A07973216054722160540420A0801C4827
:103950002060F8BDA4020010608100000146002034
:10396000002914D00A68164B9A4210D18A88042A7A
:103970000DD18A79521E0F2A09D872310A78002A8D
:1039800005D04978002902D0112901D300207047C1
:10399000012070470146002000290FD00A68084B1B
:1039A0009A420BD18B8801229343022B06D189794D
:1039B000002903D0112900D3002210467047C046C9
:1039C00043535753002A05D00B780370491C401C01
:1039D000521EF7E77047000001462B481C38294A61
:1039E0001288521C521E04D0838B1C308B42F9D19A
:1039F000704700207047C046F0B5A3B0FFF772FFD4
:103A000049480027077047801E4800881C21414311
:103A100001910198B84233D01B49C85BCC19A56805
:103A20006688029029463246FFF760FF002804D1DD
:103A3000216928468847002812D1A288802A05D803
:103A400003A90298FFF752FF00280BD0E16828462F
:103A50003246FFF7B7FF029829463246FFF74AFF82
:103A60001C37D6E761690029F0D003A888470028F1
:103A7000ECD0A269002AE9D003A928469047EAE7DA
:103A800023B0F0BD6E7F0000707F000010B5264CA3
:103A90002078022810D16088FFF79EFF002809D007
:103AA000428881680088FFF725FF00216180411E60
:103AB000884100E00120207010BDC046B0B50C4622
:103AC000FFF78AFF0146012000290CD0002C0AD004
:103AD000154D2A78022A06D04A8889682046FFF7C1
:103AE00071FF00202870B0BDF8B50D460446FFF701
:103AF00073FF0126002815D0002D13D007460A4871
:103B0000007802280ED0396928468847002809D055
:103B10007A88B8682946FFF755FF022002490870E5
:103B20004C8000263046F8BDC8010010B0B5074DE6
:103B30006C68200408D006480168002901D020469E
:103B40008847286820432860B0BDC0462C500040FC
:103B50008C020010094800787047C04610B5014635
:103B60000020002908D0054A1278054B1C78A24293
:103B700002D01A700A70012010BDC046A6010010C4
:103B80009B02001080B50020FFF7DDFD80BD000026
:103B9000B0B50121002817D03B2815D866494871D7
:103BA0004209C30853404208534004096340DB0103
:103BB0008508554065404540EA07520ED218024339
:103BC00080205040C87100210846B0BD80B5014634
:103BD0000120FFF773FF80BD80B501460120FFF78C
:103BE00083FF80BDF0B50121002831D0524AD3783F
:103BF0009B072DD54F490B784C786406640CE3186D
:103C000003804B78DB0983700D79CE784C79E3091A
:103C1000C3708B795F09C771CF7901223A40027175
:103C2000CA799207D20F42718A7842728672C5723F
:103C30007F2222400273404DEA78FD241440EC704C
:103C40000F221A400272C9794907C90F81710021F8
:103C50000846F0BDFFB5002869D00646354C227AEB
:103C60007F25154025723449087A022303433278B0
:103C70000B72607AFC21039107460F406772D201F4
:103C80005219227272782C4D2B72F021019108404A
:103C900003273A40009712186272B1782B72C32042
:103CA000029002408807000F80186072F2782B7231
:103CB000120102433F201040607232792B72920150
:103CC00010186072A07A024603990A40A2727279B3
:103CD0002B72019D28403A401118A172B279164802
:103CE0000372832008409107090F0818A072F17928
:103CF000114F3B724907490E0818A072E07A0399E8
:103D00000140E1722840317A009A11400818E072AF
:103D100002990840717A8907090F0818E0723B720E
:103D2000B17A8907890E0818E072002000E00120AE
:103D300004B0F0BD18000010BD010010B0B5114D69
:103D4000E86DD64C04401BD0C10507D52968022276
:103D500091432960296804220A432A60C00406D5D9
:103D60002868012188432860286808432860CC48D7
:103D70000168002901D020468847686D20436865A6
:103D8000B0BDC0460860004080B5FFF7ADFA0146FF
:103D9000400701D5032000E00220012900D10020C6
:103DA00080BD80B5FFF7A0FA0146000701D50320CA
:103DB00000E00220012900D1002080BD024800213E
:103DC0000184C16141727047A400001080B503F006
:103DD000C3FC80BD80B5FFF741FA80BD704780B558
:103DE00003F0EEFE80BD0000F0B59FB002AD2846A6
:103DF000FFF7ECFE5E4C68212046FEF7D0F9244820
:103E000060802E4642367088A0804220285AE0808A
:103E10000598009006AF8ECF0A9801900098A06098
:103E2000E16022616361A7610198E061B08820844C
:103E300020462230294648310B22FEF797F92046CA
:103E40002E30294653310322FEF790F936201121F6
:103E5000215468896086049FA786204637305635EE
:103E600014222946FEF782F9308D5E216052F08DD2
:103E7000642160521D9820663E4C201D1221FEF7E1
:103E80008EF900202070678000F062F81FB0F0BD4E
:103E900026020000F0B59FB002AC2046FFF796FE68
:103EA000334DE8884221605226464236A888708009
:103EB000288CB080A86800902F460C378ECFE86918
:103EC0000190009805900691079208930997019830
:103ED0000A9020464830294622310B22FEF746F947
:103EE0002046533029462E310322FEF73FF9688ED3
:103EF0006081A88E20812046563029463731142211
:103F0000FEF734F95E20285A30856420285AF0855F
:103F1000286E1D902046FFF75FFE00F019F81FB0D5
:103F2000F0BDC04670B59EB001AE00280DD004466D
:103F300010280AD8723601AD2846FFF747FEAC714B
:103F4000747034702846FFF747FE1EB070BD000045
:103F5000D948C088F0210140803948424841C00119
:103F600004490A787F231340181808707047C04628
:103F7000180300102801001002480168491C016064
:103F80007047C046A0020010B0B5194A900805D08D
:103F90000320824317481849FEF7E8F8002420461A
:103FA000214603F09BF903F075F914481449816127
:103FB0000121CD430168294001600168022291433B
:103FC000016010498161204603F0BEF90E48416846
:103FD000294041607021C94342680A40426002683A
:103FE0002A40026002680A40026003F0E3F9B0BDB3
:103FF0005000000000000010A083000000A000405E
:104000005555AAAA7856341214C00040EFF3108018
:1040100072B618480068012103F036FFFFF754F824
:10402000FFF7D4FE03F04AFF044662B60546064693
:10403000204603F047FF002806D003F03FFF044668
:10404000FEF778FFFFF7CBFE284603F03BFF0A2878
:1040500004D303F033FF0546FFF7C0FE304603F0FC
:1040600031FF6428E4D303F029FF0646FFF7B2FED0
:10407000DEE7C0461C1E0000B0B5074DA868074C1F
:10408000044008D006484168002901D020468847EE
:10409000286820432860B0BD5CB00040FFFF7F006F
:1040A00080030010B0B5FC220240064BD4588007B4
:1040B000C00EFF258540AC438901C9B28140214330
:1040C000D150B0BD00E400E0F8B514460D460F4EE7
:1040D0003178814201D1F78905E0FFF719FB012111
:1040E000B1704719F781FFF713FB381A01B2B078A6
:1040F000012905DA01214840B070F1894919F1819F
:10410000002801D100206081F8BDC0465000001099
:10411000F0B585B00490604D29792878AF890022E8
:104120005E4BFC2A0BD09C5ABC4206D19E18B47838
:10413000204202D0F478214205D10C32F1E701246B
:10414000204605B0F0BD022803D1B088297A884204
:104150004CD10120039000028742384626D1FFF758
:10416000D5F96884FFF7CAF9A884022002904C4C64
:10417000A047E88403200190A04721462885042415
:10418000204688476885029846498847A88501984F
:10419000444988474349E885204688472886FFF7F1
:1041A0006BF8688603F0D2FAA886A8893E4988424F
:1041B00009D102203D4CA047A8830320A047E883F3
:1041C0000420A04728842878012812D128690028D3
:1041D0003DD0287A29690022824209D2B3889A42C6
:1041E00002D2B3689B5C8B54521CF5E70224A7E70C
:1041F000287800240228A3D10A2F0FD1286900288B
:1042000021D0287A2969002282421CD2B3889A429E
:1042100002D28B5CB768BB54521CF5E700242448DB
:10422000015700298CD42969002989D0297A2A6963
:1042300000238B4210D2B488A34202D2D45CB5686A
:10424000EC545B1CF5E7687AFFF7A4F878E7B088D0
:1042500004990880002473E70B2F13D134231549E8
:10426000154A3A2B05D0CC18343C2478D4545B1C26
:10427000F7E722232D2B05D0CC181C3C2478D454EE
:104280005B1CF7E701780024002900D058E701788B
:10429000039A1143017053E7A4000010D481000079
:1042A00001330000CD320000696B0000E9320000EC
:1042B000280100102C01001018030010F8B5044666
:1042C00005884688B542294600D83146A788B942B4
:1042D00000D83946FF200002FEF75AFA4743A7806C
:1042E0004643668045432580F8BD0000F0B593B095
:1042F000074600248C804C800C804089002800D127
:104300006FE27B88388802461A4304D1BA88002AB3
:1043100000D166E200230A91190A7980000A3880E8
:104320007979B98001044148414EB04712907888AC
:1043300001044048B04705460D90B98801200F9010
:10434000C00309040B90B04706460C903A491298F6
:10435000374A904711940446099038492846344A10
:1043600090470890051936493046314A90471097D2
:10437000074628180E90334920462D4CA047054685
:104380003149089E3046A047451930493846A04774
:104390002D182F490998A04709902E493046A0476B
:1043A00006462D493846A047074628460E9D294611
:1043B00000F098FAC1178843069009983018119CAC
:1043C000C019294600F08EFAC11788430E90129842
:1043D0000D9908180C994018FF210231144EB0476E
:1043E000109D69890904B0471C49B0470F9989029B
:1043F0000991B047FD49B047C1178843089006208E
:104400000590285E0A210491FEF7E2F907B2F84808
:104410002146072925D00022825EBA4203DC1422FD
:10442000825EBA421CDC491C1430F2E76666010069
:104430008D49000033330200CE3903008F63010041
:1044400053552100A4B00000852B00006626000013
:104450005C4F000052B80000AE0700008F02000061
:104460000C46A0B214214143E14A551802202E5EA9
:104470001620285E801B0001545EA98A091B09B220
:104480001291FEF7A5F900B2391B119148430009BA
:10449000301801B2E94A9069144648437D210791DA
:1044A000C9000D91FEF794F90004D249D24A904711
:1044B000E062192109040C91CB4A9047E062082080
:1044C0002C5E1C20285E001B0001129F3946FEF75F
:1044D0007FF900B2119E704300092018D74C218843
:1044E00040180004C349C44A9047606204982C5E97
:1044F0001E20285E001B00013946FEF769F900B254
:104500003746704300092018CC4EB188401800048B
:10451000B849B94A9047B06204202C5E1820285E42
:10452000001B00011299FEF753F900B2784300090D
:10453000201801B2F06948430D99FEF749F90004CB
:10454000AC49AD4A9047B0630C99A74A9047B06315
:104550000C202C5E2020285E001B0001129F394693
:10456000FEF736F900B21199484300092018318945
:10457000401800049F49A04A904730630E202C5EEB
:104580002220285E001B00013946FEF721F900B207
:10459000119F784300092018B189401800049549FB
:1045A000954A9047706305982C5E1A20285E001B80
:1045B00000011299FEF70CF900B278433E4600095B
:1045C000201801B29D4C206A48430D99FEF700F96E
:1045D00000048849884A904720640C99824A904791
:1045E000206410202C5E2420285E001B0001129FF6
:1045F0003946FEF7EDF800B27043000920188F4EDF
:10460000318A401800047B497B4A9047F0631220AE
:104610002C5E2620285E001B00013946FEF7D8F8E4
:1046200000B21199484300092018B18A40180004CB
:104630007049714DA8470446F06B1190306C2146CB
:10464000A8472A4612900E9F391B0291306B0390A7
:10465000756BB06B2946144690470D90706A0490B4
:10466000B16A0091F06AA0470590069C1198201A43
:104670000190ED1B29465C4EB0470C900498071B37
:1046800038462946B04735461190029E3046394695
:10469000A8472F4604900398051B28463146B84783
:1046A0003C46039000980E99461A28463146B84772
:1046B000069030460199B8470E90129E30460D9FE5
:1046C0003946A0470290059D28463146A047064638
:1046D00028463946A04707460C980399411A029884
:1046E000A04705460D9004980E99411A3046A04700
:1046F0000E9011980699411A3846A04712901098CA
:104700008089400801040898A0473C49A0470999BE
:10471000A0471190494EF06A2946A0470746B06B62
:104720000E9D2946A047C6194448006C1299A0471F
:1047300031181198304A904706460D983146A047E7
:10474000074628463146A047054612983146A047FD
:1047500004460F980604B74200DB3746F817874334
:1047600007980106384612911F4A9047954900283C
:1047700000D40B990818C117090C4018B54200DB8A
:1047800035460714E817854328461299164A90477C
:104790000546B44200DB3446E017844320461299B4
:1047A000114A904710990989C9094F433A0A0A9C4E
:1047B0002280002D834E324600D40B9A5219D31713
:1047C0001B0CD21812144A43120A6280002800D42B
:1047D0000B9E3018C217120C801800144143080AAF
:1047E000A080012013B0F0BD8D490000160A010021
:1047F0008C7F000000001027E54800001F05000026
:1048000010B50E4CA182208207211046FDF7E0FF73
:10481000206210BD10B5094CA181208105211046F0
:10482000FDF7D6FFE06110BD10B5044CA1802080DB
:104830000A211046FDF7CCFFA06110BDE400001076
:10484000FEB502460027029708460838182822D8E5
:104850000D460124214681400F4801421BD0EE083D
:1048600002A8009211463246FDF780FC02983946B4
:10487000002D0AD06D1E2246AA400346FB4023406D
:104880005B42134019437F1CF2E7019101A9009894
:104890003246FDF76BFCFEBD01010001F8B515467F
:1048A0000E4604466F460E48388010213846FFF702
:1048B000C7FF388829040FD06D1E31784C4008217D
:1048C000002907D00122224052420240640854408D
:1048D000491EF5E7761CEDE74248A043F8BDC04607
:1048E00021100000FEB500290CD00246C01701922D
:1048F0004240161AC817029141400F1A380D04D1D0
:10490000002511E00120C007FEBD780C411C304697
:10491000FDF73EFF054600213A460B46FDF70EFC2B
:10492000C903400C4018361A1120390723D1032837
:1049300021D9001F3F09F8E700281ED40021324684
:10494000130F04D11201091DFAE75200491C002A75
:10495000FBD5CAB29042014600DB1146441A8E4094
:1049600030463946FDF714FF39464143A04045190A
:10497000701A4600601E002EDED102990198414057
:10498000681C4008002900D54042FEBDB0B582B287
:104990000B1414465C43001489B205464D432C1990
:1049A0002514240458434A43A2186841C1175118DA
:1049B000044BC918914200D9401E0004090C40184C
:1049C000401CB0BD0080FFFF002804D0012805D1A5
:1049D0000348801C00E00248024901807047C0463D
:1049E00098010010FFFF000080B5124948790028A7
:1049F0000AD0C878401CC870C0B2022804D3002076
:104A00004871C87002F037FB80BDC046014800788D
:104A10007047C0468202001080B5F148817889074E
:104A200007D50179491C0171C8B2052801D3FEF7E9
:104A30009BFE80BDE0010010704780B500F072FB66
:104A4000002080BDEFF3108080B2EFF3108172B6CA
:104A50007047002800D0704762B6704710B5C84A4A
:104A600013781C0704D010615161F02003401370CB
:104A700010BDC04670B5C04A127852070DD4C04A66
:104A80001378040B12D01F2B03D80F2003402033C0
:104A900013709078F521014037E0B9480021C160DA
:104AA00081808178F5220A40827070BDD1600F2428
:104AB00023401370B34B1C78154B1C7007280CD384
:104AC0009870040A102525435D700024052C11D030
:104AD0000D5D1E19F570641CF8E758700024062C53
:104AE0000ED0844201D20D5D00E0FF251E19B57085
:104AF000641CF4E70521518100215170401F00E042
:104B00000020908090780A210143917070BDC046CA
:104B1000B501001080B500F007F8FFF77DFFFFF743
:104B200063FFFFF789FF80BDF0B585B092490D782E
:104B3000E80700D1F2E0914800240480904A948074
:104B4000FE272F400F709178F52004910840907057
:104B500010780F2102900391084001461031117026
:104B600088490A78884B1B78934205D07F2B03D065
:104B700089798B4200D0C8E0834EB17876780F2EC9
:104B80000AD8B02908D3B72906D8FA2005407A48B0
:104B9000057000F0ABF9C1E0934202D07F2B00D04A
:104BA000B3E03246F026019200963240202A28D007
:104BB000102A3ED0002A019B00D0A6E07048006970
:104BC000002800D1A1E06E494A69002A00D19CE08A
:104BD00003990B40062B00D997E0002B00D194E0FD
:104BE0000188994200D290E00380654DA1B2DBB20A
:104BF0008B425AD96449091989781155641C037884
:104C0000F4E70499C907019A7FD05D4CE1788B42A3
:104C1000049B24D103990A4019098A421FD1E188D3
:104C2000072953D3881FE080F42003401133062165
:104C300056E001980007000D4018072865D3504939
:104C40000A69002A61D0496900295ED0138883422D
:104C50000FD200204A4988701220087055E002984F
:104C60000007400F01D11420207000980340A3706A
:104C70004BE004231F43404B1F7010800022404C28
:104C8000052A05D0404B9B18DB788B54521CF7E764
:104C900005212181401FE0803B480078E070A0782A
:104CA0000A2101401531A1702FE02878010703D1B6
:104CB00000990840401C2870A878FA210140A9708A
:104CC0002D4A1078FB21014011701EE00023E38083
:104CD000FA221540284A1570002801D111202070B1
:104CE000A3702289881823691B8898420DD8244D07
:104CF0006B699A18244B9B1C002905D01C781470F2
:104D0000521C5B1C491EF7E728811F4800780028C9
:104D100004D15B48017808220A4302701848817860
:104D20000A07920F22D0154A13885B1C13809AB28F
:104D3000164B9A421DD308220A4009D002781F2A36
:104D400003D80F231A4050320270F52211408170AF
:104D50004A070ED5027813075B0F03D1F0231A40E0
:104D6000D21C0270FA221140817002E00348002137
:104D7000018005B0F0BDC0469E010010A0010010EA
:104D800080010010A6010010AD0100100E0200000D
:104D900080B5554900204871087148804870086105
:104DA0004861C88088600A78E02313400B704B216B
:104DB0000A020C4B014602F063F901200102274868
:104DC00002680A430260416DD3220A434265816D45
:104DD00040220A438265816D93229143816580BDA3
:104DE000E001001079370000F8B5002902D00B4629
:104DF000092902D3FEF7B8FCF8BD3B4D0024EC7244
:104E0000AB723248037001200102144802680A4361
:104E100002600F21090302688A43190311430160EC
:104E200020216E5C32467D3A571EBA413C2E01D19C
:104E3000224600E0920106684027BE4392190260B4
:104E4000695C2A462132204602F041F9032068704D
:104E50002C71A8780A210143A970F8BD08600040B0
:104E6000214880780007800F07D004480078044963
:104E700048700878012202430A7070479D010010B3
:104E8000A2010010B0B500291DD01346002A1AD087
:104E9000082B18D80A4614494A610C4803700B7253
:104EA0000520487000200871042B1C4600D3042400
:104EB0004C728C78062525438D702024095D02F004
:104EC0000EF9002801D1FEF74FFCB0BD9F01001084
:104ED00080B5FEF73FFC04480021417001718178E4
:104EE000F1220A40827080BDE0010010F8B5894EC1
:104EF000B178B039042900D9B6E0C04679440979BF
:104F000049008F44023468B1A60083498A79337816
:104F1000934202D07F2B00D0A6E07378062B00D0FE
:104F2000A2E03379F4784D78AC4202D18D78AB426F
:104F300005D0FF2C00D097E07F2B00D094E0B37910
:104F40007479CD78AC4202D10D79AB4205D0FF2CFB
:104F500000D089E0FF2B00D086E0704BF0249C70DD
:104F600001245C701A70F0790870D81CA7E06A4AB6
:104F7000117833788B4201D07F2B75D17378062B53
:104F800072D13379F4785578AC4202D19278934259
:104F900003D0FF2C68D17F2B66D1B37974790025BB
:104FA0005F4E5E4A0A2D00D18DE0775DA74203D1A6
:104FB00077197878984279D0FF20D071907150712C
:104FC00012201071B120D0707F209070032050709B
:104FD00011706D1DE6E732784F498879824202D11F
:104FE0000878904240D1707806283DD173794A788C
:104FF0003479944202D18878834203D0FF2C33D194
:105000007F2B31D1F479CB78B5799D4202D10879E3
:10501000844203D0FF2D27D1FF2C25D1F078044600
:10502000103C102C55D208783C490870012C2FD820
:10503000F220887004204870FF20887105226243A6
:10504000EF4B9C5CCC709A1853780B7192784A7134
:1050500029E03178304A9079814206D1107888422F
:1050600002D17078062804D0F8BD70780628FBD1EC
:1050700011782A48FF22C271827142711222027194
:10508000B422C2707F2282700322427001701AE043
:10509000FF208871487112220A71B222CA707F22E1
:1050A0008A7003224A701D49C8710CE0F12090708B
:1050B000012050701170D148C079B870D01C052102
:1050C000FF22FDF765F8F54801780A220A430270CD
:1050D000F8BD00280ED1F348C270F2228270062279
:1050E000427043710A7802708A7802710A7982717B
:1050F0004879D8E7EB4AFF20907150711223137161
:10510000B223D3707F2393700323537009781170F7
:10511000C9E7C046AD010010A6010010B50100109E
:10512000BD010010F0B593B0FFF732FE00F0F0F9CA
:10513000684C0025A580FFF769FCA072FFF766FCAC
:105140002074E580FF2000902080258165806248E2
:105150008179E172C1792173017A6173417AA17316
:10516000807AE0735D480078811E022D00D19AE0BC
:10517000052201956A435A4885185A4880181290AA
:105180005948801811905948801810905848801834
:105190000F90584880180E90574880180D90574827
:1051A00080180C90564880180B90564880180A902A
:1051B0005548801809905548801808905448801820
:1051C000079054488018069053488018059053481B
:1051D000801804905248801803905248801802901A
:1051E00051488018514B9B182126262E57D0122942
:1051F0002A464ED88A0001A7BA589746495200005D
:105200004D5200005152000055520000595200000A
:105210005D520000615200006552000069520000BA
:105220006D5200007152000075520000795200006A
:105230007D5200008152000085520000895200001A
:105240008D52000091520000129A22E0119A20E043
:10525000109A1EE00F9A1CE00E9A1AE00D9A18E0C0
:105260000C9A16E00B9A14E00A9A12E0099A10E0E0
:10527000089A0EE0079A0CE0069A0AE0059A08E000
:10528000049A06E0039A04E0029A02E0024600E073
:105290001A469219213A1278A255761CA5E7641D88
:1052A000019D6D1C61E70720C0430A49009C00284E
:1052B00005D00A182123D4545476401CF7E7002067
:1052C0001B49914A102803D00B5C1354401CF9E78A
:1052D00013B0F0BD9C0100101803001082020010F2
:1052E0002C80000036800000408000004A800000D2
:1052F000548000005E800000688000007280000022
:105300007C80000086800000908000009A80000071
:10531000A4800000AE800000B8800000C2800000C1
:10532000CC800000D6800000E0800000EA80000011
:10533000F480000070B5754C2078FF2858D0FB2809
:105340001FD16E4842786E49097841700178002A71
:1053500001D00422114302220A430270FFF772FBBC
:10536000244908802449097808292DD84C4A521C20
:10537000224B002928D014781C70521C5B1C491E3B
:10538000F7E75E4842785E49097841700178002A63
:1053900001D004221143022529430170FFF752FB7B
:1053A0001449088014490978082915D82278D200B0
:1053B000554B9A183A4B5B1C00290DD01E7816707D
:1053C0005B1C521C491EF7E7FFF743FB5948017865
:1053D00001220A43027070BDFFF73BFB20780521D4
:1053E0004143484A5118CA782A43CA70FFF7ECFA79
:1053F00070BDC046A40100109F010010AD01001057
:10540000BD010010B0B53E4908703C2816D07D287B
:105410001DD0BF282BD0FE2829D03A490A1D0023D1
:1054200039493A4C022B20D0951E2D7885421FD049
:10543000FF252570521D08315B1CF3E718483C21FD
:1054400001703248FB2101700D2008211EE02F4819
:10545000FB21017011480078800708D510487D2194
:1054600001700D205349082214E0FFF731FDB0BD53
:1054700023700B4B18700020C0431356002B01DA29
:10548000142000E00D20DB0703D11178FFF7ACFCFE
:10549000B0BD1278FFF7F6FCB0BDC0468201001027
:1054A00000020010B5010010B0B514494A78144844
:1054B000007848700B78002A01D00422134302229E
:1054C00013430B700F4CE179884207D10E490B7AD8
:1054D0007F251D400D72217A114321727D2801D153
:1054E00000F02AF809480078012806D80521414330
:1054F0006018C178FD220A40C270B0BDA201001040
:105500009D010010BD010010180000109C0100104A
:10551000264800211122026041608160C160016162
:1055200041612148018003480178FB220A40027052
:10553000012070479E010010F0B51B480022028038
:105540001A488188002923D0194B1C78194B1C70EC
:105550004478641C0F252540457020355D704489D2
:10556000C5682D19062A0CD096B28FB2B74201D960
:10557000AE5C02E000218180FF269F18BE70521CA5
:10558000F0E70A0403D0A21D4281891F8180F0BD8B
:1055900001780F2902D81022114301708178F52279
:1055A0000A408270F0BDC046A001001080010010CA
:1055B000A6010010B5010010F8B5044605200F2C17
:1055C00000D9B7E00E46002900D1B3E0717A032973
:1055D00000D9AFE01546002A00D1ABE0082D00D974
:1055E000A8E000F0BBF9002821D00121CF053868E0
:1055F00038680006800E55481BD0621E062A2BD83C
:105600007A4412795200974403313B454F59630065
:105610003A681206920E00D18DE0F96D4C4A0A40AC
:1056200001684C4B0B4099180160F96D59E003205B
:10563000F8BD3A68D2B2032A04D1454AFF3A3B6822
:105640001342DAD10268434B134009035918016031
:105650000268424911404AE0B96D3D4A0A4001687A
:105660003C4B0B4099180160B96D3AE0396E384AED
:105670000A400168374B0B4099180160396E30E0E1
:10568000796E334A0A400168324B0B409918016029
:10569000796E26E0B96E2E4A0A4001682D4B0B4008
:1056A00099180160B96E1CE0F96E294A0A40016838
:1056B000284B0B4099180160F96E12E0396F244AAB
:1056C0000A400168234B0B4099180160396F08E0CC
:1056D000796F1F4A0A4001681E4B0B409918016000
:1056E000796F1D4A0A4001681C4B0B4099180160F4
:1056F0002046314600F0C2F807210A031848031F6C
:105700001E6896436A1E0A40150375191D600368DA
:10571000BB4303600B0405689D43056009050368EE
:105720008B4311055918016001681F2291432143E1
:1057300001600020F8BD3A68D2B2032A82D13A68EB
:105740009204D20E00D068E77CE7C0463CC000401F
:10575000FF3F000000C0FFFF0000FF3FFFFF00C051
:105760001C700040F8B51C4615461A46FFF724FF8A
:105770000026304600F0CAFA104841690127394333
:105780004161322102680F231340A3420DD00A0465
:105790000AD0491E0022632AF4D800BF00BF00BF10
:1057A00000BF00BF521CF6E73E462846214600F0E7
:1057B00045F8A04200D03E463046F8BD0470004097
:1057C000F0B5124842681F210A43426002688A43CA
:1057D00002600F4A002313700E4C0F4D25600F4DD1
:1057E0002E6801273E432E6000BF00BF2E68BE43D7
:1057F0002E6000BF00BF0A4D256004680C430460A2
:1058000044680C43446053609360F0BD08700040EE
:1058100024020010FC1000405A5A5A5A1C10004032
:105820007856341214494A680F20104000228242F0
:1058300002D20B68521CFAE77047C04670B50E4A98
:1058400054680F2323408B420ED2994200D319464D
:1058500000238B4206D25C001568AD04AD140553DD
:105860005B1CF6E7084670BD5C1A0025AC42ECDD17
:10587000166806806D1CF9E700700040F0B510282E
:1058800001D90520F0BD487901231C07324A15686B
:10589000A5430007284310604879002807D088797D
:1058A000072464071568A543400740191060087A6B
:1058B0001468C025AC438007000E20181060CC7817
:1058C0000020002C044606D00C79002C044602D19E
:1058D000CC792407240D0F252D025668AE432643AC
:1058E00056604C7A0325AD035668AE43A407240CDA
:1058F000A419546015682024254315604D78DE06F0
:105900005768B743ED063D4355604D789E0657688E
:10591000B743AD063D4355608D7856688027BE433A
:10592000ED072D0E751955608D7856684027BE43DA
:10593000AD072D0E35435560CD785B0656689E4306
:105940006B063343536009795368A3434907090E33
:1059500019435160F0BDC046187000400548064923
:105960000B6801221A4001D0401CF9D3504250412B
:105970007047C0467F44FFFF3C700040F0B58DB0DB
:105980000F460446FFF71CFFC248C3490160C349E4
:105990000A68022309931A430A600A6804230893D9
:1059A0001A430A600A9462780B68F024A343120732
:1059B000120E9A180A60BA49016000F0DFF90B2054
:1059C0000B90C443B748B9A12246002A0CD0B64B6D
:1059D0009B188D18ED682E6806409E832D68AD00DB
:1059E000AD14DD83121DF0E7B34B19680140AE4AD8
:1059F0009181186880008014D081192040010C909A
:105A000001200790C00506900068C1B2032905D89F
:105A100000D0CBE08004800E00D1C7E00597A24FF4
:105A20002C370026082E22D0A5A08559286880B2E0
:105A3000A549884202D10520000301E0286880B210
:105A4000FCF72CFE391F08602868A049884202D95B
:105A50000B98000201E02868000CFCF71FFE7B2178
:105A6000C905FCF70DFC3860361D0837DAE798A049
:105A70009A499BA28C4F002C17D00319DB681B6836
:105A80000B40842B04D30C9DC8355D436B0C01E0A7
:105A90008A4BC8333D194426AB531319DB681B6886
:105AA0001B0C4626AB53241DE5E7788FFCF701FE5F
:105AB0000B90F88FFCF7FDFD04460490388FFCF73F
:105AC000F8FD0546B88FFCF7F4FD3E460746039007
:105AD00020460B99FCF7CCFB044638462946FCF7D8
:105AE000C7FB2146FCF709FC0B9070643446383440
:105AF0006089FCF7DEFD054602902089FCF7D9FDA0
:105B0000044601902846049F3946FCF7B1FB0090FB
:105B10002046039D2946FCF7ABFB0099FCF7EDFB03
:105B20000446F0640B983946FCF7AAFB0146284668
:105B3000FCF79EFBB06420460299FCF7A1FB0146EE
:105B40000198FCF795FB30655B4D686BFCF7B8FD81
:105B5000664D674B2A46FCF729FD0027654C3A46FF
:105B60002346FCF7BBFC3A462346FCF7B7FCFCF7A0
:105B7000F3FDF0615048806BFCF7A2FD5E4B2A46B6
:105B8000FCF714FD3A462346FCF7A8FCFCF7E4FDBD
:105B900030624948C06BFCF793FD584B2A46FCF72E
:105BA00005FDFCF7D9FD7062059F0DE07F20C00563
:105BB0003D4E7064B064F0643065F06130627062D4
:105BC000B062F062306370630A9DE8896A4C2168B4
:105BD0004B4A0A4039490840000480182060297B5C
:105BE0000720020323689343491E4907490CC9183B
:105BF0002160216808220A4322602168099A114322
:105C000021602168089A914321606168069A914356
:105C10006160010462688A436260297B00056268F2
:105C20008243481E4007400A8018606007980006BB
:105C30006168014361607F200004A16881430F20F7
:105C400000040818A060A0682E4901400C980818AC
:105C5000A060FFF7E7FD103C21681F200143216091
:105C6000002131706A7A002A0DD0696801407160A4
:105C7000FF20000224490A688243287A800380B208
:105C80008018086001E071600F46B76000200DB019
:105C9000F0BDC046FC1000405A5A5A5A1C10004031
:105CA00078563412FF3F0000240200106C00800080
:105CB000700080007400800084008000FF030000FA
:105CC000780080007C008000FFFF0000FFFFFEFFE7
:105CD000900080009400800098008000FFFF0F007B
:105CE000B4008000AC008000B0008000FCA9F1D2BC
:105CF0004D6290410000303F4D6210414D621040B6
:105D0000FFFF00FC00F0FFFF00E400E010B5644B73
:105D100018700E494A681F2414434C600C4C022230
:105D200022605B68002805D00868984308600A482C
:105D3000026008E008681843086006480260BFF384
:105D40004F8FBFF36F8F002010BDC046087000401A
:105D500080E200E080E100E000E100E010B5FFF744
:105D600061FD01242046FFF7D1FF0348016821436C
:105D70000160002010BDC046187000400B487149FA
:105D8000C1670B4901600B4941600B4981600B49B8
:105D9000C1600B4901610B4941610B498161792166
:105DA0000902C1616949C1677047C04680F000407F
:105DB0001D1F37747C00FA007701EF02F804040B12
:105DC000040B0116FF2080100021403F9F490A6804
:105DD000002807D0012003071A430A604207086819
:105DE000104306E0012003079A430A60420708684F
:105DF0009043086000207047F0B585B004920D46CE
:105E000001900E20264F395E03910220285E401A31
:105E1000B98902914843FCF741FC0446F8692146E0
:105E2000FCF72EFA2146FCF72BFA0646386A214683
:105E3000FCF726FA01463046FCF7C9F90146786AB4
:105E4000FCF7C5F904460026A85F0199491FC9B2AD
:105E50008900791812228A5E821A088A5043FCF758
:105E60001DFC01462046FCF70BFA04460420285E80
:105E70000399401A02994843FCF710FC014620465A
:105E8000FCF73BFAFCF754FC064B3246FCF774FA7D
:105E9000FCF72AFC04990880304605B0F0BDC046E6
:105EA000240200100000E03FF8B5064605200F2E42
:105EB00043D80D46002940D0697A03293DD81446BD
:105EC000002A3AD0082C38D8FFF748FD002835D0F2
:105ED00030462946FFF7D2FC19481A4901600F21C4
:105EE0000A0219490B68934301225702DB190B6020
:105EF00053030F681F430F600B6808271F430F6091
:105F000013030F681F430F600F6817430F600A6881
:105F1000042717430F600D4901600D480168624A6C
:105F20000A40D118016001680A4A0A4002603046FE
:105F30002946224600F010F80020F8BD0320F8BDE5
:105F4000FCF000401032547618F0004098BADCFEA5
:105F50003CC00040FFFF00C0F0B5072425033B4BC9
:105F60001E1F3768AF43521E224015037D1935604E
:105F70000125ED051E68AE431E6025041E68AE4374
:105F80001204B2181A6022051C6894431C605C68F5
:105F90002F4A14400F345C60CC790F2525400C79D2
:105FA00064018978CE0126438C01344329490C28A9
:105FB00028D11E6916400C202043C7B22802C519FB
:105FC0002E431E611E690E402D0435431D610D25B3
:105FD0002543EDB245195E6916402E435E615E6948
:105FE0000E402D0435435D610E252543ECB20019AA
:105FF0009C69144004439C619C690C40000420434C
:10600000986116E01E6916401F2738400443E0B22D
:106010002C02201806431E611C690C4005042C4309
:106020001C615C69144004435C6158690840284362
:106030005861D8681040084A0243DA60D8680840BE
:10604000032149050143D9600020F0BD1C700040C8
:1060500000F0FFFFFFFF00F0090F0000B0B503469E
:106060000020012B1FD8002A1DD0002B0AD0480A7F
:106070000D4BC318584258410C4B591A914210D23B
:1060800000210FE0880B012300240328184600D3C9
:1060900020460325AD03691A914200D223461840D9
:1060A000B0BD01210840B0BD00C0FFFF000280006C
:1060B0001F4820490B6802221A4001D0401CF9D326
:1060C000504250417047C046F8B5654CE268102513
:1060D000AA43E2604118491E490A491C8EB2400A8F
:1060E00087B2B74212D27F203946014022688243EC
:1060F0005018206060680121014361607F1CFFF738
:10610000D7FF0028EDD10020C04300E00020E16867
:106110002943E160F8BDC046054806490B680422E2
:106120001A4001D0401CF9D3504250417047C0463C
:10613000FF9323FD4C00FF00F0B587B01F460023FE
:10614000DC430392002A53D002930D463A46FFF7F0
:1061500085FF00284CD0072428462040294611D02E
:106160000D46A1430A6849680591049204A90918DB
:106170000822121ABA4200D33A4603980292FBF759
:10618000F5FF2946029BFA1A104620400190082A82
:1061900020D3009159180398C318A24300249442B5
:1061A00015D20D196F680D591D551E193771280E1E
:1061B000F070280CB070280A7070380EF071380C2E
:1061C000B071380A7071059704950834E7E7029BAF
:1061D0001B190099019A002A09D058585918496882
:1061E000059104900398C01804A9FBF7BFFF002491
:1061F000204607B0F0BD0000F8B50F460021CC43A3
:10620000002826D11646002A23D01D4600203946F4
:106210001A46FFF723FF00281BD0EFF3108072B659
:106220000D490E480860012000060D490A688243A6
:106230000A6038462946FFF747FF002805D138464F
:1062400031462A4600F010F8044606480249086024
:1062500062B62046F8BDC046F800FF0055AA55AA10
:106260001C00FF0078563412F0B58BB0059104463F
:10627000464D28681026B04328600727214639403C
:106280000023D843049000290792039402971FD05B
:106290000020C04308900990BC43206863680993BC
:1062A000089008A8401808235F1A974200D31746A1
:1062B00005993A46FBF75AFF0898099961602060F2
:1062C000FFF72AFF3B46079A0028039C029F55D000
:1062D000D11A0829019133D300960598C5181C19C5
:1062E000B943069100270698874224D21E46E81932
:1062F000017942791202511882791204C3791B067E
:106300009A1851180991E95D427812025118827861
:106310001204C0780006801840180890099808995F
:10632000E151E1194860FFF7F7FE002824D0083753
:10633000079A3346D7E7DB19144D009E039C029F52
:106340000198384016D007460020C04309900890B5
:10635000D01B0599091808A83A461F46FBF706FF07
:1063600009980899395139194860FFF7D5FE049901
:10637000002804D0002102E0044D009E0499286802
:106380003043286008460BB0F0BDC0462800FF002F
:1063900070B50C4605461C4E062800D20C36062168
:1063A0002846FCF7F5F98800325807218A43224332
:1063B0003250002D26D1042C24D16C486C4A026046
:1063C00001221402114B1D68A5431D6054021D6873
:1063D00025431D601C6820252543D024A5431D604E
:1063E00009031C688C4303210D0364191C60890296
:1063F0001C688C43D1026118196019681143196037
:106400005D49016070BDC0460020004038F000408A
:106410001D2801D9012070478000124A10580278C7
:10642000FE23134059180170002070471D2801D920
:106430000120704780000B4A105802780D2313404A
:1064400009015918017000207047C0461D2801D964
:10645000012070478000034A105800780009087036
:1064600000207047407F000010B50E490A680123E4
:106470009A430A600A6800280CD0022002430A608E
:10648000094A0C68E40208D4521CFAD30A68824311
:10649000032005E00220824301E00A681A4300203D
:1064A0000A6010BD38500040FFACF8FF012801D948
:1064B00001207047002801D0044800E0024800682D
:1064C000087000207047C0463060004030B0004087
:1064D00002460120012A09D8002907D0002A01D04C
:1064E000044800E002480068087000207047C04679
:1064F0000460004004B0004001460120012916D884
:10650000002A14D0002B12D0002901D0094800E045
:1065100007480168022291430160016804220A438E
:1065200002600168012292060A430260002070475F
:106530000860004008B00040B0B5012801D9012032
:10654000B0BD02460020002A00D0B0BD074A084B6B
:1065500013600F231B03074C25689D430907090C93
:106560006918216004491160B0BDC046FCF00040CC
:10657000103254762CF0004098BADCFEF8B5144680
:106580000122012801D91046F8BD002CFBD01D4680
:10659000002BF8D0274A284B0028164600D01E466C
:1065A000776EBF0615D4002800D01A4693680220E3
:1065B00083439360936801277F061F4397600B46D0
:1065C0007D3B5F1EBB4100273C2900970DD139461A
:1065D0000CE0002800D01A46D16D20230B43D36570
:1065E0000C2100F023FB0422CDE79901936840279A
:1065F000BB435918916091680F231B0499432B07E3
:106600001B0BC9189160916801439160042D00D360
:106610000425009FAF4208D2304600F063FB0028FB
:1066200005D0E05D30607F1CF4E7009AABE7032201
:10663000A9E7C0460060004000B0004070B50328E4
:1066400001D9012070BD012214048440144B1D683F
:10665000A5431D60044610340D78A5401C682C43EA
:106660001C60102484401D68A5431D60041D4D78E6
:10667000A5401C682C431C60440003252D02A54046
:106680001E68AE431E6008348978A1401C680C4324
:106690001C608240186810431860002070BDC0461E
:1066A0000C500040032801D90120704703480268BC
:1066B000964B134059180160002070470850004065
:1066C000B0B5032801D90120B0BD002900D1521C6A
:1066D00092B28000514BC4588C4D2540AA18C2502C
:1066E000C25892B209045118C1500020B0BDC04632
:1066F00070B5012801D9012070BD02468878234B6E
:10670000002806D0012420401D1F2E68A643301803
:1067100028600020012A1CD0002A35D10A781C6884
:106720001025AC43D207D20EA2181A604A781C6812
:106730004025AC439207120E22431A600122120335
:106740001C6894431C6089885A68704C1440611816
:1067500019E00A781C682025AC43D207920EA218D3
:106760001A604A781C688025AC43D207120EA21822
:106770001A60012252031C6894431C608988090432
:106780005A6892B25118596070BDC046045000401A
:10679000002801D0012070475748584901605849E6
:1067A0000A6801231A430A6000BF00BF0A689A43BF
:1067B0000A6000BF00BF5349016070480168704A19
:1067C0001143016041681143416052490020086053
:1067D0007047C046B0B5002801D00120B0BD481EAA
:1067E0000A468241100301221303474C25689D434A
:1067F0000543256060689043401860600020B0BD8C
:1068000002460120032A07D8002905D09000034A38
:106810008058000C088000207047C046105000408F
:10682000F8B5002801D0012463E00E460092002450
:106830002046FFF7ADFFE449E4480860304B1A6892
:10684000022002431A601F68042217431F60377832
:106850001D6808218D43F907090F691819607178BF
:106860001D68F027BD430907090E69181960D94949
:10687000D54B1960B57C24490B68002D0CD001253F
:106880002D032B430B60B37C03256D030F68AF43CF
:106890009B075B0CDB1902E001252D03AB430B606A
:1068A0000B6813430B60012212020B6813430B6049
:1068B0000A6882430A60CA6A31480243CA62727A2D
:1068C000002A12D07068C043104A0243886A104000
:1068D0008862FF2000040E490A688243307A8007EC
:1068E000000A80180860009901E0886200210948C8
:1068F00001602046F8BDC046FC1000405A5A5A5A62
:106900001810004078563412005000400000FFFF7D
:1069100000E400E08C020010002801D00120704744
:106920000A480268164B13430360BD4A04201060F6
:10693000002902D0BC49086005E0BA490860BFF3ED
:106940004F8FBFF36F8F00207047C0462C50004020
:1069500010B5002801D0012010BD08484368084C3C
:106960001C4344608BB2002A02D00168994301E0C5
:10697000016819430160002010BDC0462850004046
:10698000FFFF0000F8B5012801D90120F8BD044639
:10699000C04DC14E0028284600D03046C1680D4A7F
:1069A0001140406A1040471A00D20F1A0E20484387
:1069B0006421FBF7EDFE014600208F4209D9002C2F
:1069C00000D0354629680122914329602968114386
:1069D0002960F8BDFF010000F8B5012801D90120A8
:1069E000F8BD0D460446002801D0204E00E01E4EA2
:1069F00037680F20000387431D482946FBF7C8FE70
:106A00000107090C7918316031681A4A1140C00435
:106A1000C00D0818306030691040174F6E498D4224
:106A20000ED3082108433061002171622046FFF730
:106A300083FD124A124810603868402188430EE0F6
:106A4000C821084330610720706203212046FFF708
:106A500073FD0A4A0A4810603968402008433860CC
:106A6000084810600020F8BD1460004014B00040D9
:106A7000006CDC0200FEFFFF2CF00040FCF0004048
:106A80001032547698BADCFEFEB502920C460546EA
:106A9000012814D8002D06D0032005273946FFF71A
:106AA00077FC042008E0207B022808D10720022779
:106AB0003946FFF76DFC08203946FFF769FCC848E6
:106AC000C84901604249002D00D014310A680126EE
:106AD00032430A600A68B2430A600A680223134319
:106AE0000B600A68042301931A430A6062780B68FA
:106AF000F027BB431207120E9A180A60C8490160BA
:106B000021692846FFF768FF624F634B002D384626
:106B100000D01846227B4168022A06D131434160E9
:106B20004168019A9143416008E0B1434160207B94
:106B3000012803D17003616801436160002D38466C
:106B400000D01846416908220A434261206922495F
:106B5000884203D3B003616881436160267B0321CF
:106B6000284600F063F8002D38464B4B00D01846FD
:106B7000012E01D01A4900E01849022E00D1072148
:106B80000160426D17490A434265607A00280FD0C0
:106B9000002D00D01F466068BA6D08408243BA6578
:106BA000A8001149029A0A50002D08D00A2007E0D7
:106BB000002D00D01F46B86D0843B865FEBD052006
:106BC000217AFDF76FFAFEBDFC1000405A5A5A5A5E
:106BD0002010004078563412014B0000ED8308600D
:106BE000ED850860FFFF7F0080030010012801D9B8
:106BF00001207047002802D00120800200E0202000
:106C00007D4A1060002902D00749086005E04B4921
:106C10000860BFF34F8FBFF36F8F00207047C046EF
:106C200080E200E080E100E000E100E070B50029D2
:106C30002ED001282CD8CA07164A174B08D0002896
:106C4000144600D01C462568012676062E43266091
:106C50008C0708D50028144600D01C46256801265C
:106C6000B6062E4326604C0708D50028144600D0EF
:106C70001C4625680126F6052E432660090707D520
:106C8000002800D01A46106801210906014311604E
:106C900070BDC0460860004008B0004070B50D46A9
:106CA00001460120012918D8002D16D01446002ACB
:106CB00013D0002901D00A4E00E0084E002C09D064
:106CC000304600F00FF8002806D0287830606D1CA0
:106CD000641EF3E7002070BD032070BD006000401B
:106CE00000B000400449836A04221A4001D0491CC4
:106CF000F9D35042504170477F44FFFF10B50F4811
:106D000010210160BFF34F8FBFF36F8F3B4800210D
:106D100001603648414A826101604168354A0A4053
:106D200042603F4981612E482E4A02602E4A136814
:106D30000224A3431360016010BDC04680E100E05F
:106D40002A49364A8A610A6801239A431018086062
:106D5000334888617047C046F8B50D460446FFF7D2
:106D6000CDFF1F491F4808601F48026802231A43CD
:106D700002602B4808601D49284A8A6101221602D8
:106D80000F6837430F60267B0F689F4373061B0E07
:106D90003B430B602369164E1E404B68154F1F4046
:106DA000BB194B60637A5E425E414B6993439B190A
:106DB0004B610B6913430B618861607A00280DD029
:106DC0000D48102101600D4805600D480168FF2243
:106DD0009143227A9201D2B251180160F8BDC046A7
:106DE000FC1000405A5A5A5A1410004000A00040AB
:106DF000FFFF0F000000F0FF80E200E088030010BA
:106E000004E400E0044805498160016801220A4366
:106E1000026003498160704710A000405555AAAA3E
:106E20007856341210B5002800D010BD8948C078BB
:106E30008007FAD50C460120444000202146FFF788
:106E4000C9FC2046FFF710FB10BDC046002800D04B
:106E500070478048086070477CB5002800D07CBD32
:106E60000C4600257B4E032DF9D0705D01A9FFF77C
:106E7000EDFA019860556D1CF5E7C04670B5002825
:106E800000D070BD0C460025724E032DF9D0615D17
:106E9000705DFFF7CBFA6D1CF7E7C04670B50028B0
:106EA00000D070BD0C460029FBD00025694E032D93
:106EB000F7D0705D2146FFF7A3FCA41C6D1CF6E71C
:106EC00070B5002800D070BD0C460029FBD000250D
:106ED000604E032DF7D021884A424A41705DFFF78A
:106EE000EFFBA41C6D1CF4E710B5002800D010BD0A
:106EF0000C460020FFF76EFC2046FFF7B5FA601E37
:106F0000844160005349CA78FD2313400343CB708A
:106F100010BDC046B0B586B001AC0BA1142220460E
:106F2000FBF724F900250D4A28462146FFF778FC97
:106F30000C3428462146FFF7DBFB01212846FFF7EA
:106F4000EBFC06B0B0BDC04600020000020000002D
:106F50000201000000000100FFFF03004D7200006D
:106F60007CB5002800D07CBD06200324164D2146A8
:106F7000A84707202146A84708202146A847012006
:106F80004102124A13680B43136053680B4353606A
:106F900093680B43936001A9887000240C800C4D0A
:106FA0002C4E032CDFD0A878305528780021FFF72D
:106FB000EFF9305D01A9FFF741FB305D0321FFF7D9
:106FC00035FAED1C641CECE79163000000200040E2
:106FD0005481000070B5002800D070BD0C461D4DD6
:106FE000E878012101404A424A416240F5D1FE2140
:106FF00001400919E97080070CD4002C0AD0002642
:10700000032E06D0A85D00210A46FFF759FB761C27
:10701000F6E7E97889070026F043002901D5014603
:1070200000E00D49002C00D101468CB2032E05D0A2
:10703000A85D2146FFF736FB761CF7E7E878800766
:10704000CBD401242046FFF70FFA00202146FFF79A
:10705000C1FB70BD88020010FF4F000080B50A46DA
:10706000012111404B4205211940920700D50A31F8
:10707000FFF7DCFD80BD80B5FFF784FC80BD00001C
:10708000B0B586B0044601AD0020288081204000C4
:107090002881481E814129730592064802902046A6
:1070A00029461A46FFF7F0FC01212046FFF79EFD16
:1070B00006B0B0BD6E5F000080B5002903D0114658
:1070C000FFF706FA80BD1146FFF7F0F980BD80B5E5
:1070D000FFF712FA80BD80B5FFF7E0FD80BD80B5F7
:1070E000FFF74CFA4142484180BD0000F0B5FFB0C7
:1070F00084B00C4607464D4901400123D805814222
:1071000000D00223B80B00250328284600D31846D8
:10711000012832D8002C30D0002A2ED00194444BC4
:107120001F40BE18331D0293474B1B68029C9C42B4
:1071300023D81446029603AAFEF7FEFF00281CD1AE
:1071400003A8029A815C821853781B02591893781D
:107150001B04D2781206D21851180291C719A2B294
:1071600034483946FDF79AFB0299814205D10198CE
:1071700039462246FAF7FAFF012528467FB004B0C7
:10718000F0BDC046F0B5FFB086B00546274C0440C0
:107190000120C3059C4200D00220AB0B0027032B2B
:1071A0003E4600D30646012E3BD8002939D0002A9E
:1071B00037D004911E480540A8180390001D2249AD
:1071C0000B6898422DD8029205AA30462146FEF758
:1071D000B3FF002825D105A8401901900499029D0C
:1071E0002A46FAF7E7FF00281BD0019F384604998A
:1071F0002A46FAF7BBFFAAB20E483946FDF74EFB06
:1072000005AA0399505451180023CB708B70000AC3
:1072100048700D48036830462146FEF7EDFF4742AF
:10722000474138467FB006B0F0BDC04600FEFFFFC4
:10723000FF010000FFFF0000411E490A01D00120AC
:1072400040020149086070474800001070B5104EB8
:10725000317801291AD1F168014217D00024204663
:107260002246FFF775FB707801252946FFF7D0F815
:10727000022030702846FEF771FD002806D0707895
:107280002146FFF7C5F83470FBF720FE70BDC046FD
:107290000C02001080B500F045F80C4908607D2113
:1072A000C900FBF775FA401E010E0DD10849094AC5
:1072B0005060094803680B40032189075918016091
:1072C000002090600720106080BDC04610000010B4
:1072D000FFFFFF0010E000E020ED00E0B0B5514AF4
:1072E000514B13600E4B554C1C6014602E4A2F4BB3
:1072F0001360431E9841124B1C680125AC432018B3
:1073000018601868F024A0430907090E4018186097
:10731000186808210143196049481060B0BDC04693
:1073200000F0004006490868C00702D07D20000236
:1073300000E0044809680906090FC8407047C046C4
:1073400000100040006CDC0210B51749174A0A60B3
:1073500007231840164A14689C43201810601068D0
:107360000823034313600220C043936803409360E3
:10737000D3680340D360136903401361536903402A
:107380005361936903409361D3690340D361936A66
:1073900003409362D36A0340D362136B03401363C9
:1073A0002748086010BDC046FC1000405A5A5A5A7F
:1073B00004100040B0B51A4A10681A481A49016012
:1073C0001A491B4B0B604B601A4B1C680125254367
:1073D0000224A5431D605468174B5C6094681C60D0
:1073E000D4681C611469DC6354691C6394695C6132
:1073F000D4691C64146A9C60546A9C63956A1F2457
:107400002540182D03D8946A1F252540AC1D9C618A
:10741000D26ADA61094A0260094808604860B0BD72
:1074200004008000FCF0004010325476F800FF00A9
:1074300055AA55AA0400FF000CF0004098BADCFEE3
:1074400078563412FEB50446FCF762F90290B74D47
:107450006879B74E3178022911D1032131700121A9
:10746000B170802210406871EA790A43EA71A97903
:107470000F2291437278002A00D1891CA971D34947
:10748000098C21814006C00C6081FCF737F8E08050
:10749000A879E0210140402909D0A8782080E87827
:1074A00060802879A0802046FCF708FFA879400971
:1074B000012807D002280CD003283ED17D20C1002E
:1074C000032002E07D20810001202246FCF7FCFD24
:1074D00033E037469C4D2878022801D1EE8908E038
:1074E00000202882FCF714F9064601206870FA365D
:1074F000EE81FCF70DF9301A01B2288A002901DD6E
:107500003E460BE001216970E989FA31E981401CAE
:1075100081B240293E4600D90020288280B2032152
:1075200041438448425C120222804018817809025B
:10753000A1804078000260807C4DB678AA79550918
:10754000012E019205D1804F3878284347D0002082
:10755000F8707D48818A408A029A8A1A121812B2FB
:10756000012A17DB020415D0774AD378012B14D1F6
:10757000029B591A8BB281B28B420ED2C81A67890C
:10758000D28ABA4200D8C9E0D21B5043FBF700F9B7
:107590003818C8E06C480021C17060896A4FB88112
:1075A000012E02D0797801293FD13A780021AA42F0
:1075B0003AD102221543022D36D1029979830F2147
:1075C000019A0A40FA21514339830028214600D00C
:1075D000B91D098800281AD03A46083218E00298E6
:1075E000B8820F211140BB895048C079C00700D034
:1075F0008CE06089C21A009300D21A1A4A43FA201A
:10760000504319210902FBF7C3F8009B80E0A21C3C
:107610001288FA83B983002802D038460A3000E085
:10762000201D0088388401213971788B0299411A14
:107630003E8B891909B2002914DD2588002E12D04D
:107640003979012948D10299081A80B2311AB88BC8
:10765000A84202910BD9401B48433146FBF798F8EA
:107660002D180AE025887A4E0020387135E0281A56
:1076700048433146FBF78CF82D1A25806188F88B3A
:107680008842019108D9401A029948433146FBF7D4
:107690007FF80199081807E0081A02994843314613
:1076A000FBF776F80199081A6080A188388C884227
:1076B000019108D9411A029848433146FBF768F80E
:1076C0000199081807E0091A029848433146FBF768
:1076D0005FF80199081AA080EB4EFD806088388120
:1076E0000020B0707870E648807940093870A08832
:1076F0007881204600F016FB3078032802D160899B
:10770000002800D0FEBD04203070FEBDFA204843A2
:10771000FB8278820121F97002991DE7BA1A504361
:10772000FBF736F8381A608137E7C0469C00001036
:1077300098000010D082000003480021818141811F
:107740000181C180017070475000001001488078AD
:107750007047C0467200001010B5FCF745FBFBF700
:10776000E9FFFBF7E3FFFBF7D8FFFBF76BFD00F04A
:10777000B3FA00F033F8FCF721FBFBF7CBFE0A204D
:10778000F34C215E0820205EE268FDF74DF81220E0
:10779000215E1020205E6269FDF73CF81A20215E10
:1077A0001820205EE269FDF72BF8FBF76BFDFBF775
:1077B000B5FDFBF7BBFFFBF7ABFF0A3004490880C0
:1077C0003420205C00F006F810BDC04618030010FD
:1077D0008800001080B5FCF7DBF980BDF8B5AF4834
:1077E00000218160C16001A8018181720191029133
:1077F000FCF730FA8FBDC046FEB56C460226A67275
:10780000002020702672A04840780325800730466B
:1078100000D528466072FFF799FFE0710D493046A8
:10782000884720710C4F3046B84760702846094E93
:10783000B04760712846B847A07004252846B04775
:10784000A0712846B847E0702046FCF703FAFEBD59
:1078500098000010893D0000A33D0000F0B589B0FC
:1078600008A8FCF77BF9002803D008A80078FCF7EB
:1078700059FB04A8FCF7B6F901460020002901D005
:1078800009B0F0BD04AA13887C4919409378DA0343
:1078900052187B4E3280AE4D002B4ED1AB8E9942AA
:1078A0004BD104A94A7A7D4FB97A0392914234D1DF
:1078B00004A9897AFA7A8A422FD104A9C97A3A7B33
:1078C0008A422AD1797B7F220A4004AB1B7B9A42F1
:1078D00023D1C90904AAD2788A421ED1B97B0F22CA
:1078E0000A4004AB1B7A9A4217D1490904AAD279FB
:1078F0008A4212D1F97B01220A4004AB1B799A42D9
:107900000BD104AA92794B07DB0F934205D104AA4D
:1079100052798907C90F9142B2D0A888002814D0A3
:1079200001281CD0022820D1F079FC21014004A8B4
:10793000007908430224044315E012B2002A9FD5BF
:107940006A8E114091429BD1ABE7F079FC21014056
:1079500004A802790A4340794400144303E0F07913
:10796000FC2101408C1CF47100E0F479A00701D4E3
:10797000012085E7E879010201204202914212D0FC
:10798000002922D104A9CA7A897A039B002B03D14A
:10799000002901D1002A03D03271F1700399B1702E
:1079A00004A9C97907E0392131713649718004A9E8
:1079B000C979022909D0042901D3002100E0490135
:1079C000B2791F2313405918B1713546767904A94D
:1079D000097B7D2902910BD8642900D364213B786F
:1079E0003970CA1A00D25A1A7A70802216400E4391
:1079F0007F2101910E4004ABD978C90172182F463E
:107A00006A711A7A0F251540BE79F022324000952E
:107A10005519BD71FB252C409B799B001C43FC71C3
:107A2000E0253540402D05D101252A43144EB27181
:107A30002C43F471194D039AAA72A44A907004AAB7
:107A4000947AEC72D47A2C73029C019E34402143C8
:107A50006973A97B10240C40D17949016118009CFD
:107A60000919A973E97BF8240C400599214352793F
:107A700052000A431A43EA7302E7C046FF7F000040
:107A80009C000010B7FF00009800001080B503486C
:107A900000218160C160FCF775F880BD780000109E
:107AA000B0B51D461446042916D0032933D1FBF77F
:107AB0002FFE42494861062028800320607067201D
:107AC00020704869A0704869000AE0704869010E9A
:107AD0006171000C207136E0C178027912025218EF
