:020000041200E8
:10000000000C0018F9150012F10400129D060012F0
:1000100000000000000000000000000000000000E0
:10002000000000000000000000000000F1040012C9
:100030000000000000000000F10400124917001247
:10004000F1040012F1040012D9100012F1040012A0
:10005000C511001201120012F1040012F104001285
:1000600000F002F800F06CF812A030C8083824182C
:100070002D18AC4201D100F063F80FCCA246AB467C
:100080000CA730CF2D1B083F3F197C427F1E5444E4
:100090002D090426F441641EAC4201D300F050F84F
:1000A0000126334200D0FB1A3343984754465D463D
:1000B000DFE70000245F0000445F000070477047E6
:1000C00008FF38FF00000000010EFFFF00000000E5
:1000D0000000000000000000000000000000000020
:1000E0000000000000000000000000000000000010
:1000F0000000000000000000000000000000000000
:10010000103A02D378C878C1FAD8520701D330C860
:1001100030C101D504680C60704700000023002442
:1001200000250026103A01D378C1FBD8520700D32E
:1001300030C100D50B6070471FB51FBD10B510BD95
:1001400003488546FFF7F8FF03F01CFF00F05BF95A
:10015000000C001803B4FFF7F1FF03BC00F05CF9DA
:1001600070B505460C46164602E00FCC0FC5103E92
:10017000102EFAD2082E02D303CC03C5083E042E5B
:1001800007D301CC01C5361F03E021782970641C18
:100190006D1C761EF9D270BD4343514330B55C18D7
:1001A000010C130C0D4692B25D4380B251432C19E1
:1001B000054655430A0C09044D1962415843010C88
:1001C00000044019514130BDFEB5044610460D46AD
:1001D000184373D0A6468C460020A41A01469D41C0
:1001E00067D36646002701243D46B61A9D4102D3D7
:1001F00013463A462124654676462F04360C3E4384
:100200002D0CB61A9D4104D3150C1B042B4312046C
:100210001034654676462F06360A3E432D0AB61A36
:100220009D4104D3150E1B022B4312020834654670
:1002300076462F0736093E432D09B61A9D4104D351
:10024000150F1B012B431201241D65467646AF078F
:10025000B6083E43AD08B61A9D4104D3950F9B00E6
:100260002B439200A41C65467646EF0776083E4372
:100270006D08B61A9D411AD392185B41641C16E0B2
:100280000018764665464941B71A9D410191009094
:1002900009D36046B11A98418E4684460098019968
:1002A0000025401C6941DD0752082A435B08641E93
:1002B000E6D57246634603B0F0BDFFE7204628430B
:1002C00007D00020C0430146C046C04622462B4608
:1002D000F1E700200146F7E7034610B50B439B0703
:1002E0000FD1042A0DD308C810C9121FA342F8D099
:1002F00018BA21BA884201D9012010BD0020C0439C
:1003000010BD002A03D0D30703D0521C07E0002001
:1003100010BD03780C78401C491C1B1B07D10378C7
:100320000C78401C491C1B1B01D1921EF1D11846B0
:1003300010BDF8B5042A2CD3830712D00B78491CC2
:100340000370401C521E83070BD00B78491C0370AE
:10035000401C521E830704D00B78491C0370401CBC
:10036000521E8B079B0F05D0C91ADF002023DE1B0E
:1003700008C90AE0FFF7F4FEF8BD1D4608C9FD40B4
:100380001C46B4402C4310C0121F042AF5D2F308B7
:10039000C91A521EF0D40B78491C0370401C521E1F
:1003A000EAD40B78491C0370401C012AE4D4097874
:1003B0000170F8BDD2B210B513029A1813049A183E
:1003C00000F00EF810BD01E004C0091F0429FBD2A3
:1003D0008B0701D50280801CC90700D002707047CE
:1003E00000290BD0C30702D00270401C491E02290D
:1003F00004D3830702D50280801C891EE3E7002214
:10040000EEE70022DFE710B50446C046C0462046AE
:10041000FFF7A0FE10BD000001491820ABBEFEE7AB
:100420002600020008490A6812060AD00A68002A53
:1004300007D50A68D2B250438009496849B24018CA
:10044000400800B27047C0469CFDFF1104480421DB
:1004500001600121816040F200114160002070477D
:1004600000C000487047000003480068034901408D
:10047000864801607047C04618C00048FF0F000062
:1004800003480068804901408048C1607047C04609
:100490007040014806483421016006480649016061
:1004A0004160064900200860012292074A607047B7
:1004B00000E100E000E400E0404040001CED00E00E
:1004C000411E090E10D109494860FF2000068A68C4
:1004D00002408A600868022202430A60086801221A
:1004E00002430A60002070470820704710E000E0D7
:1004F000FEE70000FEB500F0D1FE0290FFF7A6FF78
:10050000044600F0A9F90190FFF7C4FF009000F045
:1005100093FD054600F09CF806460920470600F0CA
:100520007BFD0D490F600D4A13681B065B0B4B608A
:10053000DB191268CB60FF23DB02D2001A408A600D
:1005400002990C4301990C4300990C432C4334430A
:100550000443E0B2FEBDC04628030018C8000012E4
:10056000B0B5384801780F200840012801D820296B
:1005700006D303F0B5FC344840F200110180B0BD51
:10058000314C2278022A0DD0012A17D09AB90128BD
:100590002CD11E206080A01CA11D02F029FC01208E
:1005A0002080B0BDF020014010291FD1A088214635
:1005B000243102F029FC0020207017E0012815D119
:1005C00000252580A079222811D0272814D02E2894
:1005D0001BD1207AE1790902081881B26288A01D36
:1005E00004F0CAFD411E8841450022E0B0BD62888A
:1005F000032A0CD903251CE0E179E01D22462432B0
:10060000231D04F067FDA0B911E0042511E0207A54
:10061000E1790902081881B220462430231D04F034
:10062000BDFDA188C91CA18008B1012501E00220FF
:100630002070221D243428462146B0BC08BC9E46AA
:1006400002F0ACB9880100182001001870470000C2
:10065000054900200860054A40F200131360136149
:10066000C860034908607047200000480403004840
:100670000C050048034800680349014003488160B5
:100680007047C0466C400148FF0700000800001892
:10069000014880787047C0462C020018FEE7000031
:1006A000B0B50D4604466E201E490856002803D5F5
:1006B0001D480078032802D132236B4307E0FFF77F
:1006C000E7FF6843322141436420B1FBF0F3174850
:1006D000418A8903A2689203914204D100210162F8
:1006E00041610174B0BD8161642B00D864237D2415
:1006F000E404B4FBF3F34361914208D90223037489
:10070000891A40F6A072B1FBF2F1C46108E001233E
:1007100003740023511A40F6A072B1FBF2F1C361D9
:100720000162B0BD2C0400188A02001800020018F3
:10073000F0B585B03720474F0190385604902F20F0
:1007400000903E562720029039561F22BD56172290
:10075000BC560F22BB560722BA560392002A12D467
:10076000002B10D4002C0ED4002D0CD400290AD458
:10077000002E08D4049A002A05D44822BA5CD20775
:1007800001D100201CE07F223046049E16400493D5
:10079000019BFE541040009BF8541140029EB95535
:1007A000084800260670084E012030701540FD777D
:1007B0001440FC7504991140F973039B1340FB71BD
:1007C00005B0F0BDEA0300183D000018B0B52048A0
:1007D000047A1F2325461D4038221E498A5C134097
:1007E000AB4228D13923CB5C64095509A54224D1F9
:1007F000447A9C4221D13A240C5D857AA5421CD1D1
:100800003B240C5DC57AA54217D13C240C5D057BC9
:10081000A54212D13D240C5D457BA5420DD13E245D
:100820000C5D857BA54208D13F240C5DC57BA542AC
:1008300003D10020B0BD3923CB5C437202724A8FD2
:1008400042818A8F8281C98FC1810120B0BDC0469B
:1008500090020018A4000018EB49104848600020DE
:100860008860C86008614861C861086248620A22FD
:10087000CA620A6306234B631023CB6308230B650C
:1008800048658865C865886188628A630866044A25
:10089000044B1360106101220A607047007D020062
:1008A0008040014801000F00D6490A780120022A41
:1008B00006D10A6B4B6B9A4202D3042008700020C9
:1008C00000220A634A637047FEB5CE4CA078002828
:1008D0006DD0A06B401CA06325465435207840079E
:1008E000800F00D1D3E06078002800D0CFE0E06B2B
:1008F000401CE0632078042807D0682000212152A2
:100900002046683041808180817103200290C003BD
:10091000614E706401200190070660480168394209
:10092000FCD003F03BFB706C019B18437064D84310
:10093000B16C0140B164316819433160316840F6EF
:10094000004291433160316808220A433260716885
:1009500020220A4372607168402291437160002135
:10096000A170716C19437164B16C1943B164A649EB
:100970000A6802400A60706DB8437065D804716DF2
:1009800001437165B06C48F200010843B064184639
:100990001904B26C00910A43B2642378326D042BBF
:1009A000029922D101231A433265072225E03A48F1
:1009B000C06C1C2101400C290CD3E06D401CE0658B
:1009C00003F05AFBA083A08B618B401AE083A08BBD
:1009D000608305E0606E401C6066606D401E60656F
:1009E00000F0CAF85834254651E082433265726DF2
:1009F0000A433C239A43726502466270284A1346B2
:100A00003F33716D1940716526490B88264818409F
:100A1000B36D13401818B0654888B16D234A0A4079
:100A2000000500098018B065019BD805716D014370
:100A30007165706C009A10437064706D47F200012C
:100A400088437065706D48F2000108437065706DF1
:100A50001043706502980005716D0143716520783F
:100A6000001F411E884180059905726D8A43101848
:100A7000706502984006716D8143580608187065CC
:100A8000706D384370655804716D01437165286855
:100A9000401C2860FEBDC0460080004818C00048C9
:100AA00000F0FFFF02000018FF0F0000FFFF00F042
:100AB000F0B4544800210170417054490B69194A3F
:100AC00013400B614B68524C23404B600123DD0502
:100AD0000E692E430E611D040E682E430E600E68D3
:100AE00048F2000737430F600E6947F20007BE4324
:100AF0000E610E6926400E610C69AC430C619C05C9
:100B00000D69A5430D610C6914400C610A681A4314
:100B10000A604A689A434A60C06A08B1F0BC00475C
:100B2000F0BC7047FFFFFFFE0A480068810401D552
:100B3000442100E04C21C20400D54821F04A53581A
:100B40005B1C53500004000FD070106C401C1064EC
:100B500000F012B84C800048E94800787047C04661
:100B6000E74A9062D162294801680122114301607D
:100B7000416891434160704730B4F8480178D9B377
:100B80000021417020490A68012002430A601F4980
:100B90004B681F4A13404B604C681E4B1C404C6016
:100BA000C4050D6925430D6104040D6825430D60DE
:100BB0000C6848F2000525430D600C6947F20005FA
:100BC000AC430C610C6914400C610A691A400A615B
:100BD00082050B6993430B6102060B6993430B611A
:100BE000032252060B6993430B6140040A69824356
:100BF0000A6130BC00F05CB9016D491C016530BC74
:100C00007047C04644030018004001484480004833
:100C1000FF7FFFFFFFFFFEFFF8B5D04C20780228D2
:100C20005FD16078062800D1BDE003285DD001289F
:100C300000D030E103266670974DE868974A10406F
:100C4000A9681140081A6827E053E05FC008E05324
:100C5000E05FFFF7E7FBE0530120C1052A680A4384
:100C60002A6001042A46103A13680B4313608C4A29
:100C700011888D4B0B406C688A490C40E3186B60FF
:100C800052886B68894C1C401205120912196A605F
:100C90002A6847F200039A4341F20003D2182A60FF
:100CA0007E4A521C2B6813432B602A680B23134384
:100CB000342293432B603F312A680A4040F20021DE
:100CC0005118296031052A680A432A6081052A687B
:100CD0000A432A6071062A688A43810651182960EE
:100CE0005CE0206D401C2065F8BD062060706A4DF8
:100CF000E8686A4A1040A96811400A1A2646683610
:100D000072800227F25FD2087280E0806181F05F1A
:100D1000FFF788FB708070886821615A401A7080E4
:100D200000215F48425EF35F286847F20004A04359
:100D3000934202DC46F20004001928605748401C28
:100D40002C6804432C6001209342024600DD0A46D1
:100D5000B271296813220A432C218A432A6051491F
:100D60003F312A680A4040F2004151182960C1050C
:100D70002A680A432A6001042A46103A13680B4382
:100D8000136003210A052B6813432B6082052B682F
:100D900013432B6049062A680A432A6040042968E5
:100DA00001432960F8BD072060703B48C1683B4A99
:100DB000114080681040421A25466835AA800422F6
:100DC000AB5EDB08AB802181A081A85EFFF72AFB28
:100DD000A880A8886826A15B401AA880206EE16DD3
:100DE000884251D10E20205EA15F814201DBA05BD1
:100DF000E0811020205EA15F814201DCA05B2082A7
:100E00001220215E6A20225E8A4201DB215A618221
:100E10001421615E225E8A4201DC205AA0821620E3
:100E2000205E6C27E15F814201DBE05BE0821820FD
:100E3000205EE15F814201DCE05B208303F01CF96E
:100E40006084608C218C401AA084608C2084206E89
:100E5000401C2066E05F0221114A515E884214DC8A
:100E60006E20205C012810D10120E871A15B702266
:100E7000A152214670316A884A80AA888A80C87146
:100E8000206B401C2063F8BDFEE7606B401C606374
:100E90006F2000212154F8BD54800048FF7F0000DE
:100EA0000200001800F0FFFFFF0F0000FFFF00F03E
:100EB0001248426C01210A434264826C8A43826474
:100EC00002680A430260026840F600439A430260E7
:100ED0000268082313430360426820239A43426058
:100EE000426840239A4342601C4A9170426C0A4314
:100EF0004264826C0A4382647047C04600800048A6
:100F000044030018B0B5154C002525632565A5637D
:100F1000E56325646564A564656303F0ADF8256643
:100F2000A0800F480570E565FFF7C2FD0120207025
:100F3000657068202552204668304580858085711F
:100F4000C5712078012804D1A06A00B18047022031
:100F50002070B0BC01BC8646FFF7AABF440300184E
:100F60004003001810B5964C2068000707D420688D
:100F70000B49084202D0FFF7EFFD48B110BD02F067
:100F8000E5F801F047FEA06808210143A16010BD0B
:100F900002F0DCF810BC01BC864601F03BBEC04646
:100FA0003040000010B501F007FF01F0F9FE0446E3
:100FB000012001F00FFF20070DD4200603D01548B3
:100FC0000021018010BD1348018849097D2908D3FB
:100FD0000549491C018003480178012901D10221FA
:100FE000017010BD8A0200189F0F000080B501F04B
:100FF0005BFF80BC01BC8646FFF7B2BA044801889B
:10100000491C018003480188491C01807047C04683
:1010100002040018E80300180649086806229043F5
:10102000086001200860072008600020486108630C
:101030007047C0463480004801490020086070476E
:1010400000800040F8B51F4E30781F4C042809D1AD
:1010500000211E4A204690471D49402201231D4D74
:1010600020461EE00125194A204629469047184F80
:101070004026184C14483946324600962B46A04765
:10108000114C204640303946403132462B46114EF5
:10109000B0472046803080373946009A094E2B46AB
:1010A0000C4DA84730780521084200D0F8BD00213A
:1010B000064A20469047064940220123054D204616
:1010C000A847F8BD0404001800760012B51F000000
:1010D0002C040018B11F0000B0B5394CE068C007FF
:1010E00008D02068C00705D002F0A8F9A068012147
:1010F0000143A160E068000708D52068000705D516
:10110000FFF730FFA06808210143A160E068C00537
:1011100009D540F200152068284204D0FFF722FFCD
:10112000A0682843A060E068000608D52068000693
:1011300005D5FFF717FFA06880210143A160E06893
:10114000800509D540F200252068284204D0FFF729
:1011500009FFA0682843A060E068800608D52068E1
:10116000800605D5FFF7FEFEA06820210143A1609F
:10117000E068C00608D52068C00605D5FFF7F2FE76
:10118000A06810210143A160E068000409D548F27D
:1011900000052068284204D002F048F9A0682843DE
:1011A000A060E068C00309D501200504206828423A
:1011B00004D002F033F9A0682843A060B0BDC04657
:1011C0003C800048B0B50D4C2068C00708D060686E
:1011D000C00705D0FFF748F9A06801210143A160CD
:1011E0002068C00509D540F200156068284204D087
:1011F000FFF738F9A0682843A060B0BD08C00048D8
:10120000F8B50125204C2068C003204E09D52F04D5
:101210006068384205D000F0A3FDA0683040384334
:10122000A0602068800309D56F046068384205D04B
:10123000FFF720FAA06830403843A06020684003E0
:1012400009D5AF046068384205D0FFF719F9A068E6
:1012500030403843A0602068000309D5EF0460687F
:10126000384205D000F06AF8A06830403843A060EA
:101270002068C00707D06068C00704D0FFF7E6F910
:10128000A0682843A060F8BD80400148FFFFF0FF40
:1012900023484168491C41607047C0460549002009
:1012A00008600861C867044906220A6011224A6280
:1012B0007047C04610000040940000403F200104E9
:1012C0000A4802680A4302600321090602688A4349
:1012D000026041680122114043689343591851400C
:1012E00041600F49002048607047C0460007004039
:1012F00010B50B4948680B4A904202D8087801287B
:101300000CD10948026801231A4004689C43A218C2
:101310005A40026000200870486010BD202010BDB7
:1013200038030018D1020000040700400248016899
:10133000012291430160704710E000E0034800681B
:10134000C7490140C74801617047C0467440014821
:10135000F0B58DB03820A24C205C0290674908722D
:10136000383466784E72A7788F72E278CA72237921
:101370000B7365794D73A0798873E4790394CC730A
:101380000C460E340C940C460D340B940C460C3465
:101390000A940C460B3409940A31089104ACA071EC
:1013A0006571029D2371E270A77066702570002739
:1013B000009707219722FF23204601F0BFFA0399E7
:1013C00088422CD1A01C4E490F706D09874C192101
:1013D00029B32278B24202D1A288AA4202D0491E81
:1013E0001034F5E7E1688847D8B104A84078FE21B9
:1013F0000140062913D170207B49424A0A5279489C
:10140000C41C04A907222046FEF766FF38B13E48F7
:101410000121017004A907222046FEF78AFF0DB0C2
:10142000F0BD802E0ED0092E19D10020C1B28D4200
:10143000E5D98A0006ABD21892681278A3685A548C
:10144000401CF3E70020C1B28D42D8D98A0006AB18
:10145000D21892681278A3685A54401CF3E7607857
:1014600081070FD404A90007D9D588780028D6D1E0
:101470005D48407B0128D2D1A06800210170594C01
:101480000A34BEE7F8B2854208D9810006AA891855
:1014900089680978A26811547F1CF3E75148C41C7D
:1014A00004A907222046FEF717FF0028B7D004A89A
:1014B0004078072811D00628A9D190204A490A5C13
:1014C000521C0A54D0B20A22B0FBF2F35343C01AA2
:1014D000081804A9897892220EE0912042490A5CFA
:1014E000521C0A54D0B20A22B0FBF2F35343C01A82
:1014F000081804A989789C22815488E79002001872
:101500004003001850BC000004040018FEB501A8F8
:1015100000240471F448024658325378314D6B74FC
:101520009178A974D278EA740194EE4E777B012FFA
:1015300044D176899E4241D119242C4B0027009733
:1015400044B11F788F4202D19F88974204D0103354
:10155000641EF5E7009C31E0EA76A9766E76F5B276
:1015600000950027974207D2042F05D89E68F65DA4
:1015700001ADEE557F1CF5E75023009DC554352382
:101580001B4DEE5C02273743EF54019E0096154B2E
:101590001E7701AD6E785E77AF789F77ED78DD7757
:1015A000503085711D4647710671009BC370827073
:1015B00041702021695CC171601E84410D4E3078FC
:1015C000A04202D16878012809D10A2014B102F0A2
:1015D00085FB01E002F07CFB002068703470FEBDEA
:1015E000A40000182C0200182C0400180458001243
:1015F000C10100183C000018034880F3098800F07E
:101600000BF9FEF72DFDC046000C001850B1042860
:101610000BD8032816D0022817D0012818D111485A
:10162000406870470F48006870470B2807D10B4887
:101630000168C9010FD401680948084070470120BA
:10164000C04370470748C0687047064880687047C5
:1016500004480069704700207047C0461CC000481D
:10166000FF070000080000180448016801220A432F
:10167000026020BF20BF20BF7047C046104000401E
:101680000649086841F60072904341F20032801822
:101690000860282048600020086370470840004028
:1016A0000020704710B5014600780122002364280D
:1016B000104600D818464C7889780902091940F27A
:1016C000E834A14200D81A46104310BD00207047EC
:1016D0002821C94300786538884201D3002070472B
:1016E0000120704700782F30C0B2CF2801D30020EE
:1016F00070470120704700787F210140642901D89C
:1017000000207047012070470078401E0D2804D843
:101710000848012101700020704701207047C04631
:101720000078012804D80348012101700020704787
:1017300001207047800200180078012801D800209D
:10174000704701207047000080B5FFF757FC044840
:101750000168491C016080BC01BC8646FFF798BD4A
:10176000EC040018F8B5204E306840011F4D2846A3
:1017700023D53068800528461FD030688001800D51
:1017800028461AD01A4F306838403168090C394061
:101790008842284611D230683840144A0024214635
:1017A0002346FEF7F9FC32689201D20D10433268ED
:1017B000120C3A402346FEF707FD0E4A1168926864
:1017C000072313405A1E062A03D892000AA39A58E8
:1017D00000E00122490700D0054650084019B0FB3F
:1017E000F2F00C490860F8BD10400140005A620256
:1017F000FF03000000400040020000000300000062
:1018000004000000060000000800000010000000B6
:10181000140000004000001880B509204006074968
:101820000860FFF72DFF40F2E830FEF749FEFFF7B2
:1018300045FD80BC01BC8646FFF794BF08ED00E083
:10184000F0B5D4484089012814D0102812D00228BD
:101850000FD1D14B98790F280BD8DA797F2111401D
:101860005A1D1B1DCD4CA479640612D14C1E642C4C
:101870000FD3F0BDC84B98780F28FAD8DA787F21BB
:101880001140C64A9279520602D14A1E632AF0D804
:101890005A1CC34C012525701C787F262640C14B5D
:1018A0009F7880252F40BE199E705E79F0273740C3
:1018B0000609BE195E719E792E40711899711979C9
:1018C000C0260E400007800E11788A091018801972
:1018D0001871D8782840E2098906490E8918081835
:1018E000D870F0BD2C040018A4000018F0B5E6482C
:1018F0004089C11E012912D8E44BC00710D1987B42
:101900000F280CD8D97B7F220A4019460D310C33A1
:10191000DF4CA479640613D1541E642C10D3F0BD9F
:10192000987A0F28FBD8D97A7F220A4019460931C4
:101930000833D74CA479640602D1541E632CEED828
:10194000D54C012525701C787F262640D14B9F78E9
:1019500080252F40BE199E705E79F027374006091A
:10196000BE195E719E792E40B2189A711A79C026FE
:1019700016400007800E09788A091018801918711E
:10198000D8782840E2098906490E89180818D870C5
:10199000F0BDC046F0B5ED484089411F012912D87D
:1019A000EB4BC00710D1987D0F280CD8D97D7F2232
:1019B0000A40194615311433E64CA479640613D154
:1019C000541E642C10D3F0BD987C0F28FBD8D97C12
:1019D0007F220A40194611311033DE4CA479640687
:1019E00002D1541E632CEED8DB4C012525701C78E7
:1019F0007F262640D94B9F7880252F40BE199E70A8
:101A00005E79F02737400609BE195E719E792E4037
:101A1000B2189A711A79C02616400007800E09780C
:101A20008A09101880191871D8782840E2098906A7
:101A3000490E89180818D870F0BDC046F0B5E848BE
:101A40004089C11F012912D8C14BC00710D1987F0E
:101A50000F280CD8D97F7F220A4019461D311C332C
:101A6000BC4CA479640613D1541E642C10D3F0BD71
:101A7000987E0F28FBD8D97E7F220A40194619315B
:101A80001833B44CA479640602D1541E632CEED8EA
:101A9000B14C012525701C787F262640AF4B9F78DE
:101AA00080252F40BE199E705E79F02737400609C9
:101AB000BE195E719E792E40B2189A711A79C026AD
:101AC00016400007800E09788A09101880191871CD
:101AD000D8782840E2098906490E89180818D87074
:101AE000F0BDC046F0B5FD484089014609390129DD
:101AF00014D8C00713D12620954B185C0F280DD899
:101B00002721595C7F220A40194625312433914C04
:101B1000A479640615D1541E642C12D3F0BD222082
:101B20008B49085C0F28F9D80B462033DC787F22DC
:101B300022402131874CA479640602D1541E632CC3
:101B4000ECD8854C012525701C787F262640834BD8
:101B50009F7880252F40BE199E705E79F027374010
:101B60000609BE195E719E792E40B2189A711A79D3
:101B7000C02616400007800E09788A0910188019BF
:101B80001871D8782840E2098906490E8918081882
:101B9000D870F0BD2C040018A400001890020018A2
:101BA0003D000018D4040018F0B5CC484089014627
:101BB0000B39012966D8C00725D12E20644A105C54
:101BC0000F285FD82F21515C7F231940614CA479E5
:101BD000640602D14C1E632C54D8604CA578802634
:101BE0003540283217793B40EB18A370E378334037
:101BF000FD0952799606760E7519EB18E370030706
:101C00009B0E920929E02A20514A105C0F2839D8EE
:101C10002B21515C7F2319404E4CA479640602D1DC
:101C20004C1E632C2ED82824155D2B404B4CA678D7
:101C300080273E40F318A370E3783B40ED09164639
:101C400028367678B606760E7519EB18E3702032D2
:101C500053789B0992781207920E3F4C012525700C
:101C600013433E4A1479C02525405B1913715379FB
:101C7000F0241C4000092018507190798023034003
:101C800058189071F0BDC0462C040018A40000182C
:101C900090020018D40400183D000018F0B58F48D9
:101CA000408901460D39012914D8C00713D13620C7
:101CB000274B185C0F280DD83721595C7F220A402A
:101CC000194635313433FE4CA479640615D1541EBF
:101CD000642C12D3F0BD32201D49085C0F28F9D8BE
:101CE0000B463033DC787F2222403131F44CA4792A
:101CF000640602D1541E632CECD8174C01252570C4
:101D00001C787F262640154B9F7880252F40BE19D2
:101D10009E705E79F02737400609BE195E719E7984
:101D20002E40B2189A711A79C02616400007800E0C
:101D300009788A09101880191871D8782840E209A2
:101D40008906490E89180818D870F0BD2C040018AF
:101D5000A4000018900200183D000018D4040018D8
:101D60000348006803490140034841607047C0468A
:101D700068400148FF07000008000018F0B4174849
:101D800040F2D611C822026041607021CE4A515CF7
:101D9000CDB219235D430A24B5FBF4F126464E4328
:101DA000AD1BADB2042D00D9491C7125525DD2B2D4
:101DB0005343B3FBF4F254431B1B9BB2042B00D9D7
:101DC000521C83688B4204D1C368934201D1F0BC9A
:101DD00070478160C260F0BC03F064BCF00300187F
:101DE0002C04001870B514460D46194600F054FE38
:101DF00006462846214600F04FFE301A70BD00000E
:101E0000F8B50090324B1E791D789C89314A17270E
:101E10000120002F58D01188A14205D191780D42A0
:101E200002D0D1780E4202D17F1E0C32F1E7012D93
:101E300011D1186960B1187A1969002585420AD252
:101E40009688B54202D29668765D4E556D1CF5E7D0
:101E50009088009908800A2C0FD11869A8B3197AC4
:101E60001B69002004468C422ED29588AC4202D2D7
:101E70001D5D96683555641CF5E71878022816D163
:101E8000002115484456002C11D41C697CB11C7AE1
:101E90001B69A14207D29588A94202D25D5C96686F
:101EA0007554491CF5E7017809B90121017086498B
:101EB0000879012809D11020088200200871012228
:101EC000CA810A7304490A70F8BD0020F8BDC046F3
:101ED00064020018BC5E0012040400182C040018F0
:101EE000FEB516460C4602902620734F395C19B990
:101EF0000121395402F06AFE787CBD8C6F490A7862
:101F0000032A09D1022807D80020A06020463146C4
:101F1000FEF7C6FB03200FE0C97801290DD1022886
:101F20000BD820463146FEF7BBFB6548007C0228F3
:101F300001D0022000E001207874387C78B1029949
:101F4000491B0128019489B20BD17A694A43F96986
:101F50005218D10C7C2912D95A49491C0BE0788AB5
:101F6000A5E07B694B43FD69EA1A00219D4200D23E
:101F70000A469D4203D800227A613A820A46FA61F3
:101F80007521514B5D5C2826754350498D6078253D
:101F90005D5D75430D617B255D5D75438D617E25BE
:101FA0005D5D75430D6277255D5DAD0276241C5D38
:101FB000A4006419CC607A241C5DA40279255D5DBF
:101FC000AD002C194C617D241C5DA4027C255D5D57
:101FD000AD002C19CC6181241C5D74438C62842477
:101FE0001C5D74430C6387241C5D74438C638024E4
:101FF0001C5DA4027F255D5DAD002C194C6283241D
:102000001C5DA40282255D5DAD002C19CC62862486
:102010001C5DA40285255D5DAD002C194C638924EF
:102020001C5DA40288255D5DAD002C19CC638A245B
:102030001C5D74430C648C241C5DA4028B255D5DC7
:10204000AD002C194C648D241C5D74438F255D5D9F
:10205000AD028E269B5D9B005B198C64CB64920B5A
:1020600000256BB2DC000C596D1C9442F9D3012B96
:1020700000DC0123DB00CC186568083C2668646836
:102080002D1BC958891B921B114B5A43B2FBF1F10E
:102090006943B1FBF3F10919012801D00D48091872
:1020A000019C386A4843B9694018800B78820299CC
:1020B000B98480B2A060FEBD000200188A02001838
:1020C00090020018FFFFE7032C0400184C000018D2
:1020D0001027000060F0FF3FF0B59FB000248C8017
:1020E0004C8007910C804188E94A10914A430A903C
:1020F0000388E84959438818E74940180F90E74892
:102100001390E7481290E748E74D2F461194032CAF
:1021100022D004C81E465A43129908C91291109938
:102120004B439A18139908C91391D218DF4B3833CF
:1021300053430F99CB18AB4200DB3A46002B03D533
:1021400011996118891C1191AB4200DB2B46641C6C
:102150001D4617463346DAE7119A100610D0D1B261
:1021600004290FD801290DD0D1481E46042913D0C7
:10217000032916D10122CF4BCF49D048D0A414E077
:10218000109D44E0052936D0062938D10120870466
:10219000C64D39353C233AE00222C64BC649CAA493
:1021A00003E00022CAA3C549CCA4A0CB751B2668B6
:1021B00063687543109CE41B5C4365196E430C68AF
:1021C00004D448688F68A314851420E03419066885
:1021D000B44218DD9000B24A12586B434968C918DE
:1021E0008D146A43AF490958A31459435118AB4A97
:1021F00010580F180BE0BB4F5825C42307E0AB4B1A
:102200009D1DB94F03E042688768B31495140A9C7A
:1022100065802380A06878438014A060B34E314667
:102220006831204603F0D0F9A0683064000407212B
:1022300000F032FC014630670120089000040E9047
:1022400000F02AFC30670425605F0A2790FBF7F056
:1022500000B20024A64A2146119410950F97072931
:102260000AD00023D35E834203DC1423D35E83426F
:1022700005DC491C1432F2E73746214600E03746B8
:1022800089B214224A439A498B5E8D18A98AC91AC9
:102290000CB202210691695E1622AA5E521A120140
:1022A00092FBF4F212B2C01A424306461290100991
:1022B000081800B2B96A414340F2E83091FBF0F0EF
:1022C00000048C498C4A9047F8640F210C91C90393
:1022D00013918A4A9047F8640820285E1C21695EA1
:1022E000091A090191FBF4F109B271430909401877
:1022F000B988401800047F497F4A904778640F9856
:10230000285E1E21695E091A090191FBF4F109B2E8
:102310007143090940183989401800047549764EFF
:10232000B0473246B8641098285E1821695E091AD1
:10233000090191FBF4F109B2129E71430909401899
:1023400000B2F96A414340F2E83091FBF0F000043A
:1023500068499047B8651399684A9047B8650C205A
:102360000D90285E2021695E091A090191FBF4F1A4
:102370000B9409B2714309094018B9894018000447
:102380005C495D4EB047324638650E201090285E9D
:102390002221695E091A090191FBF4F109B2129E2A
:1023A000714309094018398A4018000451491446FC
:1023B00090472246786506200990285E1A21695EBA
:1023C000091A09010B9C91FBF4F109B27143090947
:1023D000401800B2396B414340F2E83091FBF0F015
:1023E00000044449904778661399444A90477866B8
:1023F0001020285E2421695E091A090191FBF4F17D
:1024000009B2714309094018B98A401800043949D2
:10241000394A9047F8651220285E2621695E091A1C
:10242000090191FBF4F109B2714309094018398B94
:10243000401800042F49304A9047119C7C630E9944
:10244000B963FC63E14379832D4E2E4931602E49F7
:102450007160B460BB6EF96E3A6FF36031613866DB
:102460007461012A089800DA24E12848039045F2B3
:1024700015001B1A1098C043254C1193834203D3B7
:102480000B19834200D30CE1082943DA002011E143
:10249000E51AFDFF53890100A9B22BFDB05E0012C1
:1024A000A45E0012985E0012FFFFFF7F050200008D
:1024B000745E00128C5E0012805E0012685E001274
:1024C000300100009C010000FD010000C7FFFFFF7C
:1024D000C400000058000000280100008A0000002D
:1024E00013FEFFFF682F0100BE840200B402001833
:1024F0009459001200001027F9290012992A00129D
:10250000D00300180D50000039540000FFFF0000F8
:10251000BFABFFFF45F24140081A083010901198F8
:1025200008301190ED481D90ED481C90ED481A9030
:10253000ED481990ED481790ED4816900120059050
:1025400000220192029204920D98504316A90B1892
:10255000032A65D00B92501C139080B20321B0FB6C
:10256000F1F24A43801A0D99484316A90A581E6889
:1025700012935D68921B08184068441B11981099CB
:102580000F922346FFF72EFC074608380C99C943E3
:1025900088422AD8D04886190836CE4845190835C9
:1025A000304629460F9A2346FFF71CFC394600F0B7
:1025B00023FA044630462946119A109BFFF712FC75
:1025C000394600F019FA0E9908398C420DDD099947
:1025D000C943884209DB0E99C91D884205DC05986C
:1025E000C00707D10498844204DB129B0C33D24FFE
:1025F000139AADE72046119900F04EFAB2494018FF
:1026000002902046109900F047FAB0494018019016
:102610000B994A1C0020059003910494C64F93E740
:1026200000200599A74EC90744D10299F16001998C
:102630003161049AFA63039979833169082939DB96
:102640000E9D284611469D4A904704467863281AF5
:10265000B8639E499A4DA8472A46054631692046E7
:1026600090471390F96E3C6F2846944A9047014674
:102670002046934CA047B060F96E3D6F13988F4A87
:10268000904701462846A0477061B068002801D5F0
:102690000020B0607169012000290BD50021716113
:1026A00008E0B260002078630E98B863F863884849
:1026B000788308983870F5681695306903901590FE
:1026C000706911901490F86D1090396E0C91786EBD
:1026D0007A4CA0471390386D0B907E6DB86D3146E3
:1026E000A047129038467F6C816C0591C06CA04762
:1026F0000D9004951098281A0990039C311B109195
:102700006F4EB0470F907F1B38461099B04710901E
:102710000C98251A28463946B0470C900B98049916
:10272000471A38462946B04704900598041B384696
:102730002146B0470B9020460999B0470990139C59
:102740002046129F3946B04705900D9D28462146E8
:10275000B047044628463946B04707460F980499C3
:10276000411A0598B04713900C980999411A2046D0
:10277000B047129010980B99411A3846B04704465A
:1027800010900A98C068069990FBF1F00104119826
:10279000B0475849B04740F20041B0471190664DEC
:1027A000E86C1399B0470746A86D1299B047C7194E
:1027B000686E2146B04739181198404A9047044640
:1027C00013982146B047074612982146B047054660
:1027D00010982146B04704460E98874200DB074612
:1027E000F81787437D20060638463146344A90471D
:1027F00041490028139101D448F200010818C1177B
:10280000090C40180E998D4200DB0D460714E8179D
:102810008543284631462A4A90470E9905468C4200
:1028200000DB0C46E017844320463146244A90479B
:102830000A99C988C9094F433F126E222F4B9B5CEE
:102840007F221A40574364242D4B2E4E9F4233461D
:1028500003DC97FBF4F3DF17BB43079F3B80002D9E
:10286000254B01D448F200035B19DD172D0C5B19D1
:102870001B144B431D125543214B9D42334603DC31
:1028800095FBF4F3DD17AB437B80002802D448F2BC
:1028900000031393139B1818C3171B0CC0180014C4
:1028A0004143081242431648824203DC92FBF4F68D
:1028B000F0178643BE8008981FB0F0BDF9290012BA
:1028C000992A0012D00300180D500000395400005E
:1028D000FFFF0000BFABFFFFEBAFFFFF090A0000E7
:1028E000E72700006DB60000E32F0000634D0000F5
:1028F0002EB200001F0500000080FFFF2C0400180E
:10290000FFFF3100FF7F00000B4B198398821420DA
:1029100092FBF0F018637047074B198298811420DE
:1029200092FBF0F0D8627047034B19819880142015
:1029300092FBF0F098627047B4020018F8B50025D9
:10294000069C00942E468E420ED0875D5F402B463B
:10295000082B06D27CB2E40914407F0067405B1C60
:10296000F6E7761C3B46EEE700984340D8B2F8BD48
:1029700010B5C10842094A4041084A4003095A407B
:10298000D20184084C405C404440E107490E89185C
:1029900080224A400243D0B210BD0000A8B10323F8
:1029A00013800A4A02231370AA224A710A71CA705C
:1029B0007F220A70042808D8401EC0B2C000044A12
:1029C000C2408A70034AC2404A7070472001001812
:1029D00031311311222E222E10B5064C2078FF28FB
:1029E00007D000F0E3F9207810BC02BC8E4602F05C
:1029F00083B910BD00040018F8B50C4661B101465A
:102A0000C017009141400D1AE017214641400E1AAF
:102A1000300D04D1002710E00120C007F8BD700C74
:102A2000401CB5FBF0F70021384632460B46FDF757
:102A3000B3FBC903400C40182D1A1120310721D1D6
:102A400003281FD9001F3609F8E700281CD40021ED
:102A50002A46130F04D11201091DFAE75200491C3E
:102A6000002AFBD5CAB29042014600DB1146401A4B
:102A70008D40B5FBF6F132464A438140CF19A91A81
:102A80004D00401E002DE0D100984440781C4008C5
:102A9000002C00D54042F8BDB0B582B20B141446EC
:102AA0005C43001489B205464D432C1925142404B7
:102AB00058434A43A2186841C117511848F200030D
:102AC000C91A914200D9401E0004090C4018401C4C
:102AD000B0BD000080B5C5480068BD48016804224B
:102AE0000A43FB218A4302600B48016B05220A431B
:102AF00002218A430263016806229143016007486C
:102B0000016801220A430260FEF710FCFEF7ACFDEB
:102B100020BF20BF20BF80BD34800048B8000040E7
:102B20000B2805D840B2800002A108580D49018049
:102B30007047C04616040018180400181A0400183C
:102B40001C0400181E040018200400182204001899
:102B50002604001828040018240400181204001881
:102B600014040018FFFF0000B0B58C4C207C58B155
:102B7000207B401C2073C0B2022805D30025657459
:102B800000F09AFC25732574B0BDC046014800785A
:102B90007047C046EB03001810B5804CE07B8007FF
:102BA0000ED5607B401C6073C0B2052808D300F0CE
:102BB0003BFD002060746073E07BFD210140E17308
:102BC00010BDC04610B512480246083A1168890483
:102BD00040F2001340F6000105D414680C4202D103
:102BE00012681A4213D042F2000204681C430460C7
:102BF000036880241C430460036840F200241C43E3
:102C0000046003680B43036001681143016010BD59
:102C10004480004810B5614C2078C10704D0FE21E3
:102C20000840207000F008F8A07B20B110BC01BC67
:102C3000864600F09DB810BD70B5584C607C0628E3
:102C400060D8810001A251188F46C04600F071B8CB
:102C500000F00AB800F011B800F018B800F02AB877
:102C600000F050B800F054B86078552861D1FDF7F5
:102C700073FF00285DD0022073E00020A073607411
:102C8000607870BC02BC8E4601F094B8E078374999
:102C90000B78191A62186178D17500226273E57B8E
:102CA0000E262E43E673834239D1A378142B37D1F5
:102CB000A27D35E06078E077A17CFF224A40628205
:102CC000824237D1E07D7F2819D1207E062816D197
:102CD000607EB52813D1A07EFF2810D1E07E7F282A
:102CE0000DD1207F01280AD1607F022807D1A07F63
:102CF000FF2804D11C48007B08B1FEF703F900F05F
:102D0000F5FF19E0002060746073E07BFD2124E092
:102D1000207A6178814215D101F0ACF818E0628A1E
:102D2000401EE07051180A0A5118C9B261820006AB
:102D300016D070BD00F078FC002060746073E07BFA
:102D4000F1210AE0E07AFC210140E17200F06CFC24
:102D5000002060746073E07BF9210140E17370BD75
:102D60000420607470BDC0462C040018A301001834
:102D70000A48817B491E8173CAB28118C97D438A82
:102D800059188BB21B0A5918CBB2438202B1704753
:102D900000224282C94381727047C0466401001814
:102DA000DE49088800220A807047C04680B500F0DE
:102DB0006FFE002080BD000010B50C48006804497B
:102DC0000A6804231A43FB24A2430A60184010BD7A
:102DD00080E100E048B1054801680268FB239A439E
:102DE000C9B2114304220A430260704700E100E0C7
:102DF00010B5C74A13781C0704D010615161F02048
:102E00000340137010BDC046F0B5BF4A1278520798
:102E10000DD4BF4A1378040B12D01F2B03D80F20F8
:102E20000340203313709078F521014037E0B84813
:102E30000021C16081808178F5220A408270F0BD56
:102E4000D1600F2423401370B24B1C78154B1C70BB
:102E500007280CD39870040A102525435D700024C0
:102E6000052C11D00D5D1E19F570641CF8E7587023
:102E70000024FF25062C0DD084422E4600D20E5D84
:102E80001F19BE70641CF5E70521518100215170A6
:102E9000401F00E00020908090780A21014391704B
:102EA000F0BDC046B901001880B500F009F8FFF781
:102EB00073FEFFF759FE80BC01BC8646FFF782BE59
:102EC000F0B585B090490D78E80700D1EFE08F4864
:102ED000002404808E4A9480FE272F400F70917842
:102EE000F52004910840907010780F210290039112
:102EF000084001461031117086490A78864B1B78CC
:102F0000934205D07F2B03D089798B4200D0C6E055
:102F1000814EB17876780F2E0AD8B02908D3B72918
:102F200006D8FA2005407848057000F013FCBEE092
:102F3000934202D07F2B00D0B1E03246F0260192BE
:102F400000963240202A28D0102A3ED0002A019B29
:102F500000D0A4E06E480069002800D19FE06C49D1
:102F60004A69002A00D19AE003990B40062B00D948
:102F700095E0002B00D192E00188994200D28EE0CA
:102F80000380634DA1B2DBB28B425AD96249091961
:102F900089781155641C0378F4E70499C907019AEC
:102FA0007DD05B4CE1788B42049B24D103990A408D
:102FB00019098A421FD1E188072953D3881FE0806D
:102FC000F42003401133062155E001980007000D5D
:102FD0004018072863D34E490A69002A5FD049691F
:102FE00000295CD0138883420FD2002048498870A2
:102FF0001220087053E002980007400F01D11420FE
:10300000207000980340A37049E004231F433E4B07
:103010001F70108000223E4C052A05D03E4B9B18A5
:10302000DB788B54521CF7E705212181401FE0809B
:1030300039480078E070A0780A2101401531A1706C
:103040002DE02878010703D100990840401C287022
:10305000A878FA210140A9702B4A1078FB21014081
:1030600011701CE00023E380FA221540264A1570F7
:1030700008B911202070A3702289881823691B8841
:1030800098420CD8224D6B699A18234B9B1C29B18E
:103090001C781470521C5B1C491EF8E728811E48DE
:1030A000007820B91D48017808220A4302701848A8
:1030B00081780A07920F22D0144A13885B1C138070
:1030C0009AB2174B9A421DD308220A4009D00278BF
:1030D0001F2A03D80F231A4050320270F5221140E4
:1030E00081704A070ED5027813075B0F03D1F023D6
:1030F0001A40D21C0270FA221140817002E003488B
:103100000021018005B0F0BDA2010018A401001843
:1031100088010018AA010018B1010018A6010018C2
:103120000E0200000020084901220C2802D00A5497
:10313000401CFAE77047C0460B2801D900207047B1
:103140000149085C7047C04605040018FEB5FFF74A
:1031500033FE894B1880B04CA06AD64E7070A06ABE
:103160003178FB220A4080090425284080183070FD
:10317000E76B606C8149084360641888FFF72AFE9A
:103180003020384000D086E07178002900D082E0FD
:103190003078400700D582E0FDF7DEFC00287ED1C4
:1031A000002002903073012030740746FFF704FEC0
:1031B00071490880A06C202101910843A064A06C93
:1031C00010231843A064206B0622904320633946E5
:1031D000F843226B02402263226B3A43009722633A
:1031E000626C664F3A436264E26A0240E2622268BD
:1031F000AA43226022680A4322600222D243256841
:1032000015402560256808272F43276065680E272D
:10321000BD43656065681D43656063680340636026
:1032200063688025AB436360636840251D43656028
:10323000636801998B436360E36852490B40E36024
:10324000FF23DB43E5681D40E560A56C009F3D431F
:10325000A564A56C1540A564A5680D40A560A1688E
:103260001940A160616C01406164606C1040606451
:10327000606CE24908436064029D35733E480088F3
:10328000FFF7A8FD00F0D0F977747573F07BFD218E
:103290000140F17364E0102862D0202860D0717C76
:1032A0003078420725D4032914D3F07AFC21014059
:1032B000F172334800780B2806D805214143F048C5
:1032C0004018C078C00603D4F07B08210143F17395
:1032D00000F0AAF9FDF740FC002841D000207074EE
:1032E0007073F07BFD210140F1737078C0BB012049
:1032F00028E031B3052927D1307A7178814227D16E
:10330000F07A032102460A40022A0BD10622727487
:10331000B27A636AFF25AB439B186362FC231840B3
:10332000F0723272084001281AD1052070741636E6
:10333000B07A3018407800F0A9F9B07A401CB07229
:103340000EE0002070740BE001210843307007E0AC
:1033500000207074F07AFC210140F17200F064F9F1
:10336000206B012188432063206B08432063606C3D
:10337000A24908436064FEBDA80100183040000067
:10338000A0010018FF00FFFFB0B5F148017C05293E
:1033900035D198490A6804239A430A608B6C01224C
:1033A00093438B640B680824A3430B6000230374CE
:1033B0008B68FF24A3438C68E4B2E3188382838A7A
:1033C0009B088382838A1F242404CD6AA543DB06DD
:1033D0001B0F1B045B19CB62838A5B098382838A80
:1033E000742B10D3838A902B0DD8838ACC6A824D9C
:1033F00025405B055B19CB620223437407E0017C27
:10340000491C0174B0BD0723037403230373C86A06
:103410001043C862B0BDC0460080004801200004CF
:1034200012490A6802430A60FDF77EBB0F48016833
:1034300048F200020A430260FDF7EEBB80B50B487C
:10344000016801220A430260FDF786FB38B1084893
:10345000007B48B180BC01BC8646FDF735BA80BC14
:1034600001BC8646FFF790BF80BDC046448000483F
:103470002C040018B0B5B64C0025658065706582D7
:10348000A581658125722571A57320781C210140D5
:1034900021701620212802D02554401CFAE7402034
:1034A000E07300F009F825746574E07BBF210140EA
:1034B000E173B0BD64010018F0B585B04D4800213E
:1034C000C1610125EA43C169114013460092C161FF
:1034D000C169022204921143C161C16A7022914301
:1034E000C1621F210904C26A8A430321039149046E
:1034F0005118C162C16A404A0A40412189055118E8
:10350000C162C16A2943C162016B2943016306217B
:10351000C943026B0A400263826C10240194224367
:103520008264826C2024029422438264446C334A75
:1035300014434464046B0C400463016B1940016341
:10354000016B29430163416C11434164C169082344
:103550001943C1612A4C2268FB27FF432168394087
:10356000D2B20A4304210A432260826C1A43826465
:10357000826C8A438264234A16680E433E4016607A
:10358000039A9205204E34689443346042680E24B6
:10359000A24342604268019C224342604268009E0E
:1035A0003240426042688024A24342604268402424
:1035B000144344604268029CA243426002682A436A
:1035C0000260049AD24304681440046004689C4377
:1035D0000460836C33408364836C13408364084BC2
:1035E00018681A683A40C0B210430843186005B022
:1035F000F0BDC04600800048FFFF1F0030400000C3
:1036000000E100E000E200E000E400E0504AD17098
:10361000484B197003215174907000205073D07B77
:1036200002210143D173704770B5FFF7C5FB4249D2
:1036300008804749CA7B13079B0F17D040230F4CC4
:10364000E55C80262E43E6542B230D4CE55C0226D8
:103650002E43E6540B4B5D780B4C24785C701C7841
:103660000DB104252C43012525431D70F3231A4079
:10367000CA7370BC02BC8E46FFF7ACBBA400001836
:10368000C1010018A6010018A101001810B53049A9
:1036900008720A4A1368FF24A343181810600879B7
:1036A000401E0871000601D0012000E00220CA7A05
:1036B000FC2313401818C87210BDC046248000486F
:1036C00070B514460D46224E3271052171741949A8
:1036D0000A70142801D0002000E0B07DC0B27082D2
:1036E000FFF76AFB14490880314617312CB12A785C
:1036F0000A706D1C491C641EF8E7FFF76BFB3079FC
:10370000401EB073C1B27018C07D728A101882B2A8
:10371000120A1018C2B2728209B9C043B072F07DA9
:10372000FFF7B4FF202001213154F07B0421014335
:10373000F17370BDA3010018A8010018044800210E
:1037400041744173C17BFD220A40C2737047C04679
:1037500064010018FEB5C24FB878B038052800D90A
:10376000CBE0810001A251188F46C04600F00AB894
:1037700000F038B800F077B800F0BFB800F0B2B889
:1037800000F0BCB8B74DA8793978814202D07F29C2
:1037900000D0B2E07978062900D0AEE03979FA7825
:1037A0006B789A4202D1AB78994205D0FF2A00D0BB
:1037B000A3E07F2900D0A0E0B9797A79EB789A422A
:1037C00002D12B79994205D0FF2A00D095E0FF293C
:1037D00000D092E0F9792970A02900D0D2E0002130
:1037E000F022D8E09F490E783878B04202D07F2886
:1037F00000D082E0787806287FD13A79F8784B7843
:10380000984202D189788A4203D0FF2875D17F2A55
:1038100073D1B87901907B7900259C4A9249FF27A2
:103820001224B120029000933C2D00D1D7E0505DCE
:1038300098420BD15019334646782246019CA64245
:1038400014461E46009B914A00D1BBE0CF718F7198
:103850004F710C710298C8707F20887003204870E7
:103860000E706D1DE0E739787E488279914202D171
:1038700002788A4241D1797806293ED17A79417815
:103880003B798B4202D18478A24203D0FF2B34D102
:103890007F2A32D1FB79C278BC79944202D1057972
:1038A000AB4203D0FF2C28D1FF2B26D1FC78234636
:1038B000103B102B00D398E001786B4801700B2B64
:1038C00072D8F221817004214170FF21817105229B
:1038D0005A436E4B9C5CC4709A185378037192786B
:1038E00042716CE038785F498A79904237D1097823
:1038F000814202D17978062935D0FEBDE249087BA4
:103900000028FAD038787F28F7D178780628F4D1C3
:10391000F878FF28F1D138797F28EED1544D002670
:103920002E70B8790228E8D1787904286DD0032860
:1039300077D00228E1D150484670FCF7B5FF002847
:10394000DBD15148047A0CB10F2C00D3102420464F
:1039500001F0D2F90120687049480470FEBD787802
:103960000628CAD108784049FF22CA718A714A7173
:1039700012220A71B422CA707F228A7003224A700E
:1039800008702CE06A20C04A115400F059FCA87954
:10399000BA7840320121344B9A7001225A70187063
:1039A00033480170D81C16E0FF2181714171122249
:1039B0000271B222C2707F228270032242702A48B2
:1039C000C1710CE0F1228A7001224A700E70F84A2F
:1039D000D2798270C81C0521FF22FCF7EBFC23483A
:1039E00001780A220A430270FEBD54BB1E4BD970F7
:1039F000F2219970062159705A71017819708178F5
:103A00001971017999714179D9E7FDF751F8194890
:103A100001210170184805224270184A1170017086
:103A2000FEBD6878012800D067E715480078088255
:103A300001F062F9104846701248042101706E705E
:103A4000FEBD094AFF219171517112231371B223F6
:103A5000D3707F2393700323537000781070AEE708
:103A6000B1010018AA010018B90100188A01001854
:103A700040030018EA030018000000188002001834
:103A800000040018040400187A010018C10100188D
:103A9000F0B593B0FFF7EEFCFFF744FB00F020FA1F
:103AA000784C0025A580FFF771F8A072FFF76EF83B
:103AB0002074E580FF2001902080258165806520AD
:103AC0007149085CE0726620085AA0816820085A93
:103AD000E08121340720C3436C4811906C4810905A
:103AE0006C480F906C480E906C480D906C480C9090
:103AF0006C480B906C480A906C4809906C48089090
:103B00006C4807906C4806906C4805906C4804908F
:103B10006C4812906C4E02930C2D00D19EE00395E0
:103B2000DF1C002F68D03078411E0F294ED88A0044
:103B300001A39A189746C04600F01EB800F01FB8BF
:103B400000F020B800F021B800F022B800F023B84F
:103B500000F024B800F025B800F026B800F027B82F
:103B600000F028B800F029B800F02AB800F02BB80F
:103B700000F02CB800F039B8E019129937E0E019DC
:103B8000049934E0E019059931E0E01906992EE036
:103B9000E01907992BE0E019089928E0E019099944
:103BA00025E0E0190A9922E0E0190B991FE0E019DD
:103BB0000C991CE0E0190D9919E0E0190E9916E036
:103BC000E0190F9913E0E019109910E0E119129A29
:103BD000D21952794A7149212A4D68544935002138
:103BE0006970FEF7C5FEA87004E0E0191199C919C3
:103BF000497941717F1C94E71298401D12900498F6
:103C0000401D04900598401D05900698401D0690A3
:103C10000798401D07900898401D08900998401D7E
:103C200009900A98401D0A900B98401D0B900C9823
:103C3000401D0C900D98401D0D900E98401D0E904B
:103C40000F98401D0F901098401D10901198401D26
:103C50001190641D039D6D1C029B5DE7019A33B1B9
:103C60000848C0182121425442765B1CF7E7002027
:103C70001649994A602803D00B5C1354401CF9E79D
:103C800013B0F0BDA00100182C0400189E5D0012B6
:103C9000625D0012265D0012EA5C0012AE5C00124A
:103CA000725C0012365C0012FA5B0012BE5B0012FE
:103CB000825B0012465B00120A5B0012CE5A0012B1
:103CC000925A0012565A0012EB030018DC5D0012E3
:103CD0000B2802D8044900220A5470470B2802D846
:103CE000014901220A5470470504001870B57B4C45
:103CF0002078FF2847D0FB281DD1744842787449AA
:103D00000978417001780AB10422114302220A4362
:103D10000270FFF751F824490880244909780829DE
:103D20002AD8534A521C224B31B314781C70521CAF
:103D30005B1C491EF8E7654842786549097841707F
:103D400001780AB104221143022529430170FFF7CB
:103D500033F81549088015490978082914D82278BC
:103D6000D2005D4B9A18424B5B1C69B11E781670ED
:103D70005B1C521C491EF8E7FFF72CF861480178DC
:103D800001220A43027070BDFFF724F82078052154
:103D90004143504A5118CA782A43CA7070BC02BCC9
:103DA0008E46FEF7BDBEC046A8010018A30100184C
:103DB000B1010018F8B50546454805703C2D1AD0EC
:103DC0007D2D25D0BF2D2AD0FE2D28D04148061D9F
:103DD0000027414C0C2F23D0F8B2FFF7ADF930B1DA
:103DE000B01E0078A84227D0FF203C490870761DFD
:103DF00008347F1CEEE71E483C2101703748FB2148
:103E000001700D200821F8BC04BC9646FFF7FEBBEC
:103E10003248FB21017015480078800705D4F8BDB1
:103E2000F8BC01BC8646FFF789BC11487D210170B2
:103E30000D205349082213E02848077024480078D1
:103E40000B4908700020C0433156002901DA1420C4
:103E500000E00D20C90701D13178D4E7327821463E
:103E6000F8BC08BC9E46FFF72BBCC0468A01001870
:103E70007A01001870B515494A78154800784870DD
:103E80000B780AB104221343022213430B702A2138
:103E9000104C615C884209D140210F4B5D5C7F264C
:103EA0002E405E542B21635C134363547D2801D163
:103EB00000F02AF8094800780B2806D8052141436C
:103EC0006018C178FD220A40C27070BDA6010018BA
:103ED000A1010018C1010018A4000018A0010018D9
:103EE000254800211122026041608160C1600161AA
:103EF00041612048018003480178FB220A4002709A
:103F000001207047A2010018F0B51A480022028073
:103F10001948818819B3194B1C78194B1C704478C7
:103F2000641C0F252540457020355D704489C568A7
:103F30002D19062A0CD096B28FB2B74201D9AE5CC9
:103F400002E000218180FF269F18BE70521CF0E71E
:103F50000A0403D0A21D4281891F8180F0BD01782F
:103F60000F2902D81022114301708178F5220A40EE
:103F70008270F0BDA401001888010018AA01001881
:103F8000B901001804480121017072B600F032FE38
:103F900062B601F029F9FCE7EA03001880B5FCF7E6
:103FA00055FA40B280BD0000324800687047C046F4
:103FB00020486421017000F001B8C046F8B5012521
:103FC0001C4C6057042805D880001DA10E5821A163
:103FD0000F5801E0184E194F23484169C90106D511
:103FE00001683E229143016001682943016000207D
:103FF000FDF70CFB1D4941431D48B1FBF0F01D4985
:104000000860B84200D90425B04200D20225607889
:10401000854202D02178491E00E0642100B90146A2
:10402000217049B2002900DDF8BD64202070657060
:104030002846F8BDA6020018546F0000BC1B000003
:10404000C8190000C8190000BC1B0000546F000014
:10405000C819000048710000487100004871000054
:10406000BC1B0000546F000004C00048634E0000F9
:10407000FF07000044000018014800887047C04650
:1040800002040018014900200860704710400140F8
:1040900070B5404C204600F0B9F861883E48814236
:1040A00069D06C21022262526A21102262540026D9
:1040B000E680608039480121E18140F2B071384AE0
:1040C000384B23626262A1623749384A20616261DB
:1040D000A16126713648FA30E08336484530A08326
:1040E0002120C003A0602046323033A10B22FCF710
:1040F00020F920463E3034A103252A46FCF719F961
:104100002046433031A11422FCF713F98C203549A5
:104110002150882034492150842034492150802165
:10412000334A62507621655275210A2262546E210B
:1041300064226254662140F200326252652160546A
:104140002C482D49A167E06720466530C67020469F
:1041500090301621FCF755F97420265440F20110D6
:10416000A08126482067E662268625482549A16564
:10417000E06500F065F86920002121546A20215C87
:1041800009B1FF2902D16189215400E061891E48EB
:10419000018070BD2C040018290200001000FF00EF
:1041A000EE052601B2710000E04C00005E1B970B8B
:1041B0005E1B0000EE0500003132333435363738EF
:1041C00039303132000000004830340031323334AD
:1041D000353637383930303938373635343332318F
:1041E00000000000025A02039A01503A3C180146AE
:1041F0000032B400320028641411001E50BC0000CC
:10420000370011005C003C002A04001800210B4A12
:10421000A82903D08B5C4354491CF9E76C2015494D
:10422000085AF0210140803948424841C0011249F2
:104230000A787F2313401818087070470076001220
:1042400080B5AAB06846FFF7E1FF0022FCF7FAFE4E
:104250006C200849085AF021014080394842484101
:10426000C00105490A787F231340181808702AB046
:1042700080BDC0462C04001804040018401E03280A
:104280000FD8810001A251188F46C04600F006B831
:1042900000F009B800F00AB800F00BB89D4840895A
:1042A0007047002070479B48808870479948C088B5
:1042B0007047984800897047401E03280FD8810036
:1042C00001A251188F46C04600F006B800F009B8A8
:1042D00000F00AB800F00BB83E48C07870470120E3
:1042E00070473C48007870473A48407870473948F2
:1042F00080787047411ECAB240F2D070032A04D8B9
:1043000048B2800002A10858006800B27047C04659
:1043100028000018340000182C0000183000001885
:104320001048114941600021C16001614161816112
:10433000C1610162416281620A22C2620263062394
:10434000436382631022C26308220265416581656E
:10435000C1650166054A064B1360116101210160C8
:104360007047C04600400148007D0200804001487F
:1043700001000F0000200146024600F02FB80000A7
:1043800014481049416081600F494A78FD23134069
:104390004B7001780907890F01D001210170417824
:1043A0000907890F01D00121417081780907890F20
:1043B00001D001218170C1780907890F01D0012145
:1043C000C1707047F401F4018A020018FA480249EA
:1043D000016070471C00001801010101F0B585B0B3
:1043E0000C46F74E737871780491757871780027D0
:1043F0000391052904D143F200243A46394636E0B8
:10440000019443F20021029100970024012B2146E0
:104410001E4600D00199049B022B43F2002300D0DA
:104420000B46032D214600D019463746012E234660
:1044300000D01346049E022E264600D01E462B4670
:10444000032D43F2002200D03246012F00D002900B
:10445000049802282046DA4E00D00298032B234607
:1044600000D00346180401D0DF1C00E0009F039831
:10447000052801D10320044302B1D21C01B1C91C9B
:10448000B8B2B38883420AD1F3888DB2AB4206D169
:10449000338995B2AB4202D17389A34238D089B235
:1044A000748192B21C4DAA4200D32A463281A9429D
:1044B00000D32946F180A84200D32846B08017488F
:1044C000046041608260B188C160036840F2E0141A
:1044D00001210022A3420B4600D81346DB003746D9
:1044E00075880F26B543ED184368A3420B4600D8E4
:1044F00013469B00ED188368A3420B4600D8134671
:104500005B00ED18C068A04200D81146681878809A
:1045100005B0F0BDBC030018FF7C00001C40014842
:10452000F0B589B0A44CE0780590A0780790607849
:104530000690277801263046FDF768F841F6407569
:1045400068439E49B0FBF1F2E0780228039208D15B
:10455000E0680321414310B20818042190FBF1F0F8
:1045600000E010B2E06002200090FDF74FF86843D1
:104570009249B0FBF1F2607802280496029208D1C9
:1045800020690321414310B20818042190FBF1F087
:1045900000E010B2206103263046FDF737F868438B
:1045A0008649B0FBF1F1A07802280897019107D164
:1045B0006069704309B24018042190FBF1F000E0FB
:1045C00008B2606104273846FDF720F845437B4870
:1045D000B5FBF0F52278022A07D1A069464328B23C
:1045E0003018042190FBF1F000E028B2079EA06192
:1045F00073484388D907734905980DD02D04A94203
:10460000089709DB704EB54202DB009D089502E079
:10461000082008900598079E5D070ED5029D2D0481
:10462000A94202DA0425069507E0674EB54201DB90
:10463000022500E008250695079E9D07089F0BD5DB
:10464000019D2D04A94201DA042605E05E4EB54223
:1046500001DB022600E008261B070BD503980304A4
:10466000994201DA042005E057498B4201DB022020
:1046700000E0082004213B079B0F40F2DB130BD026
:10468000655E012D08DB6D1EA580ADB29D4201D196
:104690004B4DAF81174604E0277040F2DB12193210
:1046A000A280069D2A07920F0BD00622A25E012A45
:1046B00007DB521EE28092B29A4207D1404AD5816E
:1046C00004E0657040F2DB121932E2803207920F8B
:1046D0000BD00822A25E012A07DB521E228192B271
:1046E0009A4207D1364A168204E0A67040F2DB12E5
:1046F000193222810207920F0BD00A22A25E012AF0
:1047000007DB521E628192B29A4205D12C4A508236
:1047100002E0E07019336381E5783D4363781D431F
:10472000A27815430C242C40651EAC416400274D33
:104730006E783846FD273740E4196C70204C247899
:10474000C4BB4407049E074606D52F249A4D2E5518
:104750001F4C21701A4806705C0706D53024964D10
:104760002E551B4C217016480670540706D531246F
:10477000914D2E55164C2170114806703C0706D5F8
:104780002C248D4D2E55124C21700D4806701B07A0
:1047900006D52D23884CE6540D4B19700848067039
:1047A000120707D52E22844B049C9C54084A117092
:1047B0000348047009B0F0BD1C000018FF0700009A
:1047C000BC030018000093110000F5018A020018D4
:1047D00004040018FA20704708207449085E7047E6
:1047E000F0B58BB00B20FCF711FF6E4941436E48CA
:1047F000081880107D21890390FBF1F028386B4B5D
:10480000197851B10A214143588807224243501870
:1048100000B2082190FBF1F101E00A2141435980E7
:104820000226634F3046B8470A90624C3046A04794
:10483000089003252846B84709902846A0470690C7
:1048400004242046B847079020465A4988470490D8
:104850005C20DB49085E05905A20085E03905820D2
:10486000085E02903046B84701905448804707469A
:104870003046504988473F1A0198474328464C49DB
:10488000884701904D488047064628464949884751
:10489000301A01994843C6192046454988470746BA
:1048A0004648804705460194204642498847281AD1
:1048B000784334184148804705464148C04F3E463A
:1048C000854201D8603700E0613747F6005094FB1D
:1048D000F0F43A48804700217956394A954204D885
:1048E0000004384A101A000C02E042F6E062801A16
:1048F000374600B240F2E83290FBF2F0414308B292
:104900000A2590FBF5F000B25E26B95F40184443DB
:104910000A99089841432C4891FBF0F1029B4B43C4
:104920000999069A514391FBF0F1039A4A43D11831
:10493000079A049B5A4392FBF0F0059A4243881869
:104940000019152444431D488047B95F414369431A
:1049500060181E4990FBF1F00921C9434143134DF2
:10496000688808182978012908D10199695E0F2201
:104970004A4300B21018102190FBF1F0A880EC8897
:10498000FFF77AFB201AFA3000B2012801DB287801
:1049900020B9FFF771FBE880688828810120287022
:1049A0000BB0F0BDC4B61100004067F4A8020018B7
:1049B0007D420012F54200122C040018A93F00129B
:1049C000DF2E00000000E02E0083FFFF40420F00BA
:1049D000FCF78EBC80B5FCF771FC40B280BD0000D6
:1049E00080480021018141604180764A01231360A3
:1049F0000170704780B5FFF7BDFC102000F07CF916
:104A00000348FF21017003480021017080BDC046AA
:104A10000004001800000018FEB50446FFF72CFB48
:104A20000290E74908793F260640022E00D8022668
:104A30008F79624AD078012804D1087C012801D1FD
:104A4000022008747F251078022807D103201070F7
:104A50000120D070507818B1022602E02F4001E00A
:104A60000A260027FDF78AF9FFF7B4FED44B9A789F
:104A70002A4005214A432280A08040F6A070642F7E
:104A800001D828207843A060D8782840414361802D
:104A90000220C043197CC91E8142029F61D8A51C17
:104AA000464AD07801281FD14E4B5F816E20A34922
:104AB0000856002802D51078032870D132207043A0
:104AC000642800D8642098813E490968224601B1D3
:104AD0009A1C1288DA8001221A700029294600D017
:104AE000191D0988198101E03E488089C21B3D4992
:104AF0004B89D21812B2002A11DD228880B10195AB
:104B00000D78012D27D1FB1A9BB2C31ACD8895428F
:104B100009D9AD1A5D43B5FBF0F5521908E02288BA
:104B20000020087017E0551B5D43B5FBF0F5521BE4
:104B3000228065880F89AF4205D97F1B7B43B3FB79
:104B4000F0F0281804E0EF1B7B43B3FBF0F0281AC9
:104B5000019B1880029F4A80A0681A4A10606088F2
:104B60008880384621463246FDF7BAF90025134EB3
:104B7000F570204600F080FC3078032801D1A06851
:104B800050B18F49087C022805D11648007C10B925
:104B9000A06800B10D74FEBD04203070FEBDFBF7AF
:104BA00077FD30B17043322141436420B1FBF0F016
:104BB00001E0322070430B4B82E7C0468A020018A6
:104BC0002C040018380000187047000010B5054C80
:104BD000204610301421FBF714FCFFF74DFAA08497
:104BE00010BDC04600020018014880787047C046DA
:104BF00028020018B0B5FBF77DFC394C0020A070EE
:104C000038490860486088603748426806218A430E
:104C1000426042685207920FFBD1826940F2001352
:104C20009A438261826980239A438261826940F259
:104C300000239A4382610122426007234360036894
:104C40000B430360016811430160816910229143A5
:104C500081618169202291438161FFF719FAB34D87
:104C6000A87A37490870FFF7B5FEFCF727FBFFF776
:104C7000AFFEFFF707FAFFF791F900F0BFFB162030
:104C8000295E1420285EAA69FDF74EFE1E20295ECB
:104C90001C20285E2A6AFDF73FFE2620295E24207C
:104CA000285EAA6AFDF730FEFDF768F8FFF780F985
:104CB000FFF736FBFFF78CFEFEF778F86A20285CDA
:104CC0000A490870FFF7D8F90A30A080A87A00F0E6
:104CD00013F807480749B0BC04BC9646FBF740BF31
:104CE000800200181C40014830800048AA010018CA
:104CF000F5490012D929001210B50446401E0F28AC
:104D000007D80C48005D2521DD4A50540A48005D53
:104D100002E02046FDF72CFE2A21D94A5054EC48E7
:104D2000012141708149897A054A11700549095D5F
:104D3000017010BD345A0012455A00122C0400189C
:104D4000EB030018F0570012F8B5D5480179C022DE
:104D500011400171837880210B408370C3780B4030
:104D6000C3700488174B1C4004804579F02425400B
:104D7000457185790D408571D54E354622352F799F
:104D800017402F71AA780A40AA70EA780A40EA70A0
:104D9000728C1A4072846A7922406A71AA790A4038
:104DA000AA7101210174084800218175BA481621B1
:104DB000FBF725FBF8BC01BC8646FFF711BEC046D9
:104DC000900200180080FFFF1002001880B5B04864
:104DD0003821FBF716FB80BDF8B572B64026AC4C07
:104DE000A05D8F210140A155FFF7FEFE2B25A44BAE
:104DF0005A5D02210A435A55A25D4007400E1043F6
:104E0000A05562B672B6585D0843585522464032E6
:104E10005078802303406E24D648045D7F272740C6
:104E2000974CFB183746537062B672B6635D0B43FE
:104E30006355835D303B937062B672B6635D0B431E
:104E400063550723D37062B6027B72B642B1007C11
:104E500044228F4EB054605D0843605562B607E04F
:104E60004420FF228A4E3254605D0843605562B68A
:104E700002242046FFF720FA012814D10320FFF76F
:104E80001BFA01280FD10420FFF716FA01280AD1D6
:104E900072B6F05DFC210140F1557949485D20432F
:104EA000485562B6F8BDFFF77FF843F68061884247
:104EB00030D8FFF779F81E4988422BD302242046C8
:104EC000FFF7FAF9400726D40320FFF7F5F940076A
:104ED00021D40420FFF7F0F940071CD402200090F1
:104EE000FFF7EAF9000716D40320FFF7E5F90007FA
:104EF00011D40420FFF7E0F900070CD472B6604922
:104F0000485D009A10434855F05DFC210140881C23
:104F1000F05562B6F8BD72B6F05D03210143F1555C
:104F20005749485D2043485562B6F8BD2C04001827
:104F300028230000F8B56648007805214143504D0C
:104F40006918C97889074F4C217806D5012904D101
:104F500080004D4908588047217801291AD103263D
:104F6000FD244A4F2B2E09D0A85D810704D520408F
:104F7000A855FBF7DDFB3870761DF3E74820444960
:104F80000A5CD2073F4C05D000220A540120387039
:104F9000404802703D480178002501296DD12178F3
:104FA00001296AD10025057024204949095C3A4E3F
:104FB000B078414049061FD12521454A515CF2781D
:104FC0004A40510618D12621414A515C32794A4063
:104FD000910611D127213E4A515C72794A4011074E
:104FE0000AD128213A4A515CB2794A40510603D18C
:104FF0002A490978012940D1B2797F2422402849E1
:105000008B791D4625403146571B00D2AF1A304ED2
:10501000B77020400E4617D0F778274008D0642A92
:1050200006D8F348801CB11C0522FBF782F91BE06F
:1050300057B1EF498A7880231A4010188870C878D1
:105040001840C019C87007E0642A0DD865B18020E7
:1050500003409818E649887130793F220240087968
:10506000C023034098180871E0480125C57018480E
:105070002430B11C0522FBF75CF92846F8BDC04678
:10508000C10100180000001804010018EC0300180A
:10509000A4000018EA030018D404001881020018C4
:1050A000900200180A4822308178802211408170D5
:1050B000C1781140C1708179114081710179C0229C
:1050C0000A4002714179F0220A4042717047C0469D
:1050D0002C020018B0B51D461446042916D0032929
:1050E0002FD1FEF7C9FF3E494861062028800320E2
:1050F0006070672020704869A0704869000AE070FD
:105100004869010E6171000C20712EE041788078B1
:105110000002411832484269154BD21892B29142AE
:105120001AD10421617067212170022129806C212C
:10513000AA4A535A8024A3435352A74901220A7012
:1051400010E0B22060707F2020702548002141616E
:1051500081610220288008E0272161707F21217071
:10516000022129800021416181610020B0BDC0463B
:10517000040C00002C040018194B998102211970AD
:10518000C01C1861D01E187216480078A02800D0E4
:10519000012119710020FCF733BEC046F8B51C464A
:1051A000054662202870A970080A68700C4F01201B
:1051B0003870B98100263E610A490978A02900D1DA
:1051C000022038712046FCF71BFEE81C386120786D
:1051D00038723046F8BC02BC8E46FCF711BEC046A1
:1051E00064020018AA010018F0B587B07A4C207844
:1051F000052108420DD0FFF7EBFB784D287B0128F5
:1052000013D0A8B9E88908B10F2816D30E20E88179
:1052100013E0724D6889724C218888422FD1F0B317
:105220007048007801282BD039E0298A698100E094
:105230006989102009B10F2900D368811620295EE1
:105240001420285EAA69FDF76FFB1E20295E1C2032
:10525000285E2A6AFDF760FB2620295E2420285E4E
:10526000AA6AFDF751FBFEF7EBFFFFF7B1FB002049
:105270002156002900D58020207007B0F0BD70B104
:10528000FFF762FD574E3078012801D1FFF79EFDF0
:10529000A87AFFF731FD0020307068892080514ED8
:1052A000B788FEF7E9FE0446F588FEF7E5FE281A02
:1052B00000B2002806DCF088801CF080FBF796FE28
:1052C000FCF724F93589FEF7D7FE281A00B200282A
:1052D00004DC30890A303081FFF77EFDFBF73CFCAF
:1052E00038B1FFF747F807B0F0BC01BC8646FFF7BE
:1052F0006FBB381B00B200286ADCFBF767FA7070DE
:10530000012801D1FCF724F8FBF74CFEFFF712FE51
:10531000B0880A30B08000F08FF802A8FFF77CFB5D
:1053200031480078314E717801432C4A33D13048EE
:10533000817849062FD0C07840062CD0118902A868
:10534000C180058941F6001704976C462146FCF799
:10535000C3FE20886843B0FBF7F020806188694372
:10536000B1FBF7F16180A2886A43B2FBF7F2A28039
:105370000495204B1B78052B1DD11F4B1C68E4079F
:1053800003D11C68012525431D6080B289B292B209
:10539000FFF724F80FE00020049016480078052855
:1053A00009D115480168C90703D1016801220A43E0
:1053B0000260FEF7DFFF3078042809D1FFF772FEA4
:1053C000FFF702FCFFF702F8FEF7D4FFFDF782FBC0
:1053D000FFF7FEFA51E7C046040400182C04001839
:1053E0002A04001880020018EA0300188A02001834
:1053F0009002001801000018004001481C480021DC
:10540000C170012181750180817AC0220A408272B7
:10541000017A802211400172417A11404172017B70
:1054200011400173C18848F200020A40C280C17A6B
:10543000F0220A40C272704710B5FEF7BFFD401E51
:10544000411E88410A4C6178FE220A4010186070A3
:10545000FFF766F8FFF7C4F96078800707D5E078B2
:10546000012804D1FEF78CFF02480021017010BD15
:105470008A020018BC030018F8B50446FFF7AAF921
:1054800005464A4E4A4FFFF7A7F9BD42009401DA9C
:10549000002102E0B54210DD0721474A117044495E
:1054A000884204DA444800214170057837E0A0368C
:1054B000B04214DD4048072127E02A460A320A3D5F
:1054C00000233C4C19460729E9D0E75EBD4203DBC7
:1054D0000227E75FBA42E0DB491CA41CF3E702465F
:1054E0000A320A380023354D1946072909D0EC5EE7
:1054F000A04203DB02242C5FA24205DB491CAD1C49
:10550000F3E72D48417801E02B4841700578C9B296
:105510008D4204D24578294EFFF75EF902E0254E10
:10552000FFF758F9264B595D6A1C9C5CA14201D1DA
:10553000880120E06F00F35F5200B25ED21A1D4E68
:10554000F65F0C1BA4018901B0420BDA181A444320
:1055500094FBF2F0401841F6001188420BDB41F653
:10556000001008E0C01A444394FBF2F0814201DBD2
:10557000081A00E0002082B212490B88934203D23D
:10558000D41AE4111B1905E084B2A34208D99C1A6D
:10559000E4111B1B2404009C03D09AB2184600E0BF
:1055A000009CE260088004488570F8BDBA040000E1
:1055B00071FEFFFF3C5E0012280200184C5E0012D4
:1055C0005C5E001248000018F0B585B00391448875
:1055D0000088070479497A4E3846B04705462404C6
:1055E00079482146B0472818784941187548C0695C
:1055F000B047049078493846B04735460646774864
:105600002146A8473018764941186E4E306AA8479F
:10561000029074493846A847074673482146A84770
:10562000381872494118706AA8472A460746009000
:105630001649049D2846904704461549029E304667
:105640005F4A90470419134938465D4FB847201800
:10565000019011492846B847054610493046B847D9
:1056600045190F49009C2046B8472D180198294636
:10567000FDF7C2F907460498301800192946FDF7CE
:10568000BBF903990F60486005B0F0BDD439020042
:10569000763C0000A7000500BE39030074630100DA
:1056A00040592100F8B50446006800044349444FBE
:1056B000B8470546434EF061606800044249B84768
:1056C000281842494518F561E06800044049B84788
:1056D00001462846B847F061A06800043749B8473A
:1056E0000546E06800043849B84728183749451886
:1056F000606800043649B84701462846B847F16952
:10570000344A9047F061206800043349B8470546A1
:105710003062606800043149B8472818304945189C
:105720003562E06800042A49B84701462846B84770
:105730003062A06800042849B8470546E0680004C4
:105740002649B847281826494518606800042049AA
:10575000B84701462846B847316A1E4A904730622A
:10576000206800041F49B84705467062606800045D
:105770001D49B84728181D4945187562E06800049E
:105780001349B84701462846B8477062A06800042C
:105790001449B8470546E06800041349B84728187B
:1057A00012494518606800040949B847014628466F
:1057B000B847716A074A90477062F8BD01BC0100A2
:1057C000992A0012B4020018567C00006C0C81FE6D
:1057D0008F020000F9290012DF4BFEFF2642010074
:1057E000FB16DF0020F8FFFF78B9FFFF99DC9F0070
:1057F000000000010102020303040405050606007F
:105800000000000005030200010000009A040018D7
:10581000F716001206030200010000009C040018A5
:10582000D116001207030200010000009D040018B9
:10583000E516001280030200010000003904001880
:105840003917001208030200010000003804001894
:105850002117001209030200010000003A04001899
:10586000091700120A010200010000003C040018A0
:10587000A11600120C03020003000000A10400188E
:10588000A51600120D03020003000000A404001876
:10589000A51600120E03020003000000A704001862
:1058A000A51600120F03020003000000AA0400184E
:1058B000A51600121003020003000000AD0400183A
:1058C000A51600121103020003000000B004001826
:1058D000A51600121203020003000000B304001812
:1058E000A51600121303020003000000B6040018FE
:1058F000A51600121403020003000000B9040018EA
:10590000A51600122009020001000000580400182A
:10591000CD160012210902000100000059040018F0
:10592000CD16001222090200010000005A040018DE
:10593000CD16001223090200010000005B040018CC
:10594000CD16001224090200010000005C040018BA
:10595000CD16001225090200010000005D040018A8
:10596000CD16001226090200010000009E04001856
:10597000CD16001227090200010000009F04001844
:10598000CD1600122809020001000000A004001832
:10599000CD160012D8FF67052C049203C4FF3F0008
:1059A00035FF78001E00D8FFECFFEF041504A603B6
:1059B000D7FF2D0075FF52001500E3FFF6FFB2047C
:1059C0000904B003E0FF230095FF3E001000E9FF4B
:1059D00000006A04F603A503E7FF1E00B8FF2600D7
:1059E0000A00ECFF1900E803E803E80300000000E8
:1059F000000000000000000032005403CA03F80356
:105A00001A00E8FF5500CDFFF3FF0A0055006F02B2
:105A10009A030B043800CBFFC40087FFE1FF1C0092
:105A20007800A101740332045700ABFF340143FF37
:105A3000D1FF31006AA36425A6E7A8E96A2BECAD83
:105A40002E6FF06FF080C14203C48506470849CA33
:105A50008B4C0D8ECF501A401A80081B405B80087B
:105A60001C409C80081D40DD80081E405E80082090
:105A70004020800821406180082340A38008014025
:105A8000C181081F401F8001114011810839403930
:105A900080041A401A80081B405B80081C409C80D0
:105AA000081D40DD80081E405E80082040208008E0
:105AB0002140618008244064800802404281081F20
:105AC000401F8001114011810839403980041A407B
:105AD0001A80081B405B80081C409C80081D40DD2C
