:020000041200E8
:10000000300B001899010012A3010012A501001283
:1000100000000000000000000000000000000000E0
:10002000000000000000000000000000A701001216
:100030000000000000000000BF010012451800127F
:10004000C3010012C301001295110012C301001276
:1000500091120012CD120012C3010012C30100124E
:1000600000F002F800F06CF812A030C8083824182C
:100070002D18AC4201D100F063F80FCCA246AB467C
:100080000CA730CF2D1B083F3F197C427F1E5444E4
:100090002D090426F441641EAC4201D300F050F84F
:1000A0000126334200D0FB1A3343984754465D463D
:1000B000DFE70000BC630000DC63000070477047AE
:1000C00008FF38FF00000000010EFFFF00000000E5
:1000D0000000000000000000000000000000000020
:1000E0000000000000000000000000000000000010
:1000F0000000000000000000000000000000000000
:10010000103A02D378C878C1FAD8520701D330C860
:1001100030C101D504680C60704700000023002442
:1001200000250026103A01D378C1FBD8520700D32E
:1001300030C100D50B6070471FB51FBD10B510BD95
:1001400000F08CF91146FFF7F7FF04F099F800F082
:10015000A4F903B4FFF7F2FF03BC00F0ABF9000011
:1001600070B505460C46164602E00FCC0FC5103E92
:10017000102EFAD2082E02D303CC03C5083E042E5B
:1001800007D301CC01C5361F03E021782970641C18
:100190006D1C761EF9D270BD0D4880470D48004792
:1001A000FEE7FEE7FEE704207146084203D0EFF3C6
:1001B000098009490847EFF3088007490847FEE727
:1001C000FEE7FEE705480649044A064B7047000073
:1001D0001919001261000012A10100123005001867
:1001E000300B0018300500184343514330B55C18FC
:1001F000010C130C0D4692B25D4380B251432C1991
:10020000054655430A0C09044D1962415843010C37
:1002100000044019514130BDFEB5044610460D465C
:10022000184373D0A6468C460020A41A01469D416F
:1002300067D36646002701243D46B61A9D4102D386
:1002400013463A462124654676462F04360C3E4333
:100250002D0CB61A9D4104D3150C1B042B4312041C
:100260001034654676462F06360A3E432D0AB61AE6
:100270009D4104D3150E1B022B4312020834654620
:1002800076462F0736093E432D09B61A9D4104D301
:10029000150F1B012B431201241D65467646AF073F
:1002A000B6083E43AD08B61A9D4104D3950F9B0096
:1002B0002B439200A41C65467646EF0776083E4322
:1002C0006D08B61A9D411AD392185B41641C16E062
:1002D0000018764665464941B71A9D410191009044
:1002E00009D36046B11A98418E4684460098019918
:1002F0000025401C6941DD0752082A435B08641E43
:10030000E6D57246634603B0F0BDFFE720462843BA
:1003100007D00020C0430146C046C04622462B46B7
:10032000F1E700200146F7E7034610B50B439B07B2
:100330000FD1042A0DD308C810C9121FA342F8D048
:1003400018BA21BA884201D9012010BD0020C0434B
:1003500010BD002A03D0D30703D0521C07E00020B1
:1003600010BD03780C78401C491C1B1B07D1037877
:100370000C78401C491C1B1B01D1921EF1D1184660
:1003800010BDF8B5042A2CD3830712D00B78491C72
:100390000370401C521E83070BD00B78491C03705E
:1003A000401C521E830704D00B78491C0370401C6C
:1003B000521E8B079B0F05D0C91ADF002023DE1BBE
:1003C00008C90AE0FFF7CCFEF8BD1D4608C9FD408C
:1003D0001C46B4402C4310C0121F042AF5D2F30867
:1003E000C91A521EF0D40B78491C0370401C521ECF
:1003F000EAD40B78491C0370401C012AE4D4097824
:100400000170F8BDD2B210B513029A1813049A18ED
:1004100000F00EF810BD01E004C0091F0429FBD252
:100420008B0701D50280801CC90700D0027070477D
:1004300000290BD0C30702D00270401C491E0229BC
:1004400004D3830702D50280801C891EE3E70022C3
:10045000EEE70022DFE7704770477047754600F00F
:1004600025F8AE46050069465346C008C0008546DB
:1004700018B020B5FFF7A6FE60BCB64600260027E0
:10048000C0C5C0C5C0C5C0C5C0C5C0C5C0C5C0C544
:10049000403D490849008D46704710B50446C046A6
:1004A000C0462046FFF755FE10BD000000487047CB
:1004B0002001001801491820ABBEFEE7260002000B
:1004C0001349097851B10022134B9B56002B05D5D7
:1004D000104B9A56484380098018400800B2704774
:1004E0000948042101600121816040F2001141604E
:1004F00006480178064A11700179064A1170C078E1
:10050000054908700020704700C000489CFDFF119D
:100510008501001886010018870100187047000047
:100520000348006803490140034801607047C04622
:1005300018C00048FF0F00001C00001803480068A6
:1005400099490140024801607047C0465C4001483B
:100550002000001806483421016006480649016061
:100560004160064900200860012292074A607047F6
:1005700000E100E000E400E0404040001CED00E04D
:1005800010B5104A8418531CC2229C4217D301296B
:1005900015D80D4A5060906818409060481E8141FF
:1005A000880011680423994308181060106802211C
:1005B000014311601068012101431160002250B213
:1005C00010BDC046FFFFFFFE10E000E0F0B583B0B5
:1005D00000F0C6FE0290FFF783FF044600F0CAF960
:1005E0000190FFF7B7FF009000F084FD074600F090
:1005F000B5F8064600F056FD05460F490968092280
:1006000052060E4B1A60FF23DB02C80018400C4B49
:1006100018600806400B0B49086080180A490860FA
:100620000298044301980443009804433C43344334
:100630002C4360B203B0F0BDC8000012F0010018F6
:10064000F4010018EC010018F801001870B53B48DF
:1006500001781F2917D80F200840022813D2384EDE
:100660003278022A18D0012A22D0F2B901283AD1D0
:1006700038481E210180364902F000FC3348002131
:100680000170012012E003F075FD2D48002101707A
:100690002E480121017070BDF0200140102922D1A7
:1006A00028480088284902F0F7FB002030701AE043
:1006B000012818D12548002404703470244801789A
:1006C000222911D0272915D02E291BD181784278D3
:1006D0001202511889B21F4A128804F01BFF411EF2
:1006E0008841440022E070BD1A490A88032A0BD9C8
:1006F00003241BE04178401C134A124B04F0B2FE65
:10070000A0B911E0042411E081784078000240187B
:1007100081B20D480B4D2B4604F012FF2988C91CED
:10072000298008B1012401E0022030700649054A01
:10073000204670BC08BC9E4602F024B94D03001848
:100740003A020018E8010018CA010018C602001891
:100750008A010018A8010018704700000C490A68B7
:10076000012002430A600A68022313430B600A68EF
:1007700040F200339A430A60BC49CA688243CA60A7
:10078000CA690243CA610A6802430A6000207047CE
:10079000040300480348006803490140034801601E
:1007A0007047C04660400148FF0700002400001861
:1007B000014800787047C04689010018B0B50D4661
:1007C00004466E201E49085600280CD51D480078A6
:1007D000032808D0FFF7ECFF68433221414364202F
:1007E000B1FBF0F301E032236B43174841888903E2
:1007F000A2689203914204D100210161416001701D
:10080000B0BD8160642B00D864237D24E404B4FB74
:10081000F3F34360914208D902230370891A40F62A
:10082000A072B1FBF2F1C46008E001230370002361
:10083000511A40F6A072B1FBF2F1C3600161B0BD84
:100840002C0400180A05001864030018F0B585B0E0
:100850003720474F0190385604902F2000903E5685
:100860002720029039561F22BD561722BC560F2250
:10087000BB560722BA560392002A12D4002B10D47A
:10088000002C0ED4002D0CD400290AD4002E08D43C
:10089000049A002A05D44822BA5CD20701D100206C
:1008A0001CE07F223046049E16400493019BFE54B8
:1008B0001040009BF8541140029EB955084800268C
:1008C0000670084E012030701540FD771440FC750D
:1008D00004991140F973039B1340FB7105B0F0BDFF
:1008E0008401001815000018B0B52048047A1F23B1
:1008F00025461D4038221E498A5C1340AB4228D150
:100900003923CB5C64095509A54224D1447A9C4221
:1009100021D13A240C5D857AA5421CD13B240C5D83
:10092000C57AA54217D13C240C5D057BA54212D1A6
:100930003D240C5D457BA5420DD13E240C5D857B9D
:10094000A54208D13F240C5DC57BA54203D1002000
:10095000B0BD3923CB5C437202724A8F42818A8FC9
:100960008281C98FC1810120B0BDC046DE0400185C
:10097000900000188F490D48486000208860C860CA
:10098000086148618861C861086228224A628A62F7
:10099000CA6210224A6308224A648864C8640865EF
:1009A000034ACA66C86701220A607047007D0200D8
:1009B000010007007D490A780120022A08D1074A70
:1009C0001268074B1B689A4202D30420087000206B
:1009D000024900220A6002490A607047400200187A
:1009E0003C020018F0B4774D2878E8B16F480478DD
:1009F0006F4A13781D48066801218E4306605BBB71
:100A00001B4B042C13D0022C26D16D4CA6681E6003
:100A100000262E70674D2E606B4D2D685D64254657
:100A2000343520340E4612E0F0BC00F021BA644C9C
:100A3000A6681E6000262E705E4D2E60624D2D68E9
:100A40005D640125DD64254638352434072616709B
:100A500022681A652A681A6502680A430260054816
:100A60000168491C0160F0BC7047C0462000004886
:100A700004800048C8020018E14800210170E248E3
:100A800001704D480168E248416001210A04036891
:100A900013430360026848F2000313430360EA4A09
:100AA000D2690261016042688A4342604148016044
:100AB0001C48006800B100477047C0460B480068FA
:100AC0000104090F0A4A11700A490A68521C0A6097
:100AD000810401D5094900E00749C00400D508494F
:100AE0000868401C086000F021B8C0464C800048EF
:100AF000BC020018A4020018B8020018AC020018CA
:100B0000A8020018BE4800787047C046054A116028
:100B100005490860BE480121016042688A4342607D
:100B20007047C0467C03001880030018B0B5B44875
:100B30000078A8B3B448002101701E480124046065
:100B40001D4A11681D4881640321CB034364BE49DB
:100B5000CD6945658D6945654464856CA5438564AB
:100B60000D6805604D684560164D2C704464856CB9
:100B700025438564846C9C43146012681A43124BAD
:100B80001A60124A9369DB01FCD5CB6813600B69CC
:100B900093604B695360896C0D4A0A408265B0BD11
:100BA00098480168491C0160B0BDC0465D0200184C
:100BB0005F02001800400148F4000018008000485F
:100BC000A06200122C050018F000001800C00048B8
:100BD000FF0FFF0FF0B581B08948007802282CD1B3
:100BE00089480178062965D003292CD0012928D10C
:100BF000864C21680125A943216003210170844EA0
:100C0000F06984490840B2690A40101AF04F3880F0
:100C10000020395EC9083980385EFFF751FC388002
:100C200028043060EC48816A3161C06B3061206813
:100C3000284320608B48056003E0DD480168491CBB
:100C4000016001B0F0BD714A11680125A94311602E
:100C5000062101706E4EF0696E490840B2690A4083
:100C6000111ADB4C61800227E15FC90861807E496F
:100C700008807E480280E05FFFF722FC60802088C9
:100C80007349088060887449088060882188401A08
:100C900060804821D048415EE25F8A422B4600DDF9
:100CA0000023A3712B04336003468A4200DC8AE0F0
:100CB000303389E0554A11680125A94311600721A5
:100CC00001705348C169534A114080691040421A6B
:100CD000BF4EB2800427F25FD208B2804E4A118024
:100CE0004E490880F05FFFF7EBFBB080B0884C49BD
:100CF0000880B0883188401AB080AF480068B14998
:100D0000096888425ED100244648015F325F8A420A
:100D100001DB318801804448015F325F8A4201DC97
:100D20003188018041490A5F0220335E934201DB32
:100D300072880A803E490A5F305E904201DC70880A
:100D400008803C48015FF25F8A4201DBB188018084
:100D50003948015FF25F8A4201DCB188018003F00B
:100D600017FB364908800888354A1388C01A354B66
:100D700018800888108090490868401C0860F05F5F
:100D80004A21954A515E88422EDCB07901282BD148
:100D9000F57130882D49088070884880B088888037
:100DA000CD712B4800882B4908802B4800882B499F
:100DB00008801B4800882A49088077480168491C38
:100DC000016016E0FEE72C331B6833618A4201DDC7
:100DD000443000E04030006830610C490868284326
:100DE0000860204807602CE772480168491C0160D0
:100DF000F47106490868284308601A4803211FE770
:100E00005D020018C00200185F02001820000048B0
:100E100044800048FF7F0000960200189A020018E4
:100E2000EA030018CA030018F4030018CC030018E2
:100E3000F6030018CE030018F80300189C020018EF
:100E40009E020018A0020018A0620012EC03001815
:100E5000E2030018E0030018E6030018E40300189A
:100E6000E8030018180200189402001898020018ED
:100E700080B5134800681C2101400C2910D351484B
:100E80000168491C016003F083FA10490880088852
:100E90000F4A1388C01A0F4B18800888108007E08B
:100EA00008480168491C016007480168491E016043
:100EB000FFF73CFE08480168491C016080BDC04640
:100EC0004C80004890020018C80200181C0200184C
:100ED000200200181C0500182804001870B52E48C0
:100EE000002404602D4804602D4804602D480460EF
:100EF0002D4804602D4804602D4804602D4804608E
:100F000003F046FA2C490C602C4908802C480470E8
:100F10002C480460FFF7B0FD2B4E012535702B489F
:100F200004702B480480448084808471C4713078BC
:100F3000012805D12748006800B1804702203070A1
:100F40006948046524498A6942654564826CAA43FC
:100F500082640A6802604A684260204A15704564EB
:100F6000826C2A4382640322D203836C93431C4C19
:100F70002360236813431B4A13601B4A9369DB01F8
:100F8000FCD5CB6813600B6993604B695360896C27
:100F9000164A0A40826570BD40020018B00200186F
:100FA000B4020018A4020018AC020018A80200182D
:100FB000C00200183C020018D4030018A202001856
:100FC00080010018300200185D0200185F0200184E
:100FD000D803001880030018A06200122C05001826
:100FE000F4000018F000001800C00048FF0FFF0FC9
:100FF00010B5A54C2068000707D420680B490842AB
:1010000002D0FFF77FFD48B110BD02F015F901F0E5
:101010000FFEA06808210143A16010BD02F00CF989
:1010200010BC01BC864601F003BEC0463040000043
:1010300010B501F007FF01F0F7FE0446012001F0B2
:101040000FFF20070DD4200603D015480021018092
:1010500010BD1348018849097D2908D30549491C59
:10106000018003480178012901D10221017010BDDE
:101070000A0500189F0F000080B501F065FF80BCD5
:1010800001BC8646FFF7E2BA04480188491C01808A
:1010900003480188491C01807047C0468802001837
:1010A0008201001810B510490020086048600F4AFE
:1010B0008A60CA600222CA610122D343CC6A1C4002
:1010C000CC620B4CCC62CC620C6B1C400C630623D4
:1010D0000B630B634C6B9C434C634A6307224A636C
:1010E000886405224A6610BD00800048FFFF0000AA
:1010F0000000461001490020086070470080004051
:10110000F0B581B01F4E30781F4C042809D1002162
:101110001E4A204690475D49402201231C4D20462F
:101120001EE00125194A204629469047574F402680
:10113000174C15483946324600962B46A047124CAC
:10114000204640303946403132462B46104EB0479B
:101150002046803080373946009A0A4E2B460C4D87
:10116000A84730780521084209D10021074A2046C6
:101170009047464940220123054D2046A84701B02B
:10118000F0BDC046CC02001800760012B51F00006A
:10119000B11F0000B0B53C4CE068C00708D0206823
:1011A000C00705D002F0E8F9A06801210143A16061
:1011B000E068000708D52068000705D5FFF718FF8D
:1011C000A06808210143A160E068C00509D540F28C
:1011D00000152068284204D0FFF70AFFA0682843C2
:1011E000A060E068000608D52068000605D5FFF776
:1011F000FFFEA06880210143A160E068800509D559
:1012000040F200252068284204D0FFF7F1FEA068D4
:101210002843A060E068800608D52068800605D5D0
:10122000FFF7E6FEA06820210143A160E068C00648
:1012300008D52068C00605D5FFF7DAFEA0681021A2
:101240000143A160E06800040CD548F20005206865
:10125000284207D0E048007B08B102F087F9A06877
:101260002843A060E068C0030CD501200504206875
:10127000284207D0D848007B08B102F071F9A06875
:101280002843A060B0BDC0463C8000482C04001834
:10129000B0B50D4C2068C00708D06068C00705D005
:1012A000FFF73EF9A06801210143A1602068C00555
:1012B00009D540F200156068284204D0FFF72EF9E6
:1012C000A0682843A060B0BD08C0004870B50125E3
:1012D0001C4C2068C0030BD52E046068304207D038
:1012E00000F076F807200004A16881433143A16033
:1012F000206880030BD56E046068304207D0FFF78A
:101300001DF907200004A16881433143A1602068D2
:1013100040030BD5AE046068304207D0FFF73AFABD
:1013200007200004A16881433143A1602068C00701
:1013300007D06068C00704D0FFF70EFAA068284302
:10134000A06070BD6C4001480149002008607047F2
:101350001040014019480168491C01607047C046AF
:101360000549002008600861C867044904220A6032
:1013700001224A627047C0461000004094000040BD
:101380000D4801680322914301603F21090403686D
:101390008B43510459180160110602688A430260A8
:1013A00041680122114043689343591851404160FC
:1013B000024900200860704700070040240500181B
:1013C00002480168012291430160704710E000E08B
:1013D00003480068DF490140E04801607047C046AB
:1013E00058400148F0B58DB03820C14A155C7848A6
:1013F0000572383254784472917802918172D178B2
:101400000191C17216790673577947739179817387
:10141000D2790392C27303460E330C9303460D3305
:101420000B9303460C330A9303460B3309930A309C
:10143000089004A88171477106710199C1700299E1
:101440008170447002950570801CFF2100231D46A9
:1014500004AE765D4E40194677B2FF11682297437D
:1014600076007E404A1C07291146F5D36D1C072DD6
:101470003146EDD1F1B2039A914210D1554900267F
:101480000E7002994D099F4F19213A78A24202D15C
:10149000BA88AA4205D0491E10370029F5D10DB0EF
:1014A000F0BDF968884750B104A84078FE2101409A
:1014B0000629F4D170209049484A0A521EE0802C37
:1014C0000FD0092C2AD1B8680021CAB2930006AC0B
:1014D0001B199B681B788354491CCAB29542F4D8E7
:1014E0000CE0B8680021CAB2930006AC1B199B68D7
:1014F0001B788354491CCAB29542F4D8384804A9D1
:101500000722FEF711FF0028C9D0364801210170DB
:10151000334804A90722FEF734FFC0E77878810733
:1015200018D404A90007BAD588780028B7D1724822
:10153000407B0128B3D1B868002101702A4804A972
:101540000722FEF7F1FE0028A9D0264801210170EC
:101550002548DEE7B868F1B28A0006ABD218926877
:1015600012784254761CF1B28D42F4D81C4804A97A
:101570000722FEF7D9FE002891D004A8407807285A
:1015800013D00628C1D190205B490A5C521C0A5432
:10159000D0B2CD234343D80A0A234343D01AC0B262
:1015A000081804A98978922210E0912052490A5C17
:1015B000521C0A54D0B2CD234343D80A0A234343D2
:1015C000D01AC0B2081804A989789C2281549CE7DB
:1015D000DE040018800100182C04001850BC000024
:1015E000B2010018CC020018B9010018F0B585B09E
:1015F00003A8002303713E4E3146583148783D4AD6
:1016000010708C785470CD78957003933A494A7B6A
:10161000012A0FD1498981420CD1029119273948F9
:1016200029460278A24202D18288AA4217D01030FD
:101630007F1EF6D131480078411E88413049097833
:101640000143C80709D00A201C4602F081FC22464B
:1016500020462B490A702949087005B0F0BD019158
:1016600029498D704C70029A0A700199012D00D899
:1016700001210193491E89B2042900D304214A1C87
:10168000816803A80090FEF77CFE50200299315437
:1016900035201E490A5C022313430B545036B570A3
:1016A0007470009AD078184CA0719178617152785A
:1016B0002271039BE370B07171713271F370E07944
:1016C000F071781E394681410C480078401A411E5D
:1016D00088410B4909780143C807019BBDD0002F01
:1016E000B1D00A2002F03AFC019A0120B1E7C046CD
:1016F00090000018140400182C040018140000189E
:1017000034020018485C0012D4040018F0020018DB
:1017100038B1032807D8022812D0012812D10F4867
:1017200011E010480FE0092807D109480168C901F4
:101730000BD401680748084070470120C043704738
:10174000054800E006480068704700207047C04622
:101750001CC00048FF0700002000001828000018E7
:10176000240000181C0000180548016804220A43E0
:1017700002600448016801220A43026020BF7047EA
:1017800010ED00E0104000405A490020086041F28E
:1017900000328A602822CA60886370470020704740
:1017A00010B501460078012200236428104600D8B5
:1017B00018464C7889780902091940F2E834A142A8
:1017C00000D81A46104310BD002070472821C94395
:1017D00000786538884201D30020704701207047A7
:1017E00000782F30C0B2CF2801D3002070470120ED
:1017F000704700787F210140642901D8002070479C
:10180000012070470078401E0D2804D808480121A7
:1018100001700020704701207047C0460078012801
:1018200004D803480121017000207047012070474F
:10183000CD0200180078012801D80020704701204F
:101840007047000080B5FFF71FFC04480168491C81
:10185000016080BC01BC8646FFF77CBD20050018F6
:10186000F0B581B0204E30684001204D284623D588
:101870003068800528461FD030688001800D2846DA
:101880001AD01B4F306838403168090C3940884203
:10189000284611D230683840144A00242146234695
:1018A000FEF7A2FC32689201D20D10433268120C8E
:1018B0003A402346FEF7B0FC0E4A116892680723AF
:1018C00013405A1E062A03D892000BA39A5800E030
:1018D0000122490700D0054650084019B0FBF2F03C
:1018E0000C49086001B0F0BD10400140005A62028E
:1018F000FF03000000400040020000000300000061
:1019000004000000060000000800000010000000B5
:10191000140000001800001880B50920400608498E
:101920000860FFF711FDFFF72FFF002140F2E830BC
:10193000FEF726FE80BC01BC8646FFF791BFC0467D
:1019400008ED00E0F0B5BF484089012814D0102808
:1019500012D0022854D1BC4A90790F2850D8BB49E4
:101960008B797F242340591E8B41D17921404C1E15
:10197000642C18D3002417E0E94A90780F283FD848
:10198000E8498B797F242340591E8B41D17821402F
:101990004C1E642C01D3002400E001242343012BBE
:1019A0002ED1531C04E00124234329D0531D121DC2
:1019B000DD4C0125257014787F262640DB4A977878
:1019C00080252F40BE1996705679F02737400609BA
:1019D000BE19567196792E40711891711179C026F1
:1019E0000E400007800E19788B09181880191071A5
:1019F000D0782840E3098906490EC9180818D07024
:101A0000F0BDC046F0B5C5484089C11E012958D86F
:101A1000C349C0070FD1887B0F2852D8C14A937998
:101A20007F2423405A1E9341CA7B2240541E642CBB
:101A300011D3002410E0887A0F2842D8B94A93794C
:101A40007F2423405A1E9341CA7A2240541E642C9C
:101A500008D3002407E00124234332D00B460D3382
:101A60000C3106E001242343012B2AD10B46093314
:101A70000831F24C012525700C787F262640EE496E
:101A80008F7880252F40BE198E704E79F027374011
:101A90000609BE194E718E792E40B2188A710A79E4
:101AA000C02616400007800E1A789309181880196E
:101AB0000871C8782840E3099206520ED21810180F
:101AC000C870F0BDF0B5D9484089411F012958D8E8
:101AD000D749C0070FD1887D0F2852D8D54A9379AE
:101AE0007F2423405A1E9341CA7D2240541E642CF9
:101AF00011D3002410E0887C0F2842D8CD4A937976
:101B00007F2423405A1E9341CA7C2240541E642CD9
:101B100008D3002407E00124234332D00B461533B9
:101B2000143106E001242343012B2AD10B46113343
:101B30001031C24C012525700C787F262640F749CC
:101B40008F7880252F40BE198E704E79F027374050
:101B50000609BE194E718E792E40B2188A710A7923
:101B6000C02616400007800E1A78930918188019AD
:101B70000871C8782840E3099206520ED21810184E
:101B8000C870F0BDF0B5E1484089C11F012958D89F
:101B9000DF49C0070FD1887F0F2852D8DD4A9379DB
:101BA0007F2423405A1E9341CA7F2240541E642C36
:101BB00011D3002410E0887E0F2842D8D54A9379AB
:101BC0007F2423405A1E9341CA7E2240541E642C17
:101BD00008D3002407E00124234332D00B461D33F1
:101BE0001C3106E001242343012B2AD10B46193373
:101BF0001831C94C012525700C787F262640C7492D
:101C00008F7880252F40BE198E704E79F02737408F
:101C10000609BE194E718E792E40B2188A710A7962
:101C2000C02616400007800E1A78930918188019EC
:101C30000871C8782840E3099206520ED21810188D
:101C4000C870F0BD2C04001890000018DE040018C5
:101C5000F0B5CD4840890146093901295CD8C00753
:101C600012D12620AA4B185C0F2855D8A94989798A
:101C70007F2421404A1E914127229A5C2240541E13
:101C8000642C15D3002414E02220A149085C0F28FD
:101C900042D8A04A94797F252C40621E94410B467D
:101CA0002033DA782A40551E642D08D3002507E03A
:101CB0000124214330D019462531243304E0012585
:101CC0002C43012C28D12131934C012525701C78FF
:101CD0007F262640914B9F7880252F40BE199E700D
:101CE0005E79F02737400609BE195E719E792E4055
:101CF000B2189A711A79C02616400007800E09782A
:101D00008A09101880191871D8782840E2098906C4
:101D1000490E89180818D870F0BDC0462C04001868
:101D200090000018DE04001815000018F4040018D4
:101D3000F0B5DB48408901460B39012974D8C0074A
:101D400012D12E20724A105C0F286DD871498C79FF
:101D50007F231C40611E8C412F21515C19404D1E78
:101D6000642D14D3002513E02A20694A105C0F2843
:101D70005AD868498C797F231C40611E8C412B21E5
:101D8000515C19404D1E642D1BD300251AE001251E
:101D90002C43012C48D1614CA5788026354028324F
:101DA00017793B40EB18A370E3783340FD09527973
:101DB0009606760E7519EB18E37003079B0E9209D1
:101DC0001DE001252C43012C2ED12824155D2B402C
:101DD000524CA67880273E40F318A370E3783B402E
:101DE000ED09164628367678B606760E7519EB1884
:101DF000E370203253789B0992781207920E464C7A
:101E0000012525701343454A1479C02525405B19E7
:101E100013715379F0241C400009201850719079F7
:101E20008023034058189071F0BDC0462C04001860
:101E300090000018DE040018F404001815000018C3
:101E4000F0B59748408901460D3901295CD8C00793
:101E500012D136202E4B185C0F2855D82D49897980
:101E60007F2421404A1E914137229A5C2240541E11
:101E7000642C15D3002414E032202549085C0F2877
:101E800042D8244A94797F252C40621E94410B4607
:101E90003033DA782A40551E642D08D3002507E038
:101EA0000124214330D019463531343304E0012573
:101EB0002C43012C28D13131174C012525701C7879
:101EC0007F262640154B9F7880252F40BE199E7097
:101ED0005E79F02737400609BE195E719E792E4063
:101EE000B2189A711A79C02616400007800E097838
:101EF0008A09101880191871D8782840E2098906D3
:101F0000490E89180818D870F0BDC0462C04001876
:101F100090000018DE04001815000018F4040018E2
:101F2000F0B4184840F2D611C82202604160702116
:101F3000DA4A515CC9B219231E464E43134C614321
:101F4000C90C0A252F464F43F61BB6B2042E00D902
:101F5000491C7126925DD2B253435443E20C55435F
:101F60005B1B9BB2042B00D9521C83688B4204D1AB
:101F7000C368934201D1F0BC70478160C260F0BC7D
:101F800003F096BD080200182C0400180500140088
:101F9000F0B501463B4805783B4806783B48048845
:101FA0003B4A172701201388A34205D193781E428C
:101FB00002D0D3781D4204D17F1E0C32002FF2D103
:101FC000F0BD012E15D1334D286880B13249087813
:101FD00078B109782D6896880027B74203D29068B7
:101FE000C05DE85508467F1C8742F6D301E0908823
:101FF00008800A2C17D1274C216800200029DFD047
:10200000254B19780029DBD01B782468958800209F
:102010000646AE4203D2A15D9768B9551946761CB3
:102020008E42F6D3CCE71848007802281AD1002156
:102030001A484356002B15D4164D2B6893B1164CF5
:1020400023785BB124782D689688B14203D26B5C0B
:1020500097687B542346491C9942F6D3017809B905
:10206000012101708D490879012809D110200882C9
:10207000002008710122CA810A7308490A70F0BD64
:102080000020F0BD7C0200187802001874020018CD
:10209000546300128402001880020018CC02001859
:1020A0002C040018F0B583B015460C460290774E0C
:1020B000B07D08B1B78A09E00120B075142130461F
:1020C000FEF7C7F902F064F90746B08270787049EC
:1020D0000A78032A09D1022807D80020A0602046E8
:1020E0002946FEF76BFB03200FE0C97801290DD1CB
:1020F00002280BD820462946FEF760FB6548007C85
:10210000022801D0022000E001207070307878B100
:102110000299C91B0128019489B20BD172684A4304
:10212000F1685218D10C7C2912D95B49491C0BE08B
:102130007088A5E073684B43F568EA1A00219D4258
:1021400000D20A469D4203D80022726032800A46BD
:10215000F2607521514B5F5C28256F4350498F60B9
:102160007827DF5D6F430F617B27DF5D6F438F61F2
:102170007E27DF5D6F430F627727DF5DBF02762426
:102180001C5DA400E419CC607A241C5DA4027927AC
:10219000DF5DBF003C194C617D241C5DA4027C27DF
:1021A000DF5DBF003C19CC6181241C5D6C438C62F7
:1021B00084241C5D6C430C6387241C5D6C438C631E
:1021C00080241C5DA4027F27DF5DBF003C194C62A8
:1021D00083241C5DA4028227DF5DBF003C19CC6212
:1021E00086241C5DA4028527DF5DBF003C194C637B
:1021F00089241C5DA4028827DF5DBF003C19CC63E5
:102200008A241C5D6C430C648C241C5DA4028B2707
:10221000DF5DBF003C194C648D241C5D6C438F2531
:102220005D5DAD028E27DB5D9B005B198C64CB642A
:10223000920B00256BB2DC000C596D1C9442F9D353
:10224000012B00DC0123DB00CC186568083C276803
:1022500064682D1BC958C91BD21B124B5A43B2FBD1
:10226000F1F16943B1FBF3F10919012801D00E48DE
:102270000918019C30694843B1684018800B708090
:102280000299B18280B2A06003B0F0BD640300186F
:102290000A050018DE040018FFFFE7032C040018ED
:1022A000340000181027000060F0FF3FF0B593B035
:1022B00000248C804C8009910C804188454A0C9107
:1022C0004A430A90008844490D9041438818434985
:1022D00040180B9042480F90424F4348434D0E9494
:1022E0002B4602C80D9A514304CF0C9E72435118DD
:1022F0000F9E04CE0F9689183D4A38324A430B9EF2
:10230000B2189A4200DB2946002A03D50E9D6519B2
:10231000AD1C0E959A4200DB1A46641C032C0D4638
:102320001346DED10E9A10060FD0D1B204290FD871
:1023300001290DD02F48042914D0032917D10122D7
:102340002D4B2E492E482FA415E00C9D0D9B73E0BC
:10235000052937D0062939D101208104244D39358A
:102360003C2369E00222244B244928A403E00022F4
:1023700028A323492AA4A0CB0D9B5D1B2668636874
:1023800075430C9CE41B5C4365196E430C6804D4D4
:1023900048688968A31485144EE034190668B4426D
:1023A00046DD90000F4A12586B434968C9188D14D6
:1023B0006A430D490958A31459435118084A105843
:1023C000091839E018495825C42335E0084B9D1DEC
:1023D000164931E0E51AFDFF53890100A9B22BFD32
:1023E000486300123C63001230630012FFFFFF7F5E
:1023F000050200000C63001224630012186300122F
:1024000000630012300100009C010000FD0100008B
:10241000C7FFFFFFC40000005800000028010000B3
:102420008A00000013FEFFFF682F0100BE84020037
:1024300042688168B31495140A9C65802380A06863
:1024400048438014A06010A9204603F0BBFAA0689E
:102450000C4908600004072100F024FB0146012517
:1024600028040F9000F01EFB0427E25F0649514349
:10247000CA0F89148E180022044B11460D950C903A
:102480000B9705E01805001867660000D85D00127C
:102490009C5EB44203DC14241C5FB44204DC491C7F
:1024A00014330729F4D1002189B214224A43C849C0
:1024B0008B5E8D18A98AC91A0FB20221695E162295
:1024C000AA5E521A120192FBF7F212B2F61A724386
:1024D0001009081800B2F7490968414340F2E83092
:1024E00091FBF0F00004F44900F07AFAF34C20601C
:1024F0000F21C9030E9100F0D5FA20600820285E54
:102500001C21695E091A090191FBF7F109B27143B7
:1025100009094018EA49098840180004E6490C46B0
:1025200000F05EFAE74908600A20285E1E21695E15
:10253000091A090191FBF7F109B271430909401821
:10254000E149098840180004214600F049FADF49B2
:1025500008600B98285E1821695E091A090191FB31
:10256000F7F109B271430909401800B2F14909684D
:10257000414340F2E83091FBF0F00004214600F0C6
:102580002FFAD34C20600E9900F08CFA20600C20BA
:10259000285E2021695E091A090191FBF7F109B251
:1025A000714309094018E249098840180004C24CE7
:1025B000214600F015FAC74908600E20285E222146
:1025C000695E091A090191FBF7F109B27143090922
:1025D0004018D649098840180004214600F000FA46
:1025E000BD4908600620285E1A21695E091A0901A2
:1025F00091FBF7F109B271430909401800B2C549CE
:102600000968414340F2E83091FBF0F000042146B4
:1026100000F0E6F9B14C20600E9900F043FA20601A
:102620001020285E2421695E091A090191FBF7F147
:1026300009B2714309094018B549098840180004D6
:102640009D4900F0CDF9A64908601220285E262198
:10265000695E091A090191FBF7F109B27143090991
:102660004018AA49098840180004934900F0B8F9B5
:1026700004469B4800680B9098480068109E119F84
:10268000214600F0ADF90E903C1B0197914800687F
:102690000490914805688E480068294600F0A0F92A
:1026A000089088480068059088480168029183482E
:1026B000006800F095F907900B98301A0390ED1B15
:1026C000294600F0EFF906900598871B3846294601
:1026D00000F0E8F90B902046394600F0E3F9059048
:1026E0000498851B2846214600F0DCF9074602982D
:1026F0000199461A2846314600F0D4F90490304634
:10270000039900F0CFF903900E9D2846089E3146AC
:1027100000F0C8F90290079C2046294600F0C2F953
:1027200005460698C71B2046314600F0BBF9064611
:102730000298394600F0B6F90446089005980399C6
:10274000411A284600F0AEF9074607900B98049905
:10275000411A304600F0A6F90E900A98C068C10FE1
:102760004018400801040C9800F09CF95D4900F005
:1027700099F940F2004100F095F905464F4800688C
:10278000214600F08FF9064651480068394600F0AE
:1027900089F98619514800680E9C214600F082F99B
:1027A0003118284600F01CF906460898314600F01A
:1027B00079F907460798314600F074F90546204636
:1027C000314600F06FF904460F98874203DB01E0C1
:1027D000D85D00120746F81787437D200606384665
:1027E000314600F05FF9404900280E9101D448F2CB
:1027F00000010818C117090C40180F998D4200DB21
:102800000D460714E81785432846314600F04AF97B
:102810000F9905468C4200DB0C46E01784432046A6
:10282000314600F03FF90A99C988C9094F433F1260
:102830006E222E4B9B5C7F221A40574364242C4B04
:102840002C4E9F42334603DC97FBF4F3DF17BB4368
:10285000099F3B80002D244B01D448F200035B19F3
:10286000DD172D0C5B191B144B431D125543204BD8
:102870009D42334603DC95FBF4F3DD17AB437B80CD
:10288000002802D448F200030E930E9B1818C317B9
:102890001B0CC018001441430812424314488242E2
:1028A0000D9803DC92FBF4F6F1178E43BE8013B053
:1028B000F0BDC04624040018000010277002001864
:1028C0001C04001868020018200400186C0200188C
:1028D0005802001850020018540200184C02001848
:1028E000480200181F0500000080FFFF2C0400189C
:1028F000FFFF3100FF7F0000044B1980044908806E
:10290000142092FBF0F00349086070472802001879
:10291000240200182C020018044B19800449088076
:10292000142092FBF0F00349086070475803001828
:10293000540300185C030018044B198004490880F4
:10294000142092FBF0F0034908607047200400183F
:102950001C0400182404001810B5C10842094A409C
:1029600041084A4003095A40D20184084C405C4067
:102970004440E107490E891880224A400243D0B200
:1029800010BD0000A8B1032313800A4A022313706C
:10299000AA224A710A71CA707F220A70042808D8D4
:1029A000401EC0B2C000044AC2408A70034AC240FE
:1029B0004A7070473A02001831311311222E222E2C
:1029C00010B5064C2078FF2807D000F035FA2078A3
:1029D00010BC02BC8E4602F03BBB10BD1E020018AC
:1029E000F0B583B069B1C317019002465A40D41ABA
:1029F000C8170A464240171A380D029104D1002622
:102A000010E00120C0074BE0780C401CB4FBF0F64E
:102A1000002130463A460B46FDF7E6FBC903400C61
:102A20004018241A380701D011200AE011213A4633
:102A3000081F17091206120F03D1072901463A464B
:102A4000F6D82CB3002823D40021220F23460A46AF
:102A500009D10A4625462B01121D2D0E1D46FAD01E
:102A600001E05B00521C002BFBD5D2B29042034622
:102A700000DB1346C21A9C40B4FBF7F03B464343CD
:102A800090408619E01A03D04400501E002ADCDC76
:102A9000029901984140701C4008002900D540422D
:102AA00003B0F0BDB0B582B20B1414465C43001401
:102AB00089B205464D432C192514240458434A4332
:102AC000A2186841C117511848F20003C91A91426F
:102AD00000D9401E0004090C4018401CB0BD000085
:102AE00080B5E5480068DD48016804220A43FB21FF
:102AF0008A4302600B48016B05220A4302218A4384
:102B000002630168062291430160074801680122BF
:102B10000A430260FEF754FCFEF726FE20BF20BFEA
:102B200020BF80BD34800048B80000400B2805D885
:102B300040B2800002A108580D4901807047C0468C
:102B40008A0300188C0300188E03001890030018E5
:102B50009203001894030018960300189A030018B3
:102B60009C030018980300188603001888030018B7
:102B7000FFFF000070B5094C207868B1084D287837
:102B8000401C2870C0B2022806D38D48002606706B
:102B900000F04EFD2E70267070BDC046A8030018D0
:102BA000A9030018014800787047C046C901001801
:102BB000B0B5884C2078800710D5854D2878401C0A
:102BC0002870C0B2052809D300F0F2FD7C4800212E
:102BD000017029702078FD2101402170B0BDC046F0
:102BE00010B512480246083A1168890440F20013F1
:102BF00040F6000105D414680C4202D112681A4252
:102C000013D042F2000204681C430460036880246D
:102C10001C430460036840F200241C430460036802
:102C20000B43036001681143016010BD44800048FC
:102C300080B509480178CA0704D0FE22114001700E
:102C400000F00CF87448007820B180BC01BC8646C6
:102C500000F0CAB880BDC046AD030018F0B581B021
:102C6000574C207806286ED8810001A251188F4653
:102C700000F0A3B800F00AB800F014B800F01EB8D5
:102C800000F036B800F05FB800F065B84E48007844
:102C9000552800D091E0FDF735FF002800D18CE0E9
:102CA00002206EE05C4800210170217046480078E7
:102CB00001B0F0BC02BC8E4601F0C2B9444900200C
:102CC000087044490A780E2313430B7043490A786D
:102CD000434B1E78B31A514DEF183B4B1B787B705A
:102CE000964241D13F4E3678142E3FD128783DE0B0
:102CF0003548017849484172494A1378FF255D40BB
:102D000015808D423FD141787F2919D181780629DC
:102D100016D1C178B52913D10179FF2910D1417994
:102D20007F290DD1817901290AD1C179022907D1E1
:102D3000007AFF2804D12848007B08B1FEF7CEF8BE
:102D400001F014F921E00020207021490870214889
:102D50000178FD222FE01B4800781B490978814249
:102D60001BD101F0D1F91FE02D480088521E0A70D6
:102D7000C018010A0818C0B22949088010061CD1E1
:102D80000420207019E000F013FD0020207010498D
:102D9000087010480178F1220DE00C480178FC22FF
:102DA0000A40027000F004FD0020207008490870FD
:102DB00008480178F9220A40027001B0F0BDC0460F
:102DC000AF030018C4030018AC030018AA030018CE
:102DD000AB030018BF0300182C04001817050018D7
:102DE0002C030018280500180B480178491E0170B3
:102DF000CAB20A48801841780948038859188BB22A
:102E00001B0A5918CBB2038002B17047002202801E
:102E1000C8430449087070479E030018B4030018A3
:102E200084030018C60300180249088800220A809B
:102E30007047C0463803001880B500F027FF002017
:102E400080BD000010B50C48006804490A680423DE
:102E50001A43FB24A2430A60184010BD80E100E041
:102E600048B1054801680268FB239A43C9B211437F
:102E700004220A430260704700E100E010B5DB4A1B
:102E800013781C0706D0DF4C2060DF480160F0207B
:102E90000340137010BDC04670B5D04A1278520777
:102EA0000AD4D24A1378040B10D01F2B09D80F2054
:102EB00003402033137004E01F4800210160C9481B
:102EC0000180C9480178F5220A4033E01A4C21609C
:102ED0000F2423401370C64A1378184A137007282A
:102EE00015D39070030A10241C4354700023CC5C4B
:102EF000D518EC705B1C052BF9D1114905220A800D
:102F0000104900220A70401FB64908800EE0507038
:102F10000023FF248342254600D2CD5CD618B5702D
:102F20005B1C062BF6D1AF4800210180AE4801782A
:102F30000A220A43027070BD44030018E802001818
:102F400050030018DD02001880B500F009F8FFF703
:102F50002FFEFFF70FFE80BC01BC8646FFF740BE88
:102F6000F0B585B09D490E78F00700D106E19C4888
:102F7000002505809B480580FE20304000900870A9
:102F800099490A78F520049210400870974807780C
:102F90000F21029703910F403946103101910170C2
:102FA0009348037893490878C31A5A425A41044611
:102FB0007F3C634263410C46134303D18C498A79B9
:102FC00090420ED162780F2A0BD8A278B02A08D38B
:102FD000B72A06D8FA2006408048067000F096FC12
:102FE000CCE0002B00D1C2E06178F0230A461A4001
:102FF000202A3AD0102A53D0002A00D0B7E00E463B
:1030000080480168002900D1B1E07F480268002AA9
:1030100000D1ACE0039806403746F01F1E4605235A
:10302000DB43984200D2A2E00888B84200D29EE07A
:103030000F80019B4FB16019807850556D1CA8B26C
:103040000B788342F7D869480378180703D13340D7
:10305000581C66490870644A1078FA2101401170C2
:103060005E4A1078FB2101405BE00D460499C907D8
:103070007DD01A46604909788842049B2AD103987A
:1030800005401809854225D15C49088807284AD39C
:103090002546801F0880F4200340113306204DE0B0
:1030A000A0780A07120D1018072860D3554A136834
:1030B000002B5CD0544A1268002A58D025461C8840
:1030C000844212D2002048490870122047490870F3
:1030D0002C464CE002980007400F02D114204349CF
:1030E000087013404048037041E00424009E2643CA
:1030F0003A490E70188000212C466318DB7853542F
:10310000491C0529F9D13E4905220A8021783A4A0D
:103110001170401F39490880334A10780A21014054
:103120001531117023E000230B80FA210E402B494A
:103130000E7017B911212D4A117025462A490B70BE
:103140002F490B88C2182F4C24682488A2422C4691
:103150000DD8264648B12C4C2468E318B41C2578B9
:103160001D70641C5B1C401EF9D10A803446207817
:1031700020B92648017808220A4302701A480178CB
:103180000A07920F24D0164A13885B1C13809AB248
:103190001F4B9A421FD308220A400AD0134A1378C1
:1031A0001F2B03D80F24234050331370F5221140F6
:1031B00001704A070FD50D4A13781C07640F03D11D
:1031C000F0242340DB1C1370FA221140017002E04E
:1031D00003480021018005B0F0BDC0463703001848
:1031E0004E0300183A030018520300184D0300184C
:1031F00030030018E00200184C0300184A030018BE
:1032000048030018400300183C0300183803001856
:103210000E0200000748024901604160816070476A
:10322000010101010B2801D9002070470149085C08
:103230007047C046D0020018F0B583B0FFF702FE19
:103240009A4C2080C44DA86AA96AEF6B6A6C984BAF
:103250001A436A64EA4D2870964E3078FB22024089
:103260008809042102910840801830702088FFF7F7
:10327000F7FD302038402F4600D089E0397800290A
:1032800000D085E030784007B34C00D585E0FDF7ED
:1032900039FC002800D080E0DE4900200190087051
:1032A000E14801270770FFF7CDFD80490880A06C39
:1032B00020210843A064A06C10231843A064206B55
:1032C000062290432063F843226B02402263226B64
:1032D0003A432263626C764E32436264E26A024091
:1032E000E2622268029DAA43226022683A43226079
:1032F0000222D243256815402560256808262E4302
:10330000266065680E26B543656065681D43656087
:1033100063680340636063688025AB4363606368F0
:1033200040251D43656063688B436360E3686449BF
:103330000B40E360FF23DB43E5681D40E560A56CBF
:103340003D43A564A56C1540A564A5680D40A56026
:10335000A1681940A160616C01406164606C10401B
:103360006064606C524908436064019DA94805701F
:103370004E480088FFF774FD00F01AFAAB4807705A
:10338000A5480570A6480178FD220A40027080E039
:103390001028714C7DD020287BD0A44D297830781E
:1033A00042072AD4032916D399480178FC220A40FF
:1033B0000270414800780B2806D8052141433F4858
:1033C0004018C078C00604D49548017808220A4302
:1033D000027000F0EDF9FDF795FB002859D00020B0
:1033E00028708D4908708E480178FD220A400270CD
:1033F000387800284DD1012036E0A1B3052935D118
:10340000824A10783978814234D181480178032387
:103410000E461E40022E0CD1666AFF27BE43794F2E
:103420003F78F619666206262E70FC263140017040
:1034300017700B40012B2CD1784B9E7A9E19767811
:103440001670626AFF27BA439219626205222A70D7
:103450009A7A521C9A726C4A13785B1E13701A0681
:1034600012D0012211E00020287012E0012108434F
:1034700030700EE00020287065480178FC220A4078
:10348000027000F095F904E00222FC231940511863
:103490000170206B012188432063206B0843206367
:1034A000606CB4490843606403B0F0BD2E0300189B
:1034B00030400000AD0300182D030018F002001882
:1034C000FF00FFFF70B5584A1078052837D1A7488C
:1034D0000168042399430160836C01218B43836459
:1034E00003680824A3430360002313708368FF2448
:1034F000A3438468E4B2E418184B1C801C88A40819
:103500001C801C881F252D04C66AAE43E406240FC8
:103510002404A419C4621C8864091C801C88742CAF
:1035200011D31C88902C0ED8E54A022414701A88F6
:10353000C36A8F4C1C4052051219C26208E0107811
:10354000401C107070BD07231370324A03231370A0
:10355000C26A0A43C26270BD00800048B00300180E
:10356000012000040B490860FDF7A8BA094848F299
:1035700000010160FDF72EBB0648012101600648ED
:10358000007820B10548007B18B1FDF72BBAFFF792
:1035900099BF7047448000485D0200182C04001851
:1035A000B0B5174800240470804804707E48047049
:1035B000C9480470C1480470C8480470C948047000
:1035C00014480470CF480470C0480480C148047097
:1035D000BD480460446004818472CB4D4020287053
:1035E000104801781C220A40027000F021F80E48B1
:1035F0000470C34804702878BF2101402970B0BD11
:10360000AC030018C6030018C0030018C403001858
:10361000AA030018A9030018AB030018B40300188C
:10362000BF030018AD030018A8030018AF0300186B
:10363000F0B585B04D480021C1610125EA43C1695B
:10364000114013460092C161C169022204921143E4
:10365000C161C16A70229143C1621F210904C26A1B
:103660008A430321039149045118C162C16A404A47
:103670000A40412189055118C162C16A2943C162CA
:10368000016B294301630621C943026B0A400263AF
:10369000826C1024019422438264826C2024029460
:1036A00022438264446C334A14434464046B0C40E8
:1036B0000463016B19400163016B29430163416C91
:1036C00011434164C16908231943C1612A4C22682E
:1036D000FB27FF4321683940D2B20A4304210A4341
:1036E0002260826C1A438264826C8A438264234A19
:1036F00016680E433E401660039A9205204E3468C9
:103700009443346042680E24A24342604268019CA4
:10371000224342604268009E3240426042688024F8
:10372000A243426042684024144344604268029CC1
:10373000A243426002682A430260049AD2430468AA
:103740001440046004689C430460836C33408364C9
:10375000836C13408364084B18681A683A40C0B2FF
:1037600010430843186005B0F0BDC0460080004813
:10377000FFFF1F003040000000E100E000E200E039
:1037800000E400E0084A11704E4A117007490870C1
:103790005B48032101705B48002101705A480178A1
:1037A00002220A4302707047170500182805001806
:1037B00070B5FFF747FB4649088053490A7813075D
:1037C0009B0F17D040230F4CE55C80262E43E65418
:1037D0002B230D4CE55C02262E43E6540B4B5D7803
:1037E0000B4C24785C701C780DB104252C4301250A
:1037F00025431D70F3231A400A7070BC02BC8E462C
:10380000FFF72EBB90000018F002001838030018D4
:10381000DC020018F0B581B014460D4627490A7045
:10382000374905220A7027490C70274F142801D008
:10383000002000E03878C0B2244E3080FFF702FB51
:10384000234908803CB1791C2A780A70641E6D1CDB
:10385000491C002CF8D1FFF703FB184C2078401EC0
:103860001C490870C1B2781840783288101882B2AA
:10387000120A1018C2B2328011B9C043164908703A
:1038800078781649087016490A68FF239A43101879
:1038900008601D48017804220A4302700120B872B2
:1038A0002178491E2170090600D102200D490A78AD
:1038B000FC2313401818087001B0F0BDC0030018B5
:1038C000AF0300182C030018B40300188403001879
:1038D0002E0300189E030018C6030018C403001826
:1038E00024800048AA0300180548002101700548FB
:1038F000017005480178FD220A4002707047C046F9
:10390000AF030018AB030018BF030018F0B585B073
:10391000CF4EB078B038052800D95AE1810001A215
:1039200051188F4600F00AB800F03CB800F084B897
:1039300000F04FB900F0C6B800F0D0B8C54DA87976
:1039400031780A1A531E9A417F394B1E9941114210
:1039500000D03EE17178062900D03AE13179F27861
:103960006B789A4202D1AB78994205D0FF2A00D0F9
:103970002FE17F2900D02CE1B1797279EB789A425E
:1039800002D12B79994205D0FF2A00D021E1FF29ED
:1039900000D01EE1F1792970A02900D0E6E00021D5
:1039A000F022ECE0AB480278317804928A1A531E78
:1039B0009A417F394B1E9941114200D009E171783B
:1039C000062900D005E13179F27843789A4202D194
:1039D0008078814205D0FF2A00D0FAE07F2900D00C
:1039E000F7E0B079019074790025A74A9A49FF273A
:1039F0001220B12303937F2302930090565DA642C9
:103A00000AD15619737810462246019CA3421446E7
:103A10000246009800D1BBE0CF718F714F710871E1
:103A2000039BCB70029B8B7003234B70049B0B702A
:103A30006D1D3C2DE2D1C7E03178864882799142F4
:103A400003D102788A4200D0C3E07178062900D001
:103A5000BFE07279417833798B4202D18478A242F7
:103A600005D0FF2B00D0B4E07F2A00D0B1E0F3797D
:103A7000C278B479944202D10579AB4205D0FF2CCB
:103A800000D0A6E0FF2B00D0A3E0F4782346103B43
:103A9000102B00D39FE001786F4801700B2B00D9E9
:103AA00085E0F221817004214170FF21817105229E
:103AB0005A43754B9C5CC4709A1853780371927882
:103AC00042717FE0307863498A7990423BD109782E
:103AD00081427ED17178062939D07AE06049087B2D
:103AE000002876D030787F2873D17078062870D17E
:103AF000F078FF286DD130797F286AD159480025A8
:103B00000570B079022864D17079042873D0032835
:103B10007ED002285DD155480570FCF74BFF002888
:103B200057D15848047A20460F38C0B24008792847
:103B300000D21024E0B201F08BFA4F48012101704D
:103B40004E48047045E07078062842D10878424912
:103B5000FF22CA718A714A7112220A71B422CA7094
:103B60007F228A7003224A7008702DE06A20E44A9E
:103B7000115400F0E3FCA879B27840320121F14BF6
:103B80009A7001225A70187036480170D81C09E0EA
:103B9000F12088700120487004980870EA48C079C4
:103BA000B070C81C0521FF22FCF72CFC0CE0FF21A3
:103BB0008171417112220271B222C2707F22827021
:103BC00003224270DF48C171244801780A220A4367
:103BD000027005B0F0BD5CBBDA4BD970F221997070
:103BE000062159705A71017819708178197101791B
:103BF00099714179E6E7FCF73FFF1B48012101700D
:103C00001A48052202701A4801701A480170E0E74C
:103C1000194C20780128DCD118480078088201F07E
:103C200017FA124805701648042101702570D0E774
:103C3000C44AFF219171517112231371B223D370C1
:103C40007F2393700323537000781070BAE7C04647
:103C5000E002001830030018E802001852030018B0
:103C60002C040018800100188401001800000018BE
:103C7000CD02001801000018AE0300181E02001843
:103C8000CC020018B4030018F0020018F0B591B08F
:103C9000FFF786FCFFF7BEFA00F06CFA96480025A5
:103CA0000580FEF77FFF954C2070FEF77BFFA0712B
:103CB000DB48FF210170DC480570DA480580DE48EA
:103CC0000570DA480580DA48057065208C49085C83
:103CD000607065314878A0708878E070C87820718D
:103CE00008796071874800780290874ED34C8748E6
:103CF0000A9087481090874809908748089087481D
:103D00000F90874807908748069087480590874816
:103D1000049087480E9087480D9087480C908748FC
:103D20000B9087480390009504200190C543029AA8
:103D3000D0B2431E0F2B53D8990001A779188F4694
:103D400000F01EB800F05DB800F020B800F060B8D8
:103D500000F065B800F021B800F068B800F06DB868
:103D600000F072B800F077B800F01EB800F023B889
:103D700000F028B800F02DB800F032B800F072B8AA
:103D80006019711949794171012271E06019109926
:103D900049194979417103226AE060190F9949195B
:103DA00049794171062263E060190E9949194979F0
:103DB00041710B225CE060190D99491949794171F3
:103DC0000C2255E060190C994919497941710D226D
:103DD0004EE060190B994919497941710E2247E06B
:103DE000611973195B794B712821DF4F7A54283799
:103DF00000217970FEF7B0FDB87042480278029257
:103E000036E060190A9949194979417102222FE077
:103E100060190999491949794171019A28E0601995
:103E20000899491949794171052221E060190799DA
:103E300049194979417107221AE06019069949190F
:103E400049794171082213E06019059949194979A6
:103E5000417109220CE060190499491949794171AD
:103E60000A2205E060190399491949794171102224
:103E70006D1C00D25CE70398401D03900B98401D19
:103E80000B900C98401D0C900D98401D0D900E98B5
:103E9000401D0E900498401D04900598401D05900B
:103EA0000698401D06900798401D07900F98401DEA
:103EB0000F900898401D08900998401D099010988F
:103EC000401D10900A98401D0A90641D761D009DAB
:103ED0006D1C0C2D00D026E70020C043E24908608D
:103EE0004860544908604860A04818496022FCF7BF
:103EF00037F911B0F0BDC0464E030018300300186A
:103F00002C040018C90100189A5E0012D65E001237
:103F1000125F00124E5F00128A5F0012C65F00122D
:103F2000026000123E6000127A600012B660001259
:103F3000F26000122E6100126A610012A661001286
:103F4000E2610012E8020018E0020018206200128C
:103F50000B2802D8044900220A5470470B2802D8C3
:103F6000014901220A547047D002001870B5804DF3
:103F70002878FF2824D0FB2823D179484278794932
:103F80000978417001780AB10422114302220A43E0
:103F90000270FEF757FF0446244804802448027844
:103FA000501E072804D85748411C2248FCF7E9F95D
:103FB0002046FEF755FF8548017801220A4302702A
:103FC00070BD6748427867490978417001780AB145
:103FD00004221143022631430170FEF733FF0446E9
:103FE0001248048012480278501E072807D8287803
:103FF000C0005E4908184349491CFCF7C2F9204635
:10400000FEF72EFF287805214143574A5118CA78F8
:104010003243CA7070BC02BC8E46FEF787BDC046F4
:104020002D03001838030018DC0200182E030018B6
:104030002C030018E002001837030018F0020018E3
:10404000F0B581B0044647480470BE2C11DC3C2C0E
:1040500015D07D2C21D14648FB210170874800787E
:1040600080070AD527487D2101700D207E4908224E
:1040700041E0BF2C01D0FE2C0FD101B0F0BD214892
:104080003C2101703A48FB2101700D20082101B04C
:10409000F0BC04BC9646FFF775BB3348071D0026ED
:1040A000324DF0B2FFF7BEF830B1B81E0078A04232
:1040B0000DD0FF202E4908707F1D0835761C0C2E70
:1040C000EFD101B0F0BC01BC8646FFF70DBC28481B
:1040D0000670244800780B4908700020C043395608
:1040E000002901DA142000E00D20C90701D1397838
:1040F000CDE73A78294601B0F0BC08BC9E46FFF7F0
:1041000089BBC046B403001870B515494A781548F4
:10411000007848700B780AB104221343022213433B
:104120000B702A21104C615C884209D140210F4B51
:104130005D5C7F262E405E542B21635C13436354E9
:104140007D2801D100F044F8094800780B2806D8F2
:10415000052141436018C178FD220A40C27070BD3C
:1041600038030018DC020018F00200189000001854
:104170002D0300183A49002008803F4911220A7097
:104180000D4908800D490880384908703949086090
:10419000374908800A4908600A49086037490870A9
:1041A000094908702D49088008480178FB220A4017
:1041B000027001207047C0464A03001848030018E7
:1041C000400300183C0300184C0300183703001884
:1041D000F0B52248002202802148018889B3214B92
:1041E0001C78214B1C70214C25786D1C0F262E400D
:1041F000267020365E701E4805881E4C246866199D
:104200008FB294B2A74200D8274694B2A74206D0F4
:10421000B45C98188470521C062AF6D10AE000217A
:104220000F4801809818FF248470501C052A02460C
:10423000E6D105E0A81D0E4A1080881F08490880B5
:10424000F0BD0D4801780F2902D8102211430170EA
:104250000A480178F5220A400270F0BD4E030018AA
:104260003A03001830030018E8020018DD020018B5
:1042700050030018440300184D030018520300189F
:1042800004480121017072B600F05CFE62B601F0D4
:104290008BF9FCE7840100180448054901600121FD
:1042A000816040F2001141600020704700C000486A
:1042B00004003000344800687047C0463348642129
:1042C000017000F001B8C04670B500201E4C2056A9
:1042D000042805D880001FA10D5823A10E5801E025
:1042E0001A4D1B4E25484169C90107D501683E2278
:1042F00091430160016801220A4302600020FDF73A
:1043000007FA1F4941431F48B1FBF0F01E490860FE
:10431000B04201D8012100E00421A84200D20221CC
:1043200020781A4A814202D013785B1E00E0642391
:1043300000B9034613705BB2002B00DD70BD642032
:1043400010702170084670BD44020018546F0000C0
:10435000BC1B0000C8190000C8190000BC1B0000ED
:10436000546F0000C8190000487100004871000037
:1043700048710000BC1B0000546F000004C00048DE
:10438000634E0000FF0700002C000018DC0400183A
:10439000014800887047C046880200180149002083
:1043A000086070471040014070B5A720C0434349E2
:1043B000434DA822435C2C18A354401CFAD36C2014
:1043C000295AF0220A40803A51425141C9013D4ADE
:1043D00013787F241C40091911706A883A498A426F
:1043E00065D002222A520026EE80698037480121DA
:1043F000E98140F2B071364A364B2B626A62A9629B
:104400003549364A28616A61A9612E713448FA300B
:10441000E88334484530A8832120C003A86028469B
:10442000323031A10B22FBF7ACFF28463E3032A1DF
:1044300003242246FBF7A5FF284643302FA1142270
:10444000FBF79FFF8C20334929508820324929509F
:104450008420324929508021314A6A5076216C5299
:1044600075210A226A546E2164226A54662140F240
:1044700000326A52652168542A482B49A967E867C7
:1044800028466530C670284690301621FBF7E1FFBC
:1044900074202E5440F20110A88124482867EE624F
:1044A0002E8623482349A965E86500F047F869206E
:1044B0000021295468892049088070BDA87600121F
:1044C0002C040018CC020018290200001000FF0084
:1044D000EE052601B2710000E04C00005E1B970B58
:1044E0005E1B0000EE0500003132333435363738BC
:1044F000393031320000000048303400313233347A
:10450000353637383930303938373635343332315B
:1045100000000000025A02039A01503A3C1801467A
:104520000032B400320028641411001E50BC000098
:10453000370011005C003C00A0030018F0B581B00A
:10454000A820401EFDD16C250E48405BF027384066
:10455000803841424141C8010B4C21787F263140CF
:10456000401820700022FCF7CBFD0648405B384025
:10457000803841424141C8012178314008182070FB
:1045800001B0F0BD2C040018CC020018042805D09E
:10459000032805D0022806D1854802E0824800E0C1
:1045A00082480088704700207047C046042805D024
:1045B000032805D0022806D13D4802E03D4800E02E
:1045C0003A480078704701207047C046811ECAB241
:1045D00040F2D070022A04D848B2800002A10858E4
:1045E000006800B27047C0460C00001808000018B0
:1045F000040000180D480E4941600021C1600161AE
:1046000041618161C1610162282242628262C262AB
:1046100010224263082242648164C1640165054A34
:10462000C266C167012101607047C0460040014871
:10463000007D02000100070000200146024600F054
:104640003BB80000114840F2F4110180104801808D
:104650001048018010484178FD220A404270ED4820
:1046600001780907890F01D001210170E84801781C
:104670000907890F01D001210170E4480178090779
:10468000890F01D0012101707047C046FE0000185B
:10469000FC000018FA0000180A050018DC48012187
:1046A0000170DC480170D948017070478C00001817
:1046B000F800001830000018F0B581B00090394EB5
:1046C00034780023012C184600D010463578022D8E
:1046D0001A4600D00246367843F20027032E43F2F2
:1046E000002000D0104600B1C01C012C1A4600D09A
:1046F0000A46022D43F2002100D01146032E1A462D
:1047000000D00A4602B1D21C012C00D0009F022D1D
:10471000194600D03946032E00D00B4603B1DB1CEE
:104720009BB2214F214C224D2988994207D12188E3
:1047300096B2B14203D1398886B2B1422FD01D4E14
:10474000B34200D3334697B21B490B6082B2B242E8
:1047500000D332464A60B74200D337468F60278085
:104760002B80114802800C6840F2E01301200022E7
:104770009C42054600D81546AB4C26880727BE4309
:1047800075198E689E42064600D81646B600AD19C9
:104790004968994200D8104640002818208001B08E
:1047A000F0BDC046A203001864020018620200189F
:1047B00060020018FF7C000018400148F0B587B087
:1047C000924E30780590924800780490914F387856
:1047D000069001252846FCF79BFF41F64074604394
:1047E0008D49B0FBF1F238780228019502920AD186
:1047F0008A4800680321414310B20818C117890F85
:104800004018801000E010B2844908600220009037
:10481000FCF77EFF6043804FB0FBF7F23078022850
:10482000039235460AD17E4800680321414310B205
:104830000818C117890F4018801000E010B278499D
:10484000086003263046FCF763FF4443B4FBF7F2ED
:104850006F480078022809D1724909684E4311B2A5
:104860007118CB179B0FC918891000E011B2049F73
:104870006C4B19606C490B88D9076C492E46059D15
:1048800010D0029C2404A14202DA0424069409E018
:104890003546674EB44201DB009C00E008240694D4
:1048A0002E46059D5C070AD51204914201DA0427C1
:1048B00005E05F4CA24201DB022700E008279A07CF
:1048C0000BD5039A1204914201DA042505E05849F8
:1048D0008A4201DB022500E008250022554B06999B
:1048E0000907890F40F2DB110AD09C5E012C07DB1F
:1048F000641E1C80A3B28B4212D14F4B069C0EE06B
:10490000444C2B463D4637460646069820703046B6
:104910003E462F461D4640F2DB141934454B1C80A1
:10492000464B3C07A40F0BD09C5E012C08DB641E99
:104930001C80A3B28B4201D13F4B5F80074605E04C
:104940003348077040F2DB10193018803C482B07C1
:104950009B0F0AD0825E012A07DB521E028090B2B2
:10496000884205D13448858002E0357019310180D4
:104970002848027839461143307801430C230B4014
:10498000591E8B4159002F4B5C78FD252540491954
:1049900059702D490B78B3BB5307019D06D52F23C2
:1049A000B44CE554294B04241C700D707B0706D5CC
:1049B0003023B04CE554254B04241C700D70430784
:1049C00006D53123AB4CE554204B04241C700D70EC
:1049D000120706D52C22A74B9D541C4A04231370A2
:1049E0000D703A0706D52D22A24B9D54174A042379
:1049F00013700D70000706D52E209E4A15541348DB
:104A0000042202700D7007B0F0BDC04630000018DF
:104A10008C000018F8000018FF0700000C000018B8
:104A20000400001808000018C402001800009311C8
:104A30000000F501FE000018AC010018FC00001891
:104A4000FA0000180A05001888010018CC020018A6
:104A500000209149085E704700209049085E704729
:104A6000F0B591B009201090FCF752FE7D4941430A
:104A70007D48081880107D21890390FBF1F02838CB
:104A80007A49097861B10A214143794800880722AF
:104A90004243501801B2490F401800B2C11001E062
:104AA0000A2141437248018002252846FFF76EFD26
:104AB0000F902846FFF78AFD0D9003263046FFF73A
:104AC00065FD0E903046FFF781FD0B9004242046D3
:104AD000FFF75CFD0C902046FFF778FD09905C2005
:104AE0006449085E0A905A20085E08905820085EC3
:104AF00007902846FFF74AFD0746FFF7DBFB0690C5
:104B00002846FFF763FD05903046FFF73FFD054659
:104B1000FFF7D0FB04903046FFF758FD0390204686
:104B2000FFF734FD0646FFF7C5FB02902046FFF76E
:104B30004DFD0190FFF7BEFB0446FFF7BBFB4F495D
:104B40008C4204D800044C4A101A000C02E042F6D1
:104B5000E062801A02B24A4B53431A0C101882B218
:104B6000D20B00B2400A8018EB4A8C4202D81146A0
:104B7000603101E01146613100230093C956414381
:104B800008B240494143C80F891408185E24115FD8
:104B900041180698059BC01A47430498039BC01A06
:104BA0004543E8191746029A019BD21A56438019C9
:104BB00047F6005290FBF2F048430F9A0D994A4392
:104BC000314992FBF1F2079D55430E9A0B9B5A43D4
:104BD00092FBF1F2089B53435A190C9B099D6B43BE
:104BE00093FBF1F10A9B4B43D11808181525454357
:104BF000FFF760FB395F41430A20484328182349E7
:104C000090FBF1F01099C9434143194800880818F6
:104C1000164F3978012909D11D49009A895E0F2262
:104C20004A4300B21018010F40180011184C2080A0
:104C3000184D2E88FFF7ACFB301AFA3000B201286D
:104C400001DB387848B9FFF7A3FB28802088124998
:104C5000088007480088114908800120387011B089
:104C6000F0BDC046C4B61100004067F460030018F0
:104C7000120500182C0400180000E02EDF2E0000A2
:104C80001383FFFF676600000083FFFF40420F00B1
:104C9000140500182A050018A4030018D0030018F2
:104CA00010B519480168452903D818490978012920
:104CB0000DD117490A6801231A400C689C43A218B9
:104CC0005A400A60114A00211170016000E09621EB
:104CD00048B210BD10B50C480168452903D80B49EE
:104CE000097801290DD10A490A6801231A400C6884
:104CF0009C43A2185A400A60044A002111700160C6
:104D000000E0962148B210BD240500181F020018CB
:104D100004070040854800210180824801808248C4
:104D20000180834801807E48012202607B48017037
:104D30007047C04680B5FFF77FFC102000F088F96F
:104D40000348FF21017003480021017080BDC04667
:104D50001E02001801000018F0B583B00446FFF7EA
:104D600017FB0290F44908793F260640022E00D82E
:104D700002268F79654AD078012804D1087C012861
:104D800001D1022008747F251078022807D1032062
:104D900010700120D070507818B1022602E02F4028
:104DA00001E00A260027FDF7BBF8FFF751FEE24BB2
:104DB0009A782A4005214A432280A08040F6A070BC
:104DC000642F01D828207843A060D8782840414338
:104DD00061800220C043197CC91E8142029F74D8A1
:104DE000A51C4A4AD078012813D14A4807806E2072
:104DF000B149085600280FD5107803280CD0FBF7CE
:104E0000D7FC48B17043322141436420B1FBF0F03C
:104E100004E03F48008818E032207043642800D83E
:104E200064203B4908803D4901220A703C490968D9
:104E3000224601B13B4A12883B4B1A800029294681
:104E400000D03A4909883A4A1180C8B1C11B314A99
:104E50001288891809B2002912DD21882F4B1B788E
:104E6000012B2AD1BA1A92B2821A2F4B1B888B427D
:104E700001950AD95B1A5343B3FBF0F3C91809E053
:104E8000264800210170218817E0CB1A5343B3FB59
:104E9000F0F3C91A21806388254D2D889D4205D9DC
:104EA000ED1A6A43B2FBF0F0181804E05D1B6A4388
:104EB000B2FBF0F0181A019A10801A48018060883D
:104EC0001A490880A06816490860384621463246CB
:104ED000FDF7E8F800250D4EF570204600F0C0FC07
:104EE0003078032801D1A06850B19349087C02288A
:104EF00009D19348007830B9A06820B10D7402E060
:104F000031460420307003B0F0BDC0460A050018D9
:104F100038020018360200182C0400183502001858
:104F2000100000188A020018100400188C020018E3
:104F30001204001870470000014800787047C0460E
:104F40001605001810B5FBF741FB3A480021017027
:104F500039480160416081603848426806218A43CF
:104F6000426042685207920FFBD1826940F20013FF
:104F70009A438261826980239A438261826940F206
:104F800000239A4382610122426007234360036841
:104F90000B43036001681143016081691022914352
:104FA00081618169202291438161FFF7FDF9B74C4E
:104FB000A07A42490870FFF78DFEFCF7E1F9FFF790
:104FC0006FFEFFF7EBF9FFF767F900F007FC16201B
:104FD000215E1420205EA269FDF7AEFC1E20215E3A
:104FE0001C20205E226AFDF797FC2620215E2420EB
:104FF000205EA26AFDF780FCFCF792FFFFF75EF9E6
:10500000FFF7F8FAFFF74CFEFDF716FF6A20205C69
:105010000B490870FFF7BCF90A300A490880A07AEA
:1050200000F016F80848094910BC04BC9646FBF786
:105030006DBDC0461E05001818400148308000486C
:105040003003001810050018354D0012C129001258
:1050500010B5411E0F2907D81449095C2522EB4BD6
:1050600099541349095C12E04109C2084A404108B9
:105070004A4003095A40D20184084C405C404440F5
:10508000E107490E8918CAB28021514001432A2202
:10509000DE4B9954074901220A707C49897A074AF4
:1050A00011700749085CD849087010BD785E00127D
:1050B000895E0012340200182C040018C90100187F
:1050C000345C001270B5D9480179C02211400171D9
:1050D000837880210B408370C3780B40C3700488B1
:1050E000164B1C4004804579F02425404571857994
:1050F0000D408571DA4D2E7916402E71AA780A403E
:10510000AA70EA780A40EA702A881A402A806A79E6
:1051100022406A71AA790A40AA71012101740848E3
:1051200000218175BF481621FBF791F970BC01BCC5
:105130008646FFF7EFBDC046DE0400180080FFFF83
:105140006403001880B5B5483821FBF782F980BDAB
:10515000F0B581B072B64027B04EF05D8F210140AE
:10516000F155FFF7E9FE2B25A84A515D02242143A2
:105170005155F15D4007400E08430097F05562B667
:1051800072B6505D20435055304616464030DF49D8
:10519000897B41713E490A88120A427062B672B632
:1051A000725D224372550988817062B672B6715D74
:1051B0002143715537490988C17062B672B6715D75
:1051C0002143715534490988017162B62046FFF7C1
:1051D000EDF9012815D10320FFF7E8F9012810D1D6
:1051E0000420FFF7E3F901280BD172B68B4A009B2C
:1051F000D05CFC210140D154705D2043705562B6F3
:1052000042E0FFF757F843F6806188423CD8FFF749
:1052100051F82249884237D302242046FFF7C6F9C5
:10522000400726D40320FFF7C1F9400721D404200A
:10523000FFF7BCF940071CD402273846FFF7B6F940
:10524000000716D40320FFF7B1F9000711D404209A
:10525000FFF7ACF900070CD472B6705D3843705597
:105260006E4A009BD05CFC210140881CD05462B681
:105270000AE072B6694A009BD05C03210143D15415
:10528000705D2043705562B601B0F0BD2C0400186B
:10529000E0030018E4030018E803001828230000C6
:1052A000F0B581B05848007805214143574C61184A
:1052B000C9788907564D297806D5012904D180007F
:1052C0005449085880472978012919D10327FD2519
:1052D000514EE05D810704D52840E055FBF7B6FA52
:1052E00030707F1D2B2FF4D148204C490A5CD20727
:1052F000474D05D000220A54012030704848027002
:10530000454908780024012879D12878012876D1E8
:1053100000200870434DA978514CA2784A405206AB
:105320001DD1EA78E37853405A0618D12A792379B7
:1053300053409A0613D16A79637953401A070ED104
:10534000AA79A37953407F221A40531E9A41364BC3
:105350001B785B1E5C425C411443012C52D1AB793B
:105360007F263340314A947927463740DD1B00D2EF
:10537000FD1A2F4A1570314023D02A4AD57835407E
:1053800009D0642B07D82948801C264DA91C05226A
:10539000FAF7F7FF13E0A5B1244B9878802210406C
:1053A00040189870D87810404019D8701D4D287951
:1053B0003F2101401879C022024050181871284E30
:1053C00015E0642B00D90120164D254E7942794114
:1053D00001430CD180200440E018144B98712879C7
:1053E0003F2101401879C02202405018187111481D
:1053F0000124C470B01CA91C0522FAF7C2FF204684
:1054000001B0F0BD0024FAE7AA010018F00200186C
:105410000100001800010018EA01001890000018AF
:1054200084010018F4040018C8010018DE040018F4
:10543000890100180A050018094881788022114066
:105440008170C1781140C1708179114081710179F9
:10545000C0220A4002714179F0220A40427170472D
:10546000FA030018B0B51D461446042916D00329C6
:105470002FD1FEF78DFF23490860062028800320E6
:105480006070672020700868A0700868000AE070EB
:105490000868010C2171000E607130E0417880785D
:1054A0000002411817480268174BD21892B2914275
:1054B0001BD10421617067212170022129806C2198
:1054C000BB4A535A8024A3435352B84901220A705D
:1054D00011E0B22060707F2020700A480021016036
:1054E000022028800A48016009E0272161707F219D
:1054F000217002212980064900220A6002600020F2
:10550000B0BDC046C4010018040C00002C040018F3
:10551000C0010018204B19801D4B02211970D21EAA
:10552000204B1A70C01C1B4A10601C480078A02831
:1055300000D001211A4801700020FCF729BDC046A7
:10554000F0B581B01C46054662202870A970080A93
:1055500068700F4A012010700E4F00263E600E4A00
:1055600011800E490978A02900D102200C49087049
:105570002046FCF70DFDE81C3860207809490870CA
:10558000304601B0F0BC02BC8E46FCF701BDC046FF
:105590007802001884020018740200183003001802
:1055A0007C02001880020018F0B587B07F4C20788C
:1055B000052108420AD0FFF773FB7D4D297B7D480A
:1055C00000294AD0012952D1298A4EE07A4C2088FC
:1055D000774D6A89101A411E8841784E31784B1EEA
:1055E000594259417AB108430DD0FFF76BFD30782D
:1055F000012801D1FFF7A6FDA87AFFF729FD0020B9
:105600003070688920806E480788FEF7C1FE044626
:105610006C4D2E88FEF7BCFE301A00B2002804DC68
:105620002888801C2880FBF727FD674D2E88FEF711
:10563000AFFE301A00B2002804DC28880A30288027
:10564000FFF786FDFBF75EFAC8B3FEF7F5FF07B07C
:10565000F0BC01BC8646FFF723BBE9890A460F3A36
:1056600092B2824201D20E21E981698100E069890A
:105670000F3989B2814201D2102068811620295E3B
:105680001420285EAA69FDF757F91E20295E1C2008
:10569000285E2A6AFDF740F92620295E2420285E2C
:1056A000AA6AFDF729F9FEF749FFFFF7F9FA00208A
:1056B0002156002900D58020207007B0F0BD381B8E
:1056C00000B200286EDCFBF70FF940490870012892
:1056D00001D1FBF787FEFBF7ABFCFFF7E1FD384993
:1056E00008880A30088000F09BF802A8FFF734FB16
:1056F00037480078584E717801432D4A33D14748D6
:10570000817849062FD0C07840062CD0118902A894
:10571000C180058941F6001704976C462146FCF7C5
:10572000C5FD20886843B0FBF7F02080618869439D
:10573000B1FBF7F16180A2886A43B2FBF7F2A28065
:105740000495244B1B78052B1DD1234B1C68E407C3
:1057500003D11C68012525431D6080B289B292B235
:10576000FEF7AAFF0FE0002004901A4800780528F1
:1057700009D119480168C90703D1016801220A4308
:105780000260FEF759FFFBF731FF3078042809D19A
:10579000FFF752FEFFF7CEFBFEF780FFFEF74CFF50
:1057A000FDF79EF9FFF77CFA87E7C046CC020018A8
:1057B0002C040018F2FF0000A0030018CD0200180E
:1057C00010050018A6030018C8030018C801001827
:1057D0008401001800000018004001481E48002104
:1057E000C1704170012101700C4801740179C0221F
:1057F0000A4002718178802211408170C178114085
:10580000C170817911408171018848F200020A401B
:1058100002804179F0220A4042717047DE0400188C
:1058200010B5FEF751FD401E411E88410A4C6178BB
:10583000FE220A4010186070FEF7C0FFFFF710F953
:105840006078800707D5E078012804D1FEF7FAFEDA
:1058500002480021017010BD0A05001888010018D7
:10586000F0B583B00446FFF7F3F805464C4EFFF75A
:10587000F3F8B542019401DA002103E049498D4271
:1058800012DD0721494A11704549884205DA494825
:10589000002101704548047838E04249A03188422F
:1058A00014DD4448072626E02A460A320A3D002332
:1058B0003D4F02241946FE5EB54202DB3E5FB24216
:1058C000E0DB491CBF1C0729F5D1DDE701460A31A1
:1058D0000A380022364B022516469C5EA04202DBA7
:1058E0005C5FA14206DB761C9B1C072EF5D131487C
:1058F000067801E02F4806702C480478F0B2844204
:1059000004D22B4FFFF7A8F8344602E0264FFFF7EA
:105910009FF80294E2B2284B995C561C9C5DA14210
:105920000AD18801019D82B224490B8893421BD27F
:10593000D41AE4111B191DE055007B5F7200BA5E9A
:10594000D21A194E755F0C1BA4018901A8421DDAF9
:10595000181A444394FBF2F0401841F600118842B3
:10596000E0DB41F60010DDE784B2A34207D99C1AC0
:10597000E4111B1BA4B204B1184604B19AB2029BF5
:10598000EA6008800E48037003B0F0BDC01A4443BB
:1059900094FBF2F0814201DB081AC3E70020C1E763
:1059A00071FEFFFFBA040000806200125C02001862
:1059B000906200125E020018F462001232000018B9
:1059C00016050018F0B583B00291448800880704DA
:1059D0008B493846FDF766F8054624048A48214677
:1059E000FDF760F828188949411886480068FDF7D6
:1059F00059F8054687493846FDF754F80646874862
:105A00002146FDF74FF83018854941188248006853
:105A1000FDF748F8064683493846FDF743F8074640
:105A200082482146FDF73EF83818814941187E48E2
:105A30000068FDF737F80746174901952846FDF736
:105A400031F8044615493046FDF72CF8041914497D
:105A50003846FDF727F8241812492846FDF722F8A2
:105A6000054611493046FDF71DF845190F493846DE
:105A7000FDF718F82D1820462946FCF7B1FF04461B
:105A800001983018C0192946FCF7AAFF02990C604A
:105A9000486003B0F0BDC046D4390200763C000037
:105AA000A7000500BE3903007463010040592100BE
:105AB000F0B581B00446006800045149FCF7F2FFDC
:105AC0000546504E3060606800044F49FCF7EAFF1D
:105AD00028184E4945183560E06800044C4F394697
