:020000041200E8
:10000000280B001899010012A3010012A50100128B
:1000100000000000000000000000000000000000E0
:10002000000000000000000000000000A701001216
:100030000000000000000000BF0100121D1A0012A5
:10004000C3010012C301001225130012C3010012E4
:100050004114001285140012C3010012C3010012E2
:1000600000F002F800F06CF812A030C8083824182C
:100070002D18AC4201D100F063F80FCCA246AB467C
:100080000CA730CF2D1B083F3F197C427F1E5444E4
:100090002D090426F441641EAC4201D300F050F84F
:1000A0000126334200D0FB1A3343984754465D463D
:1000B000DFE70000206A0000406A000070477047D8
:1000C00008FF38FF00000000010EFFFF00000000E5
:1000D0000000000000000000000000000000000020
:1000E0000000000000000000000000000000000010
:1000F0000000000000000000000000000000000000
:10010000103A02D378C878C1FAD8520701D330C860
:1001100030C101D504680C60704700000023002442
:1001200000250026103A01D378C1FBD8520700D32E
:1001300030C100D50B6070471FB51FBD10B510BD95
:1001400000F083F91146FFF7F7FF04F09BFA00F087
:100150009BF903B4FFF7F2FF03BC00F0A1F9000024
:1001600070B505460C46164602E00FCC0FC5103E92
:10017000102EFAD2082E02D303CC03C5083E042E5B
:1001800007D301CC01C5361F03E021782970641C18
:100190006D1C761EF9D270BD0D4880470D48004792
:1001A000FEE7FEE7FEE704207146084203D0EFF3C6
:1001B000098009490847EFF3088007490847FEE727
:1001C000FEE7FEE705480649044A064B7047000073
:1001D000F51A001261000012A10100122805001892
:1001E000280B0018280500184343514330B55C180C
:1001F000010C130C0D4692B25D4380B251432C1991
:10020000054655430A0C09044D1962415843010C37
:1002100000044019514130BDFEB5044610460D465C
:10022000184373D0A6468C460020A41A01469D416F
:1002300067D36646002701243D46B61A9D4102D386
:1002400013463A462124654676462F04360C3E4333
:100250002D0CB61A9D4104D3150C1B042B4312041C
:100260001034654676462F06360A3E432D0AB61AE6
:100270009D4104D3150E1B022B4312020834654620
:1002800076462F0736093E432D09B61A9D4104D301
:10029000150F1B012B431201241D65467646AF073F
:1002A000B6083E43AD08B61A9D4104D3950F9B0096
:1002B0002B439200A41C65467646EF0776083E4322
:1002C0006D08B61A9D411AD392185B41641C16E062
:1002D0000018764665464941B71A9D410191009044
:1002E00009D36046B11A98418E4684460098019918
:1002F0000025401C6941DD0752082A435B08641E43
:10030000E6D57246634603B0F0BDFFE720462843BA
:1003100007D00020C0430146C046C04622462B46B7
:10032000F1E700200146F7E7034610B50B439B07B2
:100330000FD1042A0DD308C810C9121FA342F8D048
:1003400018BA21BA884201D9012010BD0020C0434B
:1003500010BD002A03D0D30703D0521C07E00020B1
:1003600010BD03780C78401C491C1B1B07D1037877
:100370000C78401C491C1B1B01D1921EF1D1184660
:1003800010BDF8B5042A2CD3830712D00B78491C72
:100390000370401C521E83070BD00B78491C03705E
:1003A000401C521E830704D00B78491C0370401C6C
:1003B000521E8B079B0F05D0C91ADF002023DE1BBE
:1003C00008C90AE0FFF7CCFEF8BD1D4608C9FD408C
:1003D0001C46B4402C4310C0121F042AF5D2F30867
:1003E000C91A521EF0D40B78491C0370401C521ECF
:1003F000EAD40B78491C0370401C012AE4D4097824
:100400000170F8BD01E004C0091F0429FBD28B076D
:1004100001D50280801CC90700D0027070470029F6
:100420000BD0C30702D00270401C491E022904D31E
:10043000830702D50280801C891EE3E70022EEE7D5
:100440000022DFE7704770477047754600F024F8D8
:10045000AE46050069465346C008C000854618B040
:1004600020B5FFF7AFFE60BCB64600260027C0C52A
:10047000C0C5C0C5C0C5C0C5C0C5C0C5C0C5403D5C
:10048000490849008D46704710B50446C046C0462D
:100490002046FFF75EFE10BD0048704718010018A7
:1004A00001491820ABBEFEE7260002001349097877
:1004B00051B10022134B9B56002B05D5104B9A5679
:1004C000484380098018400800B270470948042159
:1004D00001600121816040F200114160064801780D
:1004E000064A11700179064A1170C07805490870F2
:1004F0000020704700C000489CFDFF117D010018DE
:100500007E0100187F010018704700000348006852
:1005100003490140034801607047C04618C00048C5
:10052000FF0F00002000001803480068AD4901409B
:10053000024801607047C0465C4001482400001832
:1005400006483421016006480649016041600649B9
:1005500000200860012292074A60704700E100E035
:1005600000E400E0404040001CED00E010B5FF2238
:100570001306C218521E140EC222FF2C17D30129D3
:1005800015D80C4A5060906818409060481E814110
:10059000880011680423994308181060106802212C
:1005A000014311601068012101431160002250B223
:1005B00010BDC04610E000E0F0B583B000F0B4FF1D
:1005C0000290FFF783FF044600F05CF90190FFF70B
:1005D000B7FF009000F0A0FE074600F0D9F80646ED
:1005E00000F068FE05460F490968092252060E4BC5
:1005F0001A60FF23DB02C80018400C4B1860080685
:10060000400B0B49086080180A49086002980443AF
:1006100001980443009804433C4334432C4360B2A4
:1006200003B0F0BDC8000012E8010018EC0100188A
:10063000E4010018F001001870B54D4801781F2939
:1006400017D80F200840022813D24A4D2A78022AD0
:1006500018D0012A22D0F2B901287BD14A481E21A4
:100660000180484902F0C6FD454800210170012083
:1006700012E003F089FF3F4800210170404801214A
:10068000017070BDF0200140102963D13A48008804
:100690003A4902F0BDFD002028705BE0012859D1E5
:1006A0003748002606702E7036480178222910D06F
:1006B000272914D02E291AD1817842781202511894
:1006C00089B2314A128805F045FA411E8841460038
:1006D00021E02D490A88032A0BD903261BE0417823
:1006E000401C264A244B05F0DDF9A0B911E0042690
:1006F00011E0817840780002401881B21F481E4CFA
:10070000234605F03DFA2188C91C218008B1012645
:1007100001E002202870EEB1022028701648032163
:1007200001801648AA2141710171C1707F210170B9
:10073000711E03290ED88A0001A39A189746C04655
:1007400000F006B800F007B800F007B800F00AB8EB
:10075000312103E070BD312105E013218170222198
:10076000417070BD112181702E21417070BDC04655
:10077000450300182E020018E0010018C2010018FD
:10078000BA02001882010018A0010018704700008A
:100790000D490A68012002430A600A6802231343D4
:1007A0000B600A6840F200339A430A60C143074A6B
:1007B000D3680B40D360D3690343D361106808400A
:1007C000106000207047C046040300482000004825
:1007D0000348006803490140034801607047C04670
:1007E00060400148FF070000280000180148007819
:1007F0007047C04681010018B0B52048037A1F2415
:100800001D46254038221E498A5C1440AC4228D13E
:100810005B0954099C4224D13923CB5C447A9C4225
:100820001FD13A23CB5C847A9C421AD13B23CB5C08
:10083000C47A9C4215D13C23CB5C047B9C4210D1F2
:100840003D23CB5C447B9C420BD13E23CB5C847B21
:100850009C4206D13F23CB5CC47B9C4201D100204B
:10086000B0BD027239228A5C42724A8F42818A8FFD
:100870008281C98FC1810120B0BDC046D604001855
:1008800094000018A0490D48486000208860C860A6
:10089000086148618861C861086228224A628A62E8
:1008A000CA6210224A6308224A648864C8640865E0
:1008B000034ACA66C86701220A607047007D0200C9
:1008C00001000700D5490A780120022A08D1074A09
:1008D0001268074B1B689A4202D30420087000205C
:1008E000024900220A6002490A6070473402001877
:1008F00030020018F0B583B07D48007800287AD027
:100900007C480168491C0160C44A10784007800F88
:10091000794C00D1E7E0A9480078002800D0E2E057
:1009200076480168491C01601078042805D0744895
:1009300000210180418081808171A14E31461039B2
:1009400003200190C00302910860012007460506BC
:100950006C4801682942FCD003F0A0FE02990868A7
:1009600038430860F843009032460C3A1168014061
:100970001160314654390B683B430B600B6840F6FD
:10098000004083430B600868082303430B60304634
:100990005038016820230B430360016840239943CA
:1009A00001600020E5490870029908683843086032
:1009B000106838431060DD480168009B19400160F1
:1009C0003068A8433060F804316801433160106832
:1009D00048F20001084310603804136803431360B1
:1009E000D0490978321F1368042928D101210B430B
:1009F000136007222CE0CE48083800681C21014013
:100A00000C2910D347480168491C016003F0F4FE2B
:100A1000454908800888454A1388C01A444B188005
:100A20000888108007E03E480168491C0160324890
:100A30000168491E016000F007F93E4C53E0BB43DA
:100A400013603168019B19433C22914331603A465F
:100A5000B5490A702D490A463F3233681340336066
:100A60002B4A12882B4B134072680A40D1187160D0
:100A70007168294A0A40294909880905090989181C
:100A80007160F90532680A433260029A11680143C5
:100A90001160316847F2000291433160316848F2D9
:100AA000000211433160316801433160019B180538
:100AB0003168014331609B480078001F411E884126
:100AC0008005B90532688A431018306058063168CD
:100AD0008143780608183060306828433060780415
:100AE0003168014331602068401C206003B0F0BDD4
:100AF00024050018A4020018BC020018A80200185F
:100B0000D003001818C000480040014800F0FFFF63
:100B100002000018FF0F0000FFFF00F004000018A3
:100B20008402001824020018100200181402001891
:100B30001405001820040018F0B47A480021017050
:100B4000794801707A4908681E4A104008600846D2
:100B50000C380368774D2B4003600123DC050E68D9
:100B600026430E601E040C46103C2768374327605E
:100B7000276848F200023A4322600A6847F20007F9
:100B8000BA430A600A682A400A600A68B2430A60E7
:100B90009A050D6895430D600A680A4D2A400A605F
:100BA0002168194321600168994301602348006866
:100BB00008B1F0BC0047F0BC7047C04653020018B3
:100BC00054800048FFFFFFFE0C4800680104090F35
:100BD0000B4A11700B490A68521C0A60810403D544
:100BE0000A49C00403D403E00749C00400D50849FA
:100BF0000868401C086000F027B8C0464C800048D8
:100C0000B002001898020018AC020018A0020018E8
:100C10009C020018F74800787047C046510200183F
:100C2000064A11600649086006480168012211431E
:100C300001604168914341607047C04674030018E9
:100C40007803001844800048F0B5EA48007800288E
:100C500063D0EA480021017034490A680120024348
:100C60000A60E74A11460C390B68324C23400B608E
:100C70000B68314D2B400B60C30516681E43166090
:100C800006041346103B1F6837431F601E6848F276
:100C9000000737431F60166847F20007BE4316601F
:100CA00016682640166014682C4014608405156888
:100CB000A543156004061568A54315600324640662
:100CC0001568A543156044041568A54315601C68A4
:100CD00004431C600C6884430C601446543C256833
:100CE00005432560256840F60046B5432560256824
:100CF00008262E432660503A14682025AC43146021
:100D000014684025AC4314600C4A10701A68024302
:100D10001A600A6802430A60F0BDB7480168491CBE
:100D20000160F0BD51020018530200180040014854
:100D300054800048FF7FFFFFFFFFFEFF24050018DF
:100D4000F0B581B0AB480078022862D1AB48017899
:100D5000062900D1C7E0032961D0012900D047E16D
:100D600003250570A64CE068A64E3040A1683140CE
:100D7000081AA54F38800020395EC9083980385ECE
:100D8000FFF794FB38800120C10522680A432260E6
:100D900001042246103A13680B431360B0490988D6
:100DA000B04A0A40B0490B463F3B67681F40BA183B
:100DB00062606268AD4B1340A04A128812051209A6
:100DC000D2186260226847F200039A4341F200039E
:100DD000D2182260721C23681343236022680B23FD
:100DE000134334229343236022680A4040F20021D7
:100DF00051182160290522680A4322608105226872
:100E00000A432260690622688A43810651182160DC
:100E100063E0EB480168491C016001B0F0BD0621A8
:100E20000170EE4CE068774E3040A16831400A1AFC
:100E3000EF4D6A800227EA5FD2086A80864A1080F6
:100E400086480180E85FFFF731FB688028887D498C
:100E5000088068887D49088068882988401A6880E9
:100E6000EA5F00217E48435E206847F20007B843EE
:100E70009A4202DC46F20007C0192060701C266806
:100E80000643266001209A42024600DD0A46AA7106
:100E9000216813220A432C218A432260216840F6EC
:100EA000C072914340F2004289182160C105226856
:100EB0000A43226001042246103A13680B43136070
:100EC00003210A0523681343236082052368134323
:100ED0002360490622680A432260400421680143D6
:100EE000216001B0F0BD07210170BC48C168454ACE
:100EF000114080681040421ABD4CA2800426A25FB7
:100F0000D208A280414A118041490880A05FFFF7C2
:100F1000CDFAA080A0883F490880A0882188401A87
:100F2000A080A94D2868A949096888425AD100279C
:100F30003948C15FE25F8A4201DB2188018037487E
:100F4000C15FE25F8A4201DC218801803449CA5FC7
:100F50000220235E934201DB62880A803149CA5F26
:100F6000205E904201DC608808802F48C15FA25F4C
:100F70008A4201DBA18801802C48C15FA25F8A42BE
:100F800001DCA188018003F037FC2949088008882A
:100F9000284A1388C01A284B1880088810802868AF
:100FA000401C2860A05F2549C95F88421BDCA079EE
:100FB000012818D10120E0712188214A118061881F
:100FC0005180A1889180D0711E4800881E490880F8
:100FD0001E4800881E4908800E4800881D49088068
:100FE000714817E7FEE777480168491C0160E7711F
:100FF00001B0F0BD51020018B402001853020018ED
:1010000054800048FF7F0000D00300188A020018B7
:101010008E020018E2030018C2030018EC03001847
:10102000C4030018EE030018C6030018F0030018EC
:101030009002001892020018940200180400001890
:10104000E4030018DA030018D8030018DE030018C0
:10105000DC030018E0030018880200188C02001856
:1010600002000018FF0F00003FF0FFFFFFFF00F03D
:10107000F0B583B04C48002404604C4804604C48F0
:1010800004604C4804604C4804604C4804604C4880
:1010900004604C48046003F0AFFB00904A490C60C8
:1010A0004A490C604A4804704A490C704A48047026
:1010B0004A4D2A684A4802402A602E460C3E336850
:1010C0004848034033600123D9052F680F432F6040
:1010D0001A0402922F46103F39681143396039686B
:1010E00048F200020A433A60296847F2000291433D
:1010F000296029680140296028680299884328608E
:101100009805296881432960286835490840286086
:10111000386818433860306801939843029630600D
:101120003148009901803148006800B18047019E34
:1011300027490E70284804702D480480448084801C
:101140008471C4710878012806D12A48006808B162
:1011500080471F4902200870386830433860029B7E
:101160001868B0431860284654380168314301605C
:10117000016840F6004291430160016808220A4379
:101180000260503D2868202188432860286840215B
:1011900088432860184806703868304338601868FB
:1011A0003043186003B0F0BD34020018A4020018E8
:1011B000A802001898020018A00200189C0200184B
:1011C000B402001830020018CC03001824020018E2
:1011D000510200187801001853020018548000488A
:1011E000FFFFFFFEFF7FFFFF960200187403001849
:1011F000D0030018780300182405001810B50E4C11
:101200002068000707D420680C49084202D0FFF785
:1012100001FD48B110BD02F0C9F901F077FEA068E8
:1012200008210143A16010BD02F0C0F910BC01BC4F
:10123000864601F06BBEC0463C800048304000004E
:1012400010B501F0BBFF01F0ABFF0446012001F037
:10125000C3FF20070DD4200603D0154800210180CC
:1012600010BD1348018849097D2908D30549491C47
:10127000018003480178012901D10221017010BDCC
:10128000020500189F0F000080B502F01DF880BC19
:1012900001BC8646FFF7D0B904480188491C01808B
:1012A00003480188491C01807047C0467C02001831
:1012B0007A01001810B515490A462C3A0020106032
:1012C0000A46283A10600A46243A114B13600A462F
:1012D000203A13600A46103A022313600122D343D6
:1012E0000C681C400C600B4C0C600C604C681C4083
:1012F0004C6006234B604B608C689C438C608A601A
:1013000007228A60C86105228A6310BD2C800048CC
:10131000FFFF0000000046100149002008607047F0
:1013200000800040B0B5454C6068C0070AD0204638
:1013300008380068C00705D002F07AFB2068012158
:1013400001432160606800070AD52046083800681C
:10135000000705D5FFF752FF2068082101432160EF
:101360006068C0050BD540F20015204608380068BB
:10137000284204D0FFF742FF2068284320606068BD
:1013800000060AD5204608380068000605D5FFF794
:1013900035FF2068802101432160606880050BD5FE
:1013A00040F20025204608380068284204D0FFF7A4
:1013B00025FF206828432060606880060AD5204603
:1013C00008380068800605D5FFF718FF206820213F
:1013D000014321606068C0060AD5204608380068CD
:1013E000C00605D5FFF70AFF2068102101432160E0
:1013F000606800040ED548F20005204608380068F1
:10140000284207D0ED48007B08B102F009FB2068B4
:10141000284320606068C0030ED5012005042046E3
:1014200008380068284207D0E448007B08B102F081
:10143000EFFA206828432060B0BDC04644800048D1
:10144000B0B50F4C2546083D2868C00709D0201FBD
:101450000068C00705D0FFF759F820680121014353
:1014600021602868C0050AD540F20015201F0068D9
:10147000284204D0FFF748F8206828432060B0BD18
:1014800010C00048F0B581B00125204C2646083E2A
:101490003068C0030CD52F04201F0068384207D0E5
:1014A00000F07AF807200004216881433943216065
:1014B000306880030CD56F04201F0068384207D0C5
:1014C000FFF732F807200004216881433943216087
:1014D000306840030CD5AF04201F0068384207D0A5
:1014E000FFF776F907200004216881433943216022
:1014F0003068C00708D0201F0068C00704D0FFF77D
:1015000045F920682843206001B0F0BD74400148CF
:1015100001490020086070471040014019480168E7
:10152000491C01607047C0460549002008600861F9
:10153000C867044904220A6001224A627047C04613
:1015400010000040940000400D48016803229143C0
:1015500001603F21090403688B435104591801605D
:10156000110602688A430260416801221140436803
:101570009343591851404160024900200860704768
:10158000000700401C050018024801680122914331
:101590000160704710E000E003480068E249014044
:1015A000E34801607047C04658400148F0B58DB02F
:1015B0003820C34B195C7F48017238335A78019246
:1015C00042729A7800928272DF78C7721E7906732F
:1015D0005C7944739A798273DB790293C37303ABAA
:1015E00059701F250D401D7004ADAA716C712E71CC
:1015F000EF70009AAA7000912970019969700246F3
:101600000E320C9202460D320B9202460C320A92B6
:1016100002460B32099202460A32089209300790BC
:10162000581C0690A81CFF220024254604AB5E5DD2
:101630005640274672B2D21168239A43760056402C
:101640007A1C072F1746F5D36D1C072D3246EDD1B6
:10165000F2B2029B9A4200D097E0574A00251570DB
:101660000B4600994A091946984E192304E05B1E5F
:101670001036002B00D188E037788F42F7D1B4883C
:101680009442F4D1F168884750B104A84078FE2113
:101690000140062979D170208B49494A0A521EE03F
:1016A000802F0FD0092F2BD1B0680021CAB2930030
:1016B00006AD5B199B681B788354491CCAB29442DF
:1016C000F4D80CE0B0680021CAB2930006AD5B19F3
:1016D0009B681B788354491CCAB29442F4D8394899
:1016E00004A90722FEF720FE00284ED0364801212B
:1016F0000170344804A90722FEF743FE0DB0F0BD87
:101700007078810716D404A900073ED58878E0BB1D
:101710006D48407B012838D1B068002101702B480A
:1017200004A90722FEF700FE78B3274801210170C3
:101730002648DFE7B068E9B28A0006ABD2189268A3
:10174000127842546D1CE9B28C42F4D81D4804A9A9
:101750000722FEF7E9FDC0B104A84078072816D09B
:101760000628C3D1902058490A5C521C0A54D0B2B2
:10177000CD234343D80A0A234343D01AC0B20818E2
:1017800004A9897892228154B0E70DB0F0BD912070
:101790004D490A5C521C0A54D0B2CD234343D80AA7
:1017A0000A234343D01AC0B2081804A989789C229E
:1017B00081549BE7D604001878010018240400180F
:1017C00050BC0000AA010018C0020018B1010018A6
:1017D000F0B585B003A80027077139485830417823
:1017E000384C217082786270C378A3700397FC4DE7
:1017F0006C7B012044406E894E4026437542754102
:10180000002E48D102971926304902E01031761E89
:101810003FD00C789442F9D18F889F42F6D12C4A60
:1018200097705470EE4B9B7A01931370FAB2012AB1
:1018300000D80246501E80B2042800D30420421C67
:10184000896803A80090FEF79CFD5020E549019AA5
:101850000A5435201F4A125C022313431D4A1354B5
:1018600050314C708F700020C8710398184FF87079
:10187000009B5C783C719A787A71DB78BB71C87098
:101880004A710C718B71F879C87106B93546029F9F
:1018900001E0029F3D46104C104E3078A84203D123
:1018A000207808B905B0F0BD0A2015B102F050FD4E
:1018B00001E002F047FD2770357005B0F0BDC0466D
:1018C000940000180C04001824040018006300128F
:1018D000CC040018E80200182802001818000018AC
:1018E00040B1032809D8022814D0012815D1104886
:1018F00000687047104800687047092807D10948F8
:101900000168C9010CD401680748084070470120EC
:10191000C043704705480068704706480068704734
:10192000002070471CC00048FF070000240000187A
:101930002C00001828000018200000180548016835
:1019400004220A4302600448016801220A4302603B
:1019500020BF704710ED00E0104000405C490020BF
:101960000860034A8A602822CA6088637047C046BC
:10197000011300000020704710B5014600780122D5
:1019800000236428104600D818464C78897809024C
:10199000091940F2E834A14200D81A46104310BD9C
:1019A000002070472821C94300786538884201D358
:1019B000002070470120704700782F30C0B2CF2838
:1019C00001D3002070470120704700787F2101403B
:1019D000642901D800207047012070470078401E1C
:1019E0000D2804D80848012101700020704701200B
:1019F0007047C0460078012804D8034801210170CF
:101A00000020704701207047C102001800780128AB
:101A100001D80020704701207047000080B5FFF713
:101A20003BFC04480168491C016080BC01BC86463F
:101A3000FFF774BD18050018F0B581B0214E30686D
:101A40004001214D284623D53068800528461FD007
:101A500030688001800D28461AD01C4F306838400D
:101A60003168090C39408842284611D23068384024
:101A7000154A002421462346FEF7B6FB3268920140
:101A8000D20D10433268120C3A402346FEF7C4FBD5
:101A90000F4A11689268072313405A1E062A05D878
:101AA00092000CA39A58490703D103E00122490789
:101AB00000D0054650084019B0FBF2F00C49086010
:101AC00001B0F0BD10400140005A6202FF03000067
:101AD000004000400200000003000000040000007D
:101AE00006000000080000001000000014000000C4
:101AF0001C00001880B50920400608490860FFF75F
:101B000007FDFFF72BFF002140F2E830FEF72EFD26
:101B100080BC01BC8646FFF78FBFC04608ED00E0E1
:101B2000F0B581B0CF484089012817D0102815D0D2
:101B3000022811D1CC4CA0790F280DD8CB498E7931
:101B40007F252E40E21D611D231D96B98EB9E479D3
:101B50002C40641E642C0CD301B0F0BDC24B9878AD
:101B60000F28F9D8C1498D797F24DA1C591C2540EA
:101B70002ED00091BE4C012525701C787F2627466B
:101B80003740BC4B997880252940C91999705979FB
:101B9000F0270F40010979185971117831409A796D
:101BA0002A40511899711979C0220A400007800E05
:101BB000009909788E09301880181871D878284053
:101BC000E2098906490E89180818D87001B0F0BDDD
:101BD000002DCED1DD7825406C1E632CBCD8C8E723
:101BE0002404001894000018F0B581B0D948408949
:101BF000C11E01291AD80121102819D0084017D177
:101C0000D54DA87B0F2811D8D44A97797F26374025
:101C10002B460F332A460D322C460C340092BFB9A6
:101C2000B7B9ED7B35406D1E642D11D301B0F0BD09
:101C3000C94DA87A0F28F9D8C84A97797F26374026
:101C40002B460B332A4609322C460834009267B3E0
:101C5000C34D297024787F2627463740C1498A78AA
:101C600080252A40D2198A704A79F0271740020944
:101C7000BA184A711A7832408B792B409A188A71B7
:101C80000A79C02313400007800E009A1278960943
:101C90003018C0180871C8782840E3099206520E1F
:101CA000D2181018C87001B0F0BD002FD0D1ED7A55
:101CB00035406D1E632DB9D8CAE7C046F0B581B076
:101CC000EA484089411F01291AD80121102819D05A
:101CD000084017D1E64DA87D0F2811D8E54A97791D
:101CE0007F2637402B4617332A4615322C461434AC
:101CF0000092BFB9B7B9ED7D35406D1E642D11D38B
:101D000001B0F0BDDA4DA87C0F28F9D8D94A9779EF
:101D10007F2637402B4613332A4611322C46103487
:101D2000009267B3D54D297024787F262746374027
:101D3000D1498A7880252A40D2198A704A79F027B9
:101D400017400209BA184A711A7832408B792B4031
:101D50009A188A710A79C02313400007800E009AEE
:101D6000127896093018C0180871C8782840E3091D
:101D70009206520ED2181018C87001B0F0BD002F94
:101D8000D0D1ED7C35406D1E632DB9D8CAE7C04671
:101D9000F0B581B0F1484089C11F01291AD801214D
:101DA000102819D0084017D1ED4DA87F0F2811D861
:101DB000EC4A97797F2637402B461F332A461D323F
:101DC0002C461C340092BFB9B7B9ED7F35406D1E6B
:101DD000642D11D301B0F0BDE14DA87E0F28F9D8D4
:101DE000E04A97797F2637402B461B332A46193223
:101DF0002C461834009267B3DB4D297024787F2677
:101E000027463740D9498A7880252A40D2198A70D6
:101E10004A79F02717400209BA184A711A783240F5
:101E20008B792B409A188A710A79C02313400007D6
:101E3000800E009A127896093018C0180871C87878
:101E40002840E3099206520ED2181018C87001B04B
:101E5000F0BD002FD0D1ED7E35406D1E632DB9D879
:101E6000CAE7C0462404001894000018D6040018DD
:101E700019000018EC040018F0B581B0D44840896E
:101E80000146093901291CD8012110281BD008401E
:101E900019D12620B24D285C0F2812D8B14A977963
:101EA0007F2637402B4627332A4625322C462434BA
:101EB0000092C7B9BFB92727ED5D35406D1E642D6F
:101EC00011D301B0F0BD2220A54C205C0F28F8D81A
:101ED000A44A96797F252E402246213200927EB375
:101EE000234623332034A04D297024787F262746AB
:101EF00037409E498A7880252A40D2198A704A79CB
:101F0000F02717400209BA184A711A7832408B79C3
:101F10002B409A188A710A79C02313400007800E5B
:101F2000009A127896093018C0180871C8782840AD
:101F3000E3099206520ED2181018C87001B0F0BD15
:101F40002034E31C002ECED1E6782E40751E632D82
:101F5000B7D8C8E72404001894000018D604001865
:101F600019000018EC040018F0B5E0484189084653
:101F70000B38012867D80127102927D0394025D1EF
:101F80002E21774A515C0F295DD8764B9C797F23AF
:101F90001C4059D075488578802635403C46174608
:101FA000283738790340EB18704DAB70EB7833402D
:101FB000C0097D792746AE06760E3018C0186B4BE7
:101FC000D8702F320807840EAB0925E02A20644B15
:101FD000195C0F2937D8634884797F2214403CD09C
:101FE0002820185C0240614CA57880263540AA184C
:101FF000A270E2783240C0091D4628356D78AD06E2
:102000006D0E28188018E0701A462B32203358784D
:10201000840998780007830E534807701C4353487F
:102020000379C0251D40631903714379F0241C40D6
:1020300009096118417111787F220A408179802352
:102040000B4099188171F0BD002CA3D12F24145D91
:102050001C40641E632CF6D89CE7002CC0D12B20BA
:10206000185C1040401E6328EDD8B9E7240400181E
:1020700094000018D6040018EC0400181900001889
:10208000F0B581B09948408901460D3901291CD825
:10209000012110281BD0084019D13620304D285C72
:1020A0000F2812D82F4A97797F2637402B4637338F
:1020B0002A4635322C4634340092C7B9BFB9372787
:1020C000ED5D35406D1E642D11D301B0F0BD3220A1
:1020D000234C205C0F28F8D8224A96797F252E4081
:1020E0002246313200927EB32346333330341E4DC4
:1020F000297024787F26274637401C498A78802516
:102100002A40D2198A704A79F02717400209BA1872
:102110004A711A7832408B792B409A188A710A7961
:10212000C02313400007800E009A127896093018D9
:10213000C0180871C8782840E3099206520ED218D8
:102140001018C87001B0F0BD3034E31C002ECED1A1
:10215000E6782E40751E632DB7D8C8E72404001812
:1021600094000018D604001819000018EC04001898
:10217000F0B4164840F2D611C822026041607121C5
:102180005A4B595CCDB2192255430A24B5FBF4F1E0
:1021900026464E43AD1B042D00D9491C70255B5DBE
:1021A000DBB25A43B2FBF4F35C43121B042A00D99E
:1021B0005B1C82689A4204D1C2688A4201D1F0BC99
:1021C00070478360C160F0BC03F0BABF0002001822
:1021D00024040018F0B581B000903D4805783D48D2
:1021E00006783D4807883D4A1723012002E05B1E20
:1021F0000C32CBB31488BC42F9D191780E42F6D0A0
:10220000D1780D42F3D0012E16D1354B186880B12C
:102210003448017881B1007819689388002502E07C
:102220006D1C854208D29D42FAD29668765D4E5565
:10223000F6E79088009908800A2C17D1284B196876
:10224000002089B127490C7874B109781B689488FB
:102250000020054602E06D1C8D4205D2A542FAD24F
:102260005E5D97687E55F6E701B0F0BD19480078CD
:1022700002281BD100211C484356002B16D4184CB1
:1022800023689BB1174B1D7865B11B78246895882E
:1022900002E0491C994205D2A942FAD2665C9768CD
:1022A0007E54F6E7017809B901210170B84908792F
:1022B00001280AD110200882002008710122CA8159
:1022C0000A7309490A7001B0F0BD002001B0F0BDE9
:1022D000700200186C02001868020018B869001239
:1022E0007802001874020018C002001824040018B4
:1022F000F0B583B016460C460346A34FB87D60B9CF
:1023000000200121B97538607860B860F8603861E4
:102310001D4602F071FA2B46B88279789B4A1078F4
:10232000BD8A03281BD1022919D80020A060798812
:1023300071B30220387089037D20C00440F6A0727A
:10234000B1FBF2F2B960F8603A613221714364295D
:1023500000D86421B0FBF1F07860032051E0D2781E
:10236000012A4FD102294DD8032816D06E20884962
:102370000856002811D500951D46FEF737FA2B4662
:10238000009D7043322141436420B1FBF0F206E02E
:10239000386178603870032033E0322272437888E5
:1023A0008003A1688903884204D1002038617860E5
:1023B00038701FE01E46B860642A00D864227D236E
:1023C000DB04B3FBF2F27A60884208D902223A7049
:1023D000401A40F6A071B0FBF1F0FB6008E001226A
:1023E0003A700022081A40F6A071B0FBF1F0FA60D2
:1023F000386133466748007C022801D0022000E0A3
:10240000012078703878002800D1B7E0591B89B2D4
:10241000012804D17A684A43F968511805E07A68BE
:102420004A43F968891A00D20021012802940193D5
:1024300005D17D22D204531E994202D805E021B96C
:1024400000220021796039801146F9607522504BD5
:102450009E5C28256E43504A966078269E5D6E43AA
:1024600016617B269E5D6E4396617E269E5D6E4361
:10247000166277269E5DB60276241C5DA400A41920
:10248000D4607A241C5DA40279269E5DB6003419BE
:1024900054617D241C5DA4027C269E5DB600341927
:1024A000D46181241C5D6C43946284241C5D6C4364
:1024B000146387241C5D6C43946380241C5DA40218
:1024C0007F269E5DB6003419546283241C5DA402ED
:1024D00082269E5DB6003419D46286241C5DA40257
:1024E00085269E5DB6003419546389241C5DA402C0
:1024F00088269E5DB6003419D4638A241C5D6C4323
:1025000014648C241C5DA4028B269E5DB6003419D5
:1025100054648D241C5D6C438F255D5DAD028E2659
:102520009B5D9B005B199464D364890B00256BB29F
:10253000DC0014596D1C8C42F9D3012B00DC012303
:10254000DB00D4186568083C266864682D1BD258E7
:10255000921B891B114B5943B1FBF2F16943B1FB4B
:10256000F3F10919012801D00D480918029C019BBB
:1025700038694843B9684018800B7880BB827888F6
:10258000A06003B0F0BDC0465C030018020500184F
:1025900024040018D6040018380000181027000082
:1025A00060F0FF3FF0B591B000248C804C80079123
:1025B0000C804188094A0A914A43089000880849DA
:1025C0000B904143881807494018099006480D9020
:1025D000064F0748074D0C942B4612E0E51AFDFF05
:1025E00053890100A9B22BFDAC690012A069001249
:1025F00094690012FFFFFF7F641C032C0D461346F5
:1026000021D002C80B9A514304CF0A9E724351183D
:102610000D9E04CE0D9689184C4A38324A43099EC5
:10262000B2189A4204DA002A05D49A42E4DB08E0A0
:102630002946002AF9D50C9D6519AD1C0C959A42C6
:10264000DADB1A46D8E70C9A10060FD0D1B204296B
:102650000FD801290DD03E48042914D0032917D1E1
:1026600001223C4B3C493D483DA415E00A9E0B9B92
:1026700045E0052937D0062939D101208104334EA0
:1026800039363C233BE00222324B334936A403E087
:10269000002237A3314939A4A0CB0B9B5D1B2668D0
:1026A000636875430A9CE41B5C4365196E430C68C0
:1026B00004D448688968A314861420E03419066895
:1026C000B44218DD90002F4A12586B434968C9186C
:1026D0008E1472432C490958A314594351182B4A9C
:1026E000105809180BE02A495826C42307E0174B55
:1026F0009E1D284903E042688168B3149614089D22
:102700006E802B80A86848438014A8600EA92846D4
:1027100003F0A0FCA868204908600004072100F02D
:102720002FFB014610901D4C601C00F029FB1090FF
:102730000427EA5F1A495143CA0F89148E180022F0
:10274000184B11460C900B9732E0C0460502000072
:1027500070690012886900127C69001264690012B5
:10276000300100009C010000FD010000C7FFFFFFD9
:10277000C400000058000000280100008A0000008A
:1027800013FEFFFFA069001294690012AC690012E9
:10279000682F0100BE84020010050018FFFF000032
:1027A00067660000906400121433491C072908D0A2
:1027B0009D5EB542F8DC14255D5FB542F4DD8C42C8
:1027C00000D1002114224A43FE498B5E8C18A18A55
:1027D000C91A0DB20221615E1622A25E521A1201BE
:1027E00092FBF5F212B2F71A7A431009081800B2F8
:1027F000F5490968414340F2E83091FBF0F00004EC
:10280000F24900F059FAF24E30600F21C9030D91E0
:1028100000F0B6FA30600820205E1C21615E091AC3
:10282000090191FBF5F109B2794309094018E94919
:10283000098840180004E5490E4600F03DFAE649D3
:1028400008600A20205E1E21615E091A090191FBC1
:10285000F5F109B2794309094018E049098840189F
:102860000004314600F028FADD4908600B98205E2C
:102870001821615E091A090191FBF5F109B279434A
:102880000909401800B2F0490968414340F2E830B4
:1028900091FBF0F00004314600F00EFAD14E3060AA
:1028A0000D9900F06DFA30600C20205E2021615EF1
:1028B000091A090191FBF5F109B279430909401898
:1028C000E049098840180004C04E314600F0F4F990
:1028D000C54908600E20205E2221615E091A0901A7
:1028E00091FBF5F109B2794309094018D4490988E7
:1028F00040180004314600F0DFF9BC4908600620AA
:10290000205E1A21615E091A090191FBF5F109B2F5
:1029100079430909401800B2C3490968414340F2AC
:10292000E83091FBF0F00004314600F0C5F9B04EFC
:1029300030600D9900F024FA30601020205E2421D0
:10294000615E091A090191FBF5F109B279430909A0
:102950004018B4490988401800049C4900F0ACF9BB
:10296000A44E30601220205E2621615E091A090102
:1029700091FBF5F109B2794309094018A849098882
:1029800040180004914900F097F9044630680B9014
:10299000974800680E9E0F9D214600F08DF90D901E
:1029A0002C1B0195904800680490904807688D485A
:1029B0000068394600F080F90A9087480068059061
:1029C0008748016802918248006800F075F9099013
:1029D0000B98301A03907F1B394600F0D1F906900E
:1029E0000598851B2846394600F0CAF90B90204609
:1029F000294600F0C5F905900498871B3846214602
:102A000000F0BEF9054602980199441A384621465D
:102A100000F0B6F904902046039900F0B1F9039054
:102A20000D9C20460A9F394600F0AAF90190099EA4
:102A30003046214600F0A4F902900698451B304626
:102A4000394600F09DF904460198294600F098F9AE
:102A500006460D9005980399411A029800F090F9E6
:102A600007460A900B980499411A204600F088F90D
:102A700004460898C068C10F4018400801040C982B
:102A800000F07EF95C4900F07BF940F2004100F073
:102A900077F905464E480068314600F071F9064660
:102AA00050480068394600F06BF9861950480068B4
:102AB000214600F065F93118284600F0FDF8074678
:102AC0000D98394600F05CF906460A98394600F040
:102AD00057F905462046394600F052F904460120D0
:102AE0000B900704BE4200DB3E46F01786437D2074
:102AF000010630460D9100F043F9404900280C9141
:102B000001D448F200010818C117090C4018BD4251
:102B100000DB3D460614E817854328460D9900F072
:102B20002FF90546BC4200DB3C46E01784432046B3
:102B30000D9900F025F90899C988C9094E43361244
:102B40006E222F4B9B5C7F221A40564364242D4BF0
:102B50002D4F9E423B4603DC96FBF4F3DE17B34356
:102B6000079E3380002D254B01D448F200035B19EA
:102B7000DD172D0C5B191B144B431D125543214BC4
:102B80009D423B4603DC95FBF4F3DD17AB437380BA
:102B9000002802D448F200030C930C9B1818C317AA
:102BA0001B0CC018001441430812424315488242CE
:102BB00003DC92FBF4F7F8178743B7800B9811B04A
:102BC000F0BDC046906400121C04001800001027DD
:102BD00064020018140400185C020018180400189D
:102BE000600200184C020018440200184802001845
:102BF000400200183C0200181F0500000080FFFF83
:102C000024040018FFFF3100FF7F0000044B1980EF
:102C100004490880142092FBF0F0034908607047D3
:102C20001C0200181802001820020018044B19801A
:102C300004490880142092FBF0F0034908607047B3
:102C4000500300184C03001854030018044B19805B
:102C500004490880142092FBF0F003490860704793
:102C600018040018140400181C04001810B5C1083A
:102C700042094A4041084A4003095A40D2018408A7
:102C80004C405C404440E107490E891880224A408C
:102C90000243D0B210BD000010B5064C2078FF28CA
:102CA00007D000F085FA207810BC02BC8E4602F0F6
:102CB0004FBC10BD12020018F0B583B081B1C3172C
:102CC000019002465A40D41AC8170A464240171AC1
:102CD000380D029108D10026380715D011201EE0CA
:102CE0000120C00703B0F0BD780C401CB4FBF0F627
:102CF000002130463A460B46FDF776FAC903400CF0
:102D00004018241A3807E9D111213A46081F17093B
:102D10001206120F03D1072901463A46F6D82CB302
:102D2000002823D40021220F23460A4609D10A464F
:102D300025462B01121D2D0E1D46FAD001E05B0029
:102D4000521C002BFBD5D2B29042034600DB134647
:102D5000C21A9C40B4FBF7F03B46434390408619AF
:102D6000E01A03D04400501E002ADCDC02990198CE
:102D70004140701C4008002900D5404203B0F0BD1E
:102D8000B0B582B20B1414465C43001489B20546F8
:102D90004D432C192514240458434A43A218684172
:102DA000C117511848F20003C91A914200D9401EB8
:102DB0000004090C4018401CB0BD00000B2805D8C9
:102DC00040B2800002A108580D4901807047C046FA
:102DD0008203001884030018860300188803001873
:102DE0008A0300188C0300188E0300189203001841
:102DF00094030018900300187E0300188003001845
:102E0000FFFF000070B5094C207868B1084D2878A4
:102E1000401C2870C0B2022806D3D0480026067095
:102E200000F064FE2E70267070BDC046A00300182E
:102E3000A1030018014800787047C046C10100187E
:102E4000F0B581B0CA4C2078800735D5CC4D2878B4
:102E5000401C2870C0B205282ED300F0AFF9C3493A
:102E6000088021780A07920F19D04022C14B9E5C3E
:102E7000802737439F542B22BF4B9E5C022737434A
:102E80009F54CA4A53781BB1137804261E43167008
:102E9000BA4B1B785370137801261E431670F32229
:102EA0001140217000F098F9AC48002101702970A0
:102EB0002078FD210140217001B0F0BD10B512480D
:102EC0000246083A1168890440F2001340F60001F6
:102ED00005D414680C4202D112681A4213D042F28F
:102EE000000204681C430460036880241C430460DF
:102EF000036840F200241C43046003680B43036032
:102F000001681143016010BD4480004880B511483C
:102F10000178CA0704D0FE221140017000F01EF8AB
:102F20009E48017871B1491E0170CAB29548801857
:102F300041789548038859188BB21B0A5918CBB2AF
:102F4000038002B180BD00220280C843024908709C
:102F500080BDC046A5030018BE030018F0B581B0BF
:102F60007E4C207806287BD8810001A251188F461C
:102F700000F049B800F00AB800F011B800F01BB832
:102F800000F043B800F06CB800F072B875480078F3
:102F9000552838D1FDF73EFEA8B30220DAE07F487D
:102FA0000021017021706F48007801B0F0BC02BCB4
:102FB0008E4601F04BBA7249002008706C490A78BD
:102FC0000E2313430B7072490A78724B1E78B31AA2
:102FD0006C4DEF18634B1B787B70964207D16E4E99
:102FE0003678142E00D12878C0B2674D2880501E44
:102FF000087065490A88D218130A9A18D2B20A8052
:10300000000600D1A5E001B0F0BD564801785D484A
:1030100041725D4A1378FF255D4015808D4230D1A5
:1030200041787F2919D18178062916D1C178B5292F
:1030300013D10179FF2910D141797F290DD18179EF
:1030400001290AD1C179022907D1007AFF2804D1C8
:103050004E48007B08B1FEF70BF801F081F938E02B
:10306000002020704649087041480178FD226CE03C
:103070003B4800783B490978814232D101F04CFA53
:103080005CE000F09BF83949088039490A78130759
:103090009B0F19D04023374DEE5C80273743EF5408
:1030A0002B23354DEE5C02273743EF543F4B5D78C1
:1030B0001DB11D7804262E431E70304D2D785D7095
:1030C0001D7801262E431E70F3231A400A7000F06B
:1030D00083F82B4800210170217025480178F122E6
:1030E00033E021480178FC220A40027000F066F8C3
:1030F0001E4908801E490A7813079B0F19D04023E8
:103100001C4DEE5C80273743EF542B231A4DEE5CA9
:1031100002273743EF54254B5D781DB11D780426F7
:103120002E431E70154D2D785D701D7801262E439F
:103130001E70F3231A400A7000F04EF80020207031
:103140000F4908700A480178F9220A40027001B05C
:10315000F0BD0420207001B0F0BDC046A7030018E8
:10316000BC030018A4030018A203001826030018CB
:10317000B703001894000018E8020018D0020018E5
:10318000A3030018AC0300187C03001824040018E3
:103190000F050018240300182005001896030018D6
:1031A0000249088800220A807047C0463003001890
:1031B00080B500F09FFF002080BD000010B50C48D6
:1031C000006804490A6804231A43FB24A2430A60E6
:1031D000184010BD80E100E048B105480168026870
:1031E000FB239A43C9B2114304220A430260704789
:1031F00000E100E010B5DA4A13781C0706D0DE4C77
:103200002060DE480160F0200340137010BDC0460E
:1032100070B5CF4A127852070AD4D14A1378040BFA
:1032200011D01F2B09D80F2003402033137004E066
:10323000214800210160C8480180C8480178F52272
:103240000A40027070BD1C4C21600F242340137093
:10325000C44A1378194A1370072815D39070030ACB
:1032600010241C4354700023CC5CD518EC705B1CFC
:10327000052BF9D1124905220A80124900220A7051
:10328000401FB549088010E050700023FF2404E07F
:10329000D618B5705B1C062B04D083422546F7D2A6
:1032A000CD5CF5E7AC4800210180AC4801780A22EA
:1032B0000A43027070BDC0463C030018E0020018CB
:1032C00048030018D102001880B500F009F8FFF794
:1032D000B7FDFFF797FD80BC01BC8646FFF7EEBD4A
:1032E000F0B585B09A490D78E80700D1BFE099485C
:1032F0000024048098480480FE2028400190087033
:1033000096490A78F520049210400870944908788C
:103310000F22029003921040024610320A70914B25
:103320001E7891490F78BE1B714271413A467F3A2F
:10333000564256410E4302D199798F4210D18A49A3
:1033400049780F290CD888498B78B02B08D3B72B34
:1033500006D8FA2005407E48057000F001FD86E0A1
:10336000002E814E7CD07178F0220B461340202B2A
:1033700035D0102B52D0002B72D17F480068002826
:103380006ED00D467D490968002969D0039B1D4018
:103390000492EA1F0523DB439A4261D32F46028839
:1033A000AA425DD307803FB1321992780A55641C56
:1033B000A2B203789342F7D8694A1078010703D183
:1033C00004990840401C1070644A1078FA210140AA
:1033D00011705F4A1078FB210140117040E00B46EC
:1033E0000499C9073CD0614909788F422BD10399D0
:1033F0000B40049909098B4225D1002255490A80C6
:103400005B4B19880729554C00D27EE0881F188035
:10341000F420049A02401132062183E0B0780907B3
:10342000090D081807281BD353490A68C2B153492C
:103430000968A9B1138883424AD20020474908701D
:10344000122047490BE002980007400F434904D17E
:1034500014201346424A10701A460498104008700F
:10346000307820B94648017808220A4302703B4868
:1034700001780A07920F26D0364A13885B1C138006
:103480009AB2404B9A4221D308220A400AD0344AC9
:1034900013781F2B03D80F24234050331370F522C9
:1034A0001140017001784A0710D52D4A13781C0786
:1034B000640F03D1F0242340DB1C1370FA22114067
:1034C000017005B0F0BD23480021018005B0F0BDBA
:1034D0000423019C1C431E4B1C7010800022B31857
:1034E000DB788B54521C052AF9D1224905220A8027
:1034F00031781E4A1170401F1D490880174A107804
:103500000A21014015311170AAE71A800423049F93
:103510001F402770FA231D400D4B1D7010B911205C
:103520000F4B1870227013480388CA18124C246875
:103530002488A24294D849B1104C2468E318B41CE2
:1035400025781D70641C5B1C491EF9D1028087E739
:103550002F03001846030018320300184A0300180E
:103560004503001828030018D80200184403001867
:1035700042030018400300183803001834030018F1
:10358000300300180E020000074802490160416044
:1035900081607047010101010B2801D900207047AB
:1035A0000149085C7047C046C4020018F0B585B0F8
:1035B000FFF704FEDA4E3080DA4C606A616AA56B70
:1035C000226CD94B1A432264D84A1070D84F3878ED
:1035D000FB220240880904210491084080183870B9
:1035E0003088FFF7F9FD30262E400AD1CF48007809
:1035F00038B93878400704D4FDF70CFB002800D117
:10360000A0E0102E00D17EE1202E00D17BE1C94E3A
:1036100031783878420754D403293DD3C74801781C
:10362000FC220A400270CD4800780B2806D80521FC
:103630004143C5484018C078C00604D4C04801784A
:1036400008220A430270FFF7B9FDB5490880BC495A
:103650000A7813079B0F1AD04023BA4DEE5C8027DF
:103660003743EF542B23B84DEE5C02273743EF541A
:10367000B64B5D781DB11D78049E35431D70B44D69
:103680002D785D701D7801262E431E70DF4EF323CA
:103690001A400A70FFF7A0FDFDF7BCFA002800D120
:1036A00031E100203070AE490870A5480178FD2254
:1036B0000A4002709D480078002800D023E10120D4
:1036C000E6E0002900D1E2E0052900D0E2E09A49D5
:1036D0000878964A1278824200D0DFE09748027854
:1036E000032315461D40022D0ED1256A3746FF26BD
:1036F000B543984E3678AD19256206253D70FC25F8
:103700002A4002700E703E4602781340012B00D012
:10371000F9E0914B9D7A5D196D780D70216A3746FD
:10372000FF26B1434919216205213970997A491C54
:103730009972E6490B785B1E0B70190600D1DDE02B
:103740000121DCE0E348002103910170E5480125F7
:103750000570FFF733FD72490880606C20210291EB
:1037600008436064606C102318436064E06A0622BA
:103770009043E062E843E26A0240E262E26A2A437E
:10378000E262226C68490A432264A26A0240A26291
:10379000261F326804998A43326032682A433260B5
:1037A00002210191CA433768174037603768082102
:1037B0003943316021680E26B143216021681943E5
:1037C000216021680140216021688027B943216080
:1037D000216840230093194321602168029B99438B
:1037E0002160A3685F490B40A360FF23DB43A66809
:1037F0001E40A660666C2E436664666C1640666466
:1038000066680E406660616819406160216C014025
:103810002164206C10402064206C434908432064DC
:10382000AC49039808703E4E3088FFF7D5FCFFF78F
:10383000C5FC3080A94E31780A07920F18D0414A52
:10384000009E935D3B4393552B223F4B9E5C019F13
:103850003E439E543D4A53781BB11378049E334334
:1038600013703B4B1B78537013782B4313709B4E94
:10387000F32211403170FFF7AFFC974803990170B4
:10388000994805703078FD21014031703BE00020FF
:10389000307038E001210843387034E00020307087
:1038A0008B480178FC220A400270FFF787FC1C4914
:1038B00008808A490A7813079B0F19D04023214DAD
:1038C000EE5C80273743EF542B231F4DEE5C02271D
:1038D0003743EF541D4B5D781DB11D78049E354371
:1038E0001D701B4D2D785D701D7801262E431E70B6
:1038F000F3231A400A70FFF76FFC04E00221FC2357
:103900001A4089180170E06A01218843E062E06A88
:103910000843E062206CC6490843206405B0F0BD4E
:10392000260300180480004830400000A40300185B
:10393000A5030018A7030018BC030018A203001871
:10394000B703001894000018E802001830030018AC
:10395000D0020018BE030018AC030018250300189D
:10396000A3030018FF00FFFF70B55E4A107805281A
:103970003BD1244803462C3B19680424A143196019
:10398000C46901218C43C4611C680825AC431C60D8
:10399000002313700346243B1C68FF25AC431B68BF
:1039A000DBB21C19184B1C801C88A4081C801C88C6
:1039B0001F252D040668AE43E406240F2404A41931
:1039C00004601C8864091C801C88742C11D31C881A
:1039D000902C0ED8DF4A022414701A880368934C86
:1039E0001C4052051219026008E01078401C10704B
:1039F00070BD07231370374A0323137002680A430C
:103A0000026070BD2C800048A8030018A7030018AE
:103A10000120000412490A6802430A60FDF7D4B885
:103A20000F48016848F200020A430260FDF788B9B6
:103A300080B50B48016801220A430260FDF7EAF8ED
:103A400038B10848007B48B180BC01BC8646FCF711
:103A500051BF80BC01BC8646FFF786BF80BDC04613
:103A60004480004824040018B0B5174800240470AE
:103A70007D4804707B480470AC480470A54804700D
:103A8000AB480470AC48047012480470B24804702B
:103A9000A3480480A4480470B04D402028709F487B
:103AA00004604460048184720D4801781C220A403D
:103AB000027000F01BF80B480470A64804702878C8
:103AC000BF2101402970B0BDA4030018B80300183D
:103AD000A2030018A1030018A3030018B7030018DD
:103AE000A5030018A0030018A7030018F0B585B0BF
:103AF0004D48002181610125EA4381691140134647
:103B00000092816181690222049211438161816A7C
:103B10007022914381621F210904826A8A43032132
:103B20000391490451188162816A404A0A40412147
:103B3000890551188162816A29438162C16A2943DA
:103B4000C1620621C943C26A0A40C262426C1024A3
:103B5000019422434264426C202402942243426432
:103B6000046C334A14430464C46A0C40C462C16ADE
:103B70001940C162C16A2943C162016C11430164E9
:103B800081690823194381612A4C2268FB27FF437E
:103B900021683940D2B20A4304210A432260426CB0
:103BA0001A434264426C8A434264234A16680E43B5
:103BB0003E401660039A9205204E34689443346068
:103BC00002680E24A24302600268019C2243026044
:103BD0000268009E3240026002688024A2430260B4
:103BE00002684024144304600268029CA2430260FD
:103BF000021F14682C431460049CE443156825409C
:103C0000156015689D431560426C32404264426CF9
:103C100022404264074B18681A683A40C0B2104309
:103C20000843186005B0F0BD04800048FFFF1F0086
:103C30003040000000E100E000E200E000E400E0CD
:103C4000084A1170344A117007490870414803212D
:103C500001704148002101704048017802220A4366
:103C6000027070470F05001820050018F0B581B0EC
:103C700014460D4627490A70364905220A7026491E
:103C80000C70264F142801D0002000E03878C0B214
:103C9000234E3080FFF792FA224908803CB1791C0C
:103CA0002A780A70641E6D1C491C002CF8D1FFF79D
:103CB00093FA184C2078401E1B490870C1B278183E
:103CC00040783288101882B2120A1018C2B23280BC
:103CD00011B9C0431549087078781549087015491D
:103CE0000A68FF239A43101808601C4801780422D0
:103CF0000A4302700120B8722178491E217009061A
:103D000000D102200C490A78FC23134018180870CF
:103D100001B0F0BDB803001824030018AC0300186C
:103D20007C0300182603001896030018BE03001831
:103D3000BC03001824800048A20300180548002195
:103D400001700548017005480178FD220A400270A3
:103D50007047C046A7030018A3030018B703001854
:103D6000F0B585B0D44EB5782846B038052800D9CE
:103D700082E1810001A251188F46C04600F00AB8C6
:103D800000F053B800F0ADB800F076B900F0F3B829
:103D900000F00BB9C94DA8793178081A421E90413C
:103DA0007F394A1E9141014200D065E170780628B2
:103DB00000D061E1F0786978884203D1A97832793E
:103DC0008A4206D0FF2800D056E130797F2800D003
:103DD00052E17079E978884203D12979B2798A422F
:103DE00006D0FF2800D047E1B079FF2800D043E19A
:103DF000F07928700024A028214605D06A21B24A13
:103E0000505400F0D3FD0121B0480170AC480121AD
:103E10004170A9790170E143C170017141718171F3
:103E2000C171B1784031817002E1A44802783178E3
:103E300004928A1A531E9A417F394B1E99411142AE
:103E400000D019E17178062900D015E1F1784278A7
:103E5000914203D180783279824206D0FF2900D086
:103E60000AE130797F2800D006E1B07900907079BE
:103E700000269F49924AFF24122303937F23029333
:103E8000032301930FE0D47194715471039B137158
:103E9000D570029B9370019B5370049B1370761D29
:103EA0003C2E00D1C4E08F5D8742ECD18F192B46A8
:103EB0007D7801460098854208468D491D46E2D12D
:103EC00001205070049810707B48C079B8700020B1
:103ED000C043D07040359570107150719071D071A1
:103EE000A6E0764988793278824203D10A78824204
:103EF00000D0C1E07078062800D0BDE04A78307963
:103F0000904203D18B7874799C4206D0FF2800D070
:103F1000B2E070797F2800D0AEE0CB78B0799842DB
:103F200005D10C792F46F579A5423D4606D0FF28EC
:103F300000D0A1E0F079FF2800D09DE0F478204681
:103F40001038102800D399E00A785D490A700B28D0
:103F500062D804224A70FF228A7140358D70C0B247
:103F600005234343E548C45CCC70C01843780B710B
:103F7000807848715AE0DE4988793278824202D1ED
:103F80000A78824278D17078062875D1EB48FF22F2
:103F9000C2718271427112220271C5707F228270D9
:103FA000032242700978017042E0D249087B002860
:103FB00062D030787F285FD1707806285CD1F078A5
:103FC000FF2859D130797F2856D140480025057007
:103FD000B279022A50D10570707904282FD00328B5
:103FE0003BD0022848D13B480570FCF76BFC002809
:103FF00042D13E48047A20460F38C0B240087928A2
:1040000000D21024E0B201F0A3FA3548012101707A
:104010003448047005B0F0BDFF228A714A71122045
:104020000871CD707F20887003204870C348C2712A
:10403000244801780A220A43027005B0F0BDFCF75B
:104040007BFD23480121017022480522027022488D
:1040500001702248017005B0F0BD214C2078012884
:104060000AD120480078088201F072FA19480570D8
:104070001D4804210170257005B0F0BDAF486CB932
:10408000C270062242704371403585700A78027012
:104090008A7802710A7982714A79C7E7FF228271B0
:1040A000427112230371C5707F2383700323437011
:1040B00009780170BAE7C046D80200182803001832
:1040C000E00200184A0300182404001878010018C0
:1040D0007C01001800000018C1020018010000183F
:1040E000A603001812020018C0020018AC03001842
:1040F000E8020018F0B591B0FFF7B6FCFFF744FAFC
:1041000000F042FA794800250580FEF793FE784CCE
:104110002070FEF78FFEA071C448FF210170C548D2
:104120000570C3480580C7480570C3480580C3486B
:10413000057065206F49085C607065314878A07033
:104140008878E070C8782071087960716A481090AA
:10415000BD4F6B4809906B480F906B4808906B48B7
:1041600007906B480E906B4806906B4805906B4823
:1041700004906B4803906B480D906B480C906B4813
:104180000B906B480A906B4802906B4C0195042091
:10419000C6432078411E0F2939D88A0001A39A18F6
:1041A0009746C04600F01EB800F042B800F01DB8B7
:1041B00000F041B800F042B800F01AB800F041B881
:1041C00000F042B800F043B800F044B800F013B873
:1041D00000F014B800F015B800F016B800F017B8E9
:1041E00000F03BB8B819109939E0B8190F9936E0CA
:1041F000B8190E9933E0B8190D9930E0B8190C9937
:104200002DE0B8190B992AE0B8190A9927E0B919D5
:10421000109A921952794A712821D84D685428353C
:1042200000216970FEF722FDA870761CB1D31BE057
:10423000B819099913E0B819089910E0B819079945
:104240000DE0B81906990AE0B819059907E0B81900
:10425000049904E0B819039901E0B8190299891981
:1042600049794171761C94D30298401D02900A98B6
:10427000401D0A900B98401D0B900C98401D0C900F
:104280000D98401D0D900398401D03900498401D0B
:1042900004900598401D05900698401D06900E98C4
:1042A000401D0E900798401D07900898401D0890EB
:1042B0000F98401D0F900998401D09907F1D109880
:1042C000401D1090019D6D1C0C2D00D05EE700205C
:1042D000C043E64908604860594908604860A848FA
:1042E00017496022FBF73CFF11B0F0BD46030018F0
:1042F000280300182404001852650012E802001870
:104300008E650012CA65001206660012426600122F
:104310007E660012BA660012F6660012326700125C
:104320006E670012AA670012E66700122268001288
:104330005E6800129A680012C1010018E0020018BD
:10434000D86800120B2802D8044900220A5470478A
:104350000B2802D8014901220A547047C4020018F0
:1043600070B5884D2878FF282AD0FB2829D18148AC
:10437000417819B1017804220A4302707E49097814
:104380004170017802220A430270FEF717FF0446CB
:104390002948048029480278501EC0B2072807D84F
:1043A000012A00D801225B48411C2548FBF7E9FFA0
:1043B0002046FEF711FF8A48017801220A43027065
:1043C00070BD6C48417819B1017804220A4302702B
:1043D0006949097841700178022631430170FEF77E
:1043E000EDFE04461448048014480278501EC0B202
:1043F00007280AD8012A00D801222878C00060497D
:1044000008184449491CFBF7BCFF2046FEF7E4FEB0
:10441000287805214143594A5118CA783243CA7055
:1044200070BC02BC8E46FEF7C9BCC046250300180E
:1044300030030018D00200182603001824030018C7
:10444000D80200182F030018E8020018F0B581B058
:10445000044649480470BE2C10DC3C2C14D07D2C42
:104460001FD14848FB21017085480078800709D595
:10447000284804700D207D4908223FE0BF2C01D060
:10448000FE2C0ED101B0F0BD224804703D48FB2146
:1044900001700D20082101B0F0BC04BC9646FFF766
:1044A000CFBB3648071D0026354D04E07F1D08357B
:1044B000761C0C2E0CD0F0B2FFF76EF80028F5D069
:1044C000B81E0078A04209D0FF202E490870EDE701
:1044D00001B0F0BC01BC8646FFF730BC294806702D
:1044E000254800780B4908700020C0433956002940
:1044F0000ADA1420C9070AD03A78294601B0F0BC7C
:1045000008BC9E46FFF7B2BB0D20C907F4D139782D
:10451000C1E7C046AC03001870B5164A507818B110
:1045200010780421014311701348007850701378FB
:1045300002210B4313702A22104CA25C904209D135
:1045400040220F4B9D5C7F262E409E542B22A35C65
:104550000B43A3547D2801D100F044F809480078AA
:104560000B2806D8052141436018C178FD220A4076
:10457000C27070BD30030018D0020018E8020018A5
:1045800094000018250300183649002008803B4994
:1045900011220A700D4908800D49088034490870BD
:1045A00035490860334908800A4908600A490860AB
:1045B000334908700949087029490880084801787A
:1045C000FB220A40027001207047C04642030018D7
:1045D000400300183803001834030018440300187F
:1045E0002F030018F0B51E48002101801D480288E5
:1045F0003AB31D4B1C781D4B1C701D4C25786D1C4F
:104600000F262E40267020365E701A4C25881A4ED2
:104610003668761907E0002202805C18FF27A77031
:10462000491C062905D08FB2BA42F4D9775C5C18D0
:10463000F5E7018821B1AA1D0E4B1A80891F018060
:10464000F0BD0E4801780F2903D80F221140103118
:1046500001700B480178F5220A400270F0BDC04697
:10466000460300183203001828030018E00200185F
:10467000D1020018480300183C0300184503001835
:104680004A03001804480121017072B600F0D6FEFA
:1046900062B601F0A9FAFCE77C010018044805495C
:1046A00001600121816040F20011416000207047EB
:1046B00000C00048040030004D4800687047C04604
:1046C000F0B581B04B48642606700020404C20565F
:1046D000042805D8800041490F5841490D5801E090
:1046E0003C4F3D4D3F484169C90107D501683E2215
:1046F00091430160016801220A4302600020FDF736
:10470000EFF8394941433948B1FBF0F138480160CD
:10471000A94201D8012000E00420364BB94200D262
:1047200002202178884201D01A78561E01B90E461F
:104730001E7071B2002901DD01B0F0BD6421197055
:10474000207001B0F0BDC04670B50020204C20564E
:10475000042805D8800021490D5821490E5801E050
:104760001C4D1D4E1F484169C90107D501683E22F5
:1047700091430160016801220A4302600020FDF7B5
:10478000AFF8194941431948B1FBF0F118480160ED
:10479000B14203D80120A94203D303E00420A94277
:1047A00000D2022022781349904203D00B785B1E7E
:1047B00012B102E0642302B913460B705AB2002A08
:1047C00001DD207870BD64220A702070207870BDF1
:1047D00038020018546F0000BC1B0000D8620012A1
:1047E000C462001204C00048634E0000FF070000CE
:1047F00030000018D4040018014800887047C046F3
:104800007C020018014900200860704710400140F8
:10481000B0B5A720C0434549454CA822435C2518A4
:10482000AB54401CFAD36C20215AF0220A40803A43
:1048300051425141C9013F4A13787F251D406918F3
:10484000117062883C498A4269D0022222520025B6
:10485000E580618039480121E18140F2B071384A38
:10486000384B23626262A1623749384A2061626133
:10487000A16125713648FA30E08336484530A0837F
:104880002120C003A0602046323033A10B22FBF769
:1048900078FD3548E08720463E303421817020463F
:1048A000433032A11422FBF76CFD8C203549215096
:1048B0008820354921508420344921508021344AB0
:1048C000625076210322625275210A2262546E21BF
:1048D00064226254662140F20032625265216054C3
:1048E000902025502B482C49A167E0672046653071
:1048F000C5702046903045608560C5600561858241
:104900007420255440F20110A08124482067E562FC
:10491000258623482349A065E16500F047F8692012
:1049200000212154608920490880B0BDA87600127A
:1049300024040018C0020018290200001000FF0023
:10494000EE052601B2710000E04C00005E1B970BE3
:104950005E1B0000EE050000313233343536373847
:104960003930313200000000483000003132333439
:1049700035363738393030393837363534333231E7
:1049800000000000025A02039A01503A3C18014606
:104990000032B400320028641411001E50BC000024
:1049A0005C003C003700110098030018F0B583B09C
:1049B0006C272C4DE85BF021029108408038414281
:1049C0004141C801284C21787F22019211400818EA
:1049D000207021782548042908D10021244A064660
:1049E000904720494022012330461BE00126204AFF
:1049F00031469047009740271C481A493A463346AB
:104A00001C4DA84719484030164940313A463346B4
:104A1000184DA8471548803012490D4680313A4656
:104A2000009F3346134EB0472078052108420AD133
:104A300000210F4A0D4E304690470A49402201237B
:104A400030460C4EB047E85B02990840803841423E
:104A50004141C8012178019A11400818207003B023
:104A6000F0BDC04624040018C002001800760012F1
:104A7000B51F0000B11F0000042806D0032807D08E
:104A8000022808D18D48008870478A4800887047FE
:104A900089480088704700207047C046042806D027
:104AA000032807D0022808D13E48007870473E48C6
:104AB000007870473A480078704701207047C04638
:104AC000811ECAB240F2D070022A04D848B28000D7
:104AD00002A10858006800B27047C04610000018D4
:104AE0000C000018080000180D480E494160002114
:104AF000C160016141618161C1610162282242623C
:104B00008262C26210224263082242648164C164EC
:104B10000165054AC266C167012101607047C04650
:104B200000400148007D020001000700002001460E
:104B3000024600F03BB80000114840F2F411018039
:104B4000104801801048018010484178FD220A4039
:104B50004270F44801780907890F01D001210170E2
:104B6000EF4801780907890F01D001210170EB4856
:104B700001780907890F01D0012101707047C046F3
:104B8000FA000018F8000018F600001802050018D6
:104B9000E34801210170E3480170E048017070476B
:104BA00090000018F400001834000018F0B581B02F
:104BB00000903F4E34780023012C184600D0104658
:104BC0003578022D1A4600D00246367843F2002787
:104BD000032E43F2002000D0104600B1C01C012C6F
:104BE0001A4600D00A46022D43F2002100D0114699
:104BF000032E1A461BD1EAB9012C00D0009F022DCA
:104C000019461BD1032E1CD103B1DB1C9BB2294FCB
:104C1000294C2A4D2988994217D1218896B2B14250
:104C200013D1398886B2B1420FD101B0F0BD0A4626
:104C3000002AE1D0D21C012CE0D1E0E73946032E56
:104C4000E2D00B46002BE0D1E0E71D4EB34200D38B
:104C5000334697B21B490B6082B2B24200D3324650
:104C60004A60B74200D337468F6027802B801148B7
:104C700002800C6840F2E013012000229C420546AD
:104C800000D81546AC4C26880727BE4375198E6898
:104C90009E42064600D81646B600751949689942E4
:104CA00000D8104640002818208001B0F0BDC04652
:104CB0009A030018580200185602001854020018EF
:104CC000FF7C000018400148F0B587B09348007899
:104CD0000590934800780490924D2878069001261C
:104CE0003046FCF7FDFD41F6407460438E4FB0FB4B
:104CF000F7F22878022801920AD18C480068032133
:104D0000414310B20818C117890F4018801000E005
:104D100010B28649086002252846FCF7E1FD604391
:104D2000B0FBF7F27D4800780228039602920AD180
:104D30007F4800680321414310B20818C117890F4A
:104D40004018801000E010B2794908600326304610
:104D5000FCF7C6FD4443B4FBF7F1714F38780228E5
:104D600009D174480068464308B23018C217920F40
:104D70008018801000E008B2049E6E4A10606E48F1
:104D80000288D0076D480CD0019B1B04984201DAC1
:104D9000042305E06A4CA34201DB069501E00823E9
:104DA000069353075F4C059D0AD50904884203DA30
:104DB0000426910706D415E0614B99420DDB0226CB
:104DC00091070FD502990904884201DA042509E008
:104DD0005B48814205DB022504E008269107F1D4F7
:104DE00000E008250021574A06980007800F40F28E
:104DF000DB100AD0535E012B07DB5B1E13809AB2D7
:104E0000824208D1504A069B04E0069B237040F280
:104E1000DB13193313804D4A33079B0F0AD0535EBF
:104E2000012B07DB5B1E13809AB2824207D1464AF0
:104E3000568004E03E7040F2DB1319331380444A7D
:104E40002B079B0F0AD0515E012907DB491E1180F9
:104E500089B2814206D13C48858003E02F490D701C
:104E60001930108023783A78114619432B4800787E
:104E700001430C240C40611E8C416100354C657867
:104E8000FD262E408919617033490C7864B95C079E
:104E9000039E0BD4540712D4440719D41B0720D403
:104EA000120727D400072ED407B0F0BD2F24B04D31
:104EB0002E552A4C042525700E705407ECD530244D
:104EC000AB4D2E55254C042525700E704407E5D5B5
:104ED0003124A74D2E55214C042525700E701B073B
:104EE000DED52C23A24CE6541C4B04241C700E70FF
:104EF0001207D7D52D229E4B9E54184A04231370B7
:104F00000E700007D0D52E20994A039B13541348E6
:104F1000042202700B7007B0F0BDC04634000018C8
:104F200090000018F4000018FF070000100000189F
:104F3000080000180C000018B802001800009311B7
:104F40000000F501FA000018A4010018F80000188C
:104F5000F60000180205001880010018C0020018B1
:104F600000208A49085E704700208949085E704722
:104F7000F0B58BB009200A90FCF7B2FC77494143A9
:104F80007748081880107D21890390FBF1F02838BC
:104F90007449097861B10A214143734800880722A6
:104FA0004243501801B2490F401800B2C11001E04D
:104FB0000A2141436C48018002263046FFF75CFD20
:104FC00005463046FFF77CFD6843684990FBF1F0E9
:104FD000099003252846FFF74FFD08902846FFF764
:104FE0006FFD0746042401942046FFF745FD079016
:104FF0002046FFF765FD58215D4C615E099A5143DB
:10500000089A5743594A97FBF2F25A23E35E5343F7
:10501000591804915C21615E079A5043534A90FBF2
:10502000F2F74F433046FFF727FD0990FFF744FBA7
:1050300008903046FFF744FD06902846FFF71CFD18
:105040000790FFF739FB05902846FFF739FD0390DD
:10505000019D2846FFF710FD0446FFF72DFB029047
:105060002846FFF72DFD0190FFF726FB0546414836
:10507000E64E854201D8603600E061360498C019DA
:105080000490FFF719FB0021009171560004394A82
:10509000954202D8394A101A01E0374A8018DB4B92
:1050A000001440F2E83290FBF2F041430A2591FBF4
:1050B000F5F05E26995F40180899069A891A099AB0
:1050C0004A430599039FC91B079F4F43B918029A8A
:1050D000019FD21B5443091947F6005291FBF2F18C
:1050E000414304984018152444431F46FFF7E4FA4F
:1050F000B95F414369436018214990FBF1F00A9977
:10510000C9434143184800880818164F39780129C7
:1051100009D11C49009A895E0F224A4300B2101837
:10512000010F40180011174C2080174D2E88FFF7F3
:1051300063FB301AFA3000B2012801DB387848B935
:10514000FFF75AFB2880208810490880064800880D
:105150000F490880012038700BB0F0BDC4B61100B3
:10516000004067F4580300180A0500180083FFFF89
:1051700024040018DF2E0000000020D10000E02EE3
:1051800040420F000C050018220500189C0300186F
:10519000C803001810B51B480168452903D81A49EF
:1051A000097801290ED119490A6801231A400C68AF
:1051B0009C43A2185A400A60134A002111700160F2
:1051C00048B210BD962148B210BDC04610B50D487A
:1051D0000168452903D80C49097801290ED10B49EA
:1051E0000A6801231A400C689C43A2185A400A60BE
:1051F000054A00211170016048B210BD962148B2E5
:1052000010BDC0461C05001813020018040700401A
:1052100084480021018081480180814801808248C2
:1052200001807D48012202607A4801707047C046C3
:1052300080B5FFF77BFC102000F08AF90348FF21BE
:10524000017003480021017080BDC04612020018A1
:1052500001000018F0B581B00446FFF7CDFAF84917
:105260000A793F261640022E00D8022600908F7938
:10527000644AD078012804D1087C012801D1022099
:1052800008747F251078022807D1032010700120B0
:10529000D070507818B1022602E02F4001E00A26B3
:1052A0000027FCF765FFFFF75BFEE54B9A782A4085
:1052B00005214A432280A08040F6A070642F01D8C7
:1052C00028207843A060D87828404143618002209C
:1052D000C043197CC91E8142009D72D8A71C494A4F
:1052E000D07801282ED1484805806E20B349085651
:1052F00000280ED5107803280BD0FBF777FA40B1C1
:105300007043322141436420B1FBF0F0642804D99A
:1053100004E032207043642800D864203C490880AF
:105320003C48012101703C480068214600B13B49DE
:1053300009883B4A11800028384600D03948008847
:1053400039490880304801883148008820B14A1B1B
:10535000121812B2002A02DC2E4A002313702D4AC2
:105360001278012A24D1691A89B2411A22882C4B59
:105370001B88934205D99B1A4B43B3FBF0F3D21819
:1053800004E0D31A4B43B3FBF0F3D21A22806288B5
:10539000254B1B88934205D99B1A5943B1FBF0F06A
:1053A000101804E0D31A5943B1FBF0F0101A3880FA
:1053B00020881A49088060881A490880A068164920
:1053C0000860284621463246FCF792FF00250D4E24
:1053D000F570204600F092FD3078032801D1A068D6
:1053E00058B19749087C022805D19848007810B92F
:1053F000A06800B10D7401B0F0BD0420307001B0A0
:10540000F0BDC046020500182A0200182404001846
:105410002C02001829020018140000187E0200183F
:1054200008040018800200180A04001870470000E1
:10543000014800787047C0460E05001810B5FBF70C
:10544000BBF83C48002101703B480160416081602D
:105450003A480246143A136806218B4313601368D6
:105460005B079B0FFBD1036840F20014A34303606A
:1054700003688024A3430360036840F20024A3432D
:10548000036001231360072414600246183A14686D
:105490000C43146011681943116001681022914394
:1054A00001600168202291430160FFF7B1F9BE4C11
:1054B000A07A43490870FFF789FEFCF745F8FFF72B
:1054C00069FEFFF79FF9FFF7E9F800F0D5FC162019
:1054D000215E1420205EA269FDF7B8FB1E20215E2C
:1054E0001C20205E226AFDF7A1FB2620215E2420DD
:1054F000205EA26AFDF78AFBFCF73AFEFFF7E0F8B0
:10550000FFF7F2FAFFF746FEFDF752FE6A20205C35
:105510000B490870FFF770F90A300A490880A07A31
:1055200000F016F80848094910BC04BC9646FBF781
:1055300077BBC0461605001818400148488000484F
:10554000280300180805001831520012992C001287
:1055500010B5411E0F2909D81549095C2522914B28
:1055600099541449095C2A22995414E04109C2084B
:105570004A4041084A4003095A40D20184084C403D
:105580005C404440E107490E891880224A400243AA
:105590002A21844B5A54084901220A708249897A87
:1055A000074A11700749085C0749087010BDC046DA
:1055B000306500124165001228020018240400180A
:1055C000C1010018EC620012A201001870B51C485D
:1055D0000179C02211400171837880210B408370D2
:1055E000C3780B40C3700488164B1C400480457977
:1055F000F0242540457185790D408571124D2E7935
:1056000016402E71AA780A40AA70EA780A40EA7019
:105610002A881A402A806A7922406A71AA790A4047
:10562000AA710121017409480021817508481621D9
:10563000FAF704FF70BC01BC8646FFF7E9BDC0461F
:10564000D60400180080FFFFF20300185C03001866
:10565000EC04001880B552483821FAF7F1FE80BDFD
:10566000F0B581B072B64027FA4EF05D8F2101404F
:10567000F155FFF7DDFE2B25F34A515D022421434E
:105680005155F15D4007400E08430097F05562B652
:1056900072B6505D20435055304616464030424960
:1056A000897B417141490A88120A427062B672B61A
:1056B000725D224372550988817062B672B6715D5F
:1056C000214371553A490988C17062B672B6715D5D
:1056D0002143715537490988017162B62046FFF7A9
:1056E000DDF9012816D10320FFF7D8F9012811D1DF
:1056F0000420FFF7D3F901280CD172B6D54A009BDC
:10570000D05CFC210140D154705D2043705562B6DD
:1057100001B0F0BDFEF7D0FF43F68061884230D87B
:10572000FEF7CAFF244988422BD302242046FFF704
:10573000B5F9400727D40320FFF7B0F9400722D47A
:105740000420FFF7ABF940071DD402273846FFF7C6
:10575000A5F9000717D40320FFF7A0F9000712D41A
:105760000420FFF79BF900070DD472B6705D384333
:105770007055B84A009BD05CFC210140881CD05475
:1057800062B601B0F0BD72B6B24A009BD05C032194
:105790000143D154705D2043705562B601B0F0BD35
:1057A00094000018E802001824040018D803001818
:1057B000DC030018E003001828230000F0B58DB0CA
:1057C000A0480078052141439F4E7118C978890788
:1057D0009E4C06D52178012903D180009C490858A8
:1057E00080472278012A00D0A2E00292372199480E
:1057F0000591415C0C912F210491415C0B91272173
:105800000391415C0A9148210191415C01242140AE
:105810000691C17F0991C77DC17B0891C07907902E
:10582000032504E08E4908706D1D2B2D73D0705D2B
:105830008107F9D5FD21084070553B4679B2012713
:1058400000200029394600D40146089A52B2002AA5
:105850003E4600D40646079A52B2002A224600D499
:105860003246264602B90E46099949B200293A46FF
:1058700000D40246214606B911460A9A52B2002ABD
:105880003A4600D402460029214600D111460B9A1F
:1058900052B2002A3A4600D402460029214600D1DD
:1058A00011460C9A52B2002A00D40746002921461C
:1058B00000D13946069A561EB2410029214600D130
:1058C00011460129604E1F46ACD17F210C9B0B4035
:1058D000604A05980C9313540B9B0B4004980B9350
:1058E00013540A9B0B4003980A93135400205A4BFD
:1058F00018700120594B1870099B0B400993D377FE
:105900000F40D775089B0B400893D373079B0B4040
:105910000793D37186E74F49019BC85CC007029A81
:1059200006D00020C85401214D4B19704A49087017
:105930000020012A00D080E049490A78012A7CD160
:1059400000200C90087047498B78554882785A405F
:1059500052061DD1CA78C4785440620618D10A791B
:1059600004795440A20613D14A794479544022075D
:105970000ED18A79847954407F222240541EA2415C
:10598000394C2478641E654265411543012D56D17A
:105990008D797F2215403548867937461740EC1BB4
:1059A00000D27C1B32480470134026D0C8784006D1
:1059B0000AD0642D08D888792C4A90718888908004
:1059C00048885080364C2FE0BBB1C878104014D0C6
:1059D000264C0546A07880221040C018A070E078C0
:1059E00010404019E07008793F2202402079C0231E
:1059F0000340981820712A4C16E0642D01D80C9AA7
:105A000000E00122784278411043254C0CD18020DF
:105A100006407019154DA87108793F220240287977
:105A2000C023034098182871124A0120D0704A8878
:105A300062808A88A2808979A1710DB0F0BD0020B2
:105A40000DB0F0BDA2010018E80200180100001816
:105A5000FC000018940000187C01001819000018C0
:105A6000E2010018EC040018C0010018D604001868
:105A70008101001802050018094881788022114030
:105A80008170C1781140C1708179114081710179B3
:105A9000C0220A4002714179F0220A4042717047E7
:105AA000F2030018F0B581B01D4614460E460429D5
:105AB00015D0032E2FD1FEF79FFE24490860062043
:105AC00028806670672020700868A0700868000A47
:105AD000E0700868010C2171000E607130E04178BF
